:020000040800F2
:10000000084D00207D0200084B2C000845290008FF
:10001000492C00082B0A0008B13500080000000038
:10002000000000000000000000000000C101000806
:10003000150C000800000000150200087D2E0008C5
:10004000970200089702000897020008970200082C
:1000500097020008BD2D00089702000897020008CB
:10006000970200089702000897020008970200080C
:1000700097020008970200089702000897020008FC
:10008000970200089702000897020008390A000842
:100090002D0A00089702000897020008970200083E
:1000A00097020008970200089702000897020008CC
:1000B00097020008752F00089702000897020008B1
:1000C00097020008970200089702000897020008AC
:1000D000970200088D350008970200089702000873
:1000E000970200089702000897020008970200088C
:1000F000970200089702000897020008970200087C
:10010000970200089702000897020008970200086B
:10011000970200089702000897020008970200085B
:100120009702000897020008650B00089702000874
:10013000970200089702000897020008970200083B
:10014000970200089702000897020008970200082B
:10015000970200089702000897020008A5350008DA
:10016000970200089702000897020008970200080B
:10017000970200089702000897020008000000009C
:1001800097020008970200089702000897020008EB
:1001900097020008970200089702000897020008DB
:1001A000000000000000000097020008DFF80CD0FB
:1001B00000F0FAFB0048004789520008084D002073
:1001C0002B4B19680868B0E8F04F80F30988BFF33B
:1001D0006F8F4FF0000080F311887047000000001F
:1001E00006480068006880F3088862B661B6BFF30D
:1001F0004F8FBFF36F8F00DF00BF00BF08ED00E03F
:10020000DFF80C00016841F470010160704700BF25
:1002100088ED00E0EFF30980BFF36F8F144B1A688D
:100220001EF0100F08BF20ED108A20E9F04F10607B
:1002300008B44FF0500080F31188BFF34F8FBFF325
:100240006F8F06F0A9F84FF0000080F3118808BC0A
:1002500019680868B0E8F04F1EF0100F08BFB0EC46
:10026000108A80F30988BFF36F8F704700BF00BF0B
:10027000EC050020EFF3058070470000064880473A
:1002800006480047FEE7FEE7FEE7FEE7FEE7FEE77B
:10029000FEE7FEE7FEE7FEE7212F0008AD010008BC
:1002A0002DE9F05F0546002092469B4688460646AB
:1002B000814640241BE0284641464746224600F03E
:1002C000FCF953465A46C01A914110D311461846BC
:1002D000224600F0E3F92D1A67EB01084F4622464B
:1002E0000120002100F0DAF917EB00094E41201E31
:1002F000A4F10104DFDC484631462A464346BDE806
:10030000F09F40EA01039B0703D009E008C9121FD0
:1003100008C0042AFAD203E011F8013B00F8013BBF
:10032000521EF9D27047D2B201E000F8012B491EEB
:10033000FBD270470022F6E710B513460A46044682
:100340001946FFF7F0FF204610BD2DE9FE4F80460D
:1003500081EA0300C00F0C46009021F0004123F019
:100360000045B8EB0200A94105D24046214690461F
:100370001C460B46024623F00040104347D0270D91
:10038000C7F30A00C3F30A510290401A01904028B3
:100390006BDAC3F3130040F4801B0098924620B13F
:1003A0000023D2EB030A63EB0B0B01985946C0F113
:1003B0004002504600F072F906460D465046594636
:1003C000019A00F08AF910EB08006141002487EAE5
:1003D000115284EAE7731A4340D0009A62B3019A3B
:1003E000012A4FEA075215DC001B61EB02014FF0B6
:1003F000004202EA0752CDE90042001C41F580119B
:1004000032462B4600F0C1F903B0BDE8F08F4046FC
:100410002146F9E7001B61EB0201001C41F5801346
:1004200000185B412018A2F5001747EB030140EAD2
:10043000D570B6196D4111E06D084FEA360645EAF0
:10044000C0754FEA0752001B61EB0201001C41F529
:10045000801149084FEA30000019514132462B46BD
:1004600003B0BDE8F04F00F081B9009801224000D0
:100470000023D0EB020263EBE073009821464FEAC1
:10048000E074B8EB000061EB0401E9E783F000439E
:100490005BE781F0004158E72DE9FE4F81EA030454
:1004A00004F0004421F0004100944FF0000B23F0D1
:1004B000004350EA01045ED052EA03045BD0C3F368
:1004C0000A54C1F30A552C44A4F2F3340194A0FB5E
:1004D0000254C1F3130141F48011C3F3130343F435
:1004E000801301FB024400FB034E840A970A44EA8E
:1004F000815447EA8357A4FB076802958D0A05FBE0
:1005000007854FEA932C04FB0C542705029D4FEA04
:10051000065847EA1637B5EB08056EEB070C870E51
:10052000920E47EA811742EA8312A7FB0201B6EB5B
:100530000B0164EB00042B0D43EA0C335E1844EB13
:100540001C50DA465146E7FB0201C5F313044FEA9B
:100550000B3343EA14534FEA0432019C43EA060387
:10056000A4F10C040294009CCDE900B400F00DF954
:1005700003B0BDE8F08F00200146F9E70EB5C10FCA
:1005800080EAE0700844CA07002140F233438DE856
:100590000E000A460B4600F0F8F803B000BD70B537
:1005A000C1F30A5201F000450024C1F3130140F2E7
:1005B000FF3341F480119A4201DA002070BD40F20D
:1005C00033439A42A2F2334203DC524200F075F800
:1005D00000E090402C43F1D0404270BD00F000425A
:1005E00030F000400AD0C10D01F56071C0F3160073
:1005F00042EA0151C20840071143704700200146FA
:100600007047000030B5041E71F1000404DB4FF0A8
:100610000044404264EB0101141E73F1000405DB49
:100620001C464FF00043524263EB04038B4208BF69
:10063000824230BD30B5041E71F1000404DB4FF07E
:100640000044404264EB0101141E73F1000405DB19
:100650001C464FF00043524263EB0403994208BF2B
:10066000904230BD01F0004330B421F0004150EA27
:10067000010206D00A0DA2F56072C1F31301002A2F
:1006800002DC30BC00207047440F44EAC104C100C2
:10069000E01830BC00EBC25000F031B8202A04DB77
:1006A000203A00FA02F1002070479140C2F1200385
:1006B00020FA03F3194390407047202A04DB203AC4
:1006C00021FA02F00021704721FA02F3D040C2F172
:1006D00020029140084319467047202A06DBCB17B9
:1006E000203A41FA02F043EAE07306E041FA02F3ED
:1006F000D040C2F1200291400843194670470029BA
:10070000A8BF7047401C490008BF20F00100704797
:1007100010B4B0FA80FC00FA0CF050EA010404BFF7
:1007200010BC704749B1CCF1200421FA04F411FA4D
:100730000CF118BF012121430843A3EB0C01CB1D91
:100740004FEA00614FEA102042BF002010BC704702
:1007500000EBC35010440029A4BF10BC7047401CDC
:10076000490008BF20F0010010BC704710B5141EEE
:1007700073F1000408DA401C41F1000192185B415A
:100780001A4301D120F0010010BD2DE9F04D924631
:100790009B4611B1B1FA81F202E0B0FA80F2203248
:1007A0009046FFF77BFF04460F4640EA0A0041EA05
:1007B0000B0153465A46084313D0114653EA010031
:1007C00019D0C8F140025046FFF777FF05460E46A4
:1007D000504659464246FFF761FF084305D00120C5
:1007E00004E020463946BDE8F08D0020054346EA86
:1007F000E0762C4337430A986305E40AA0EB08002F
:100800000022FD0A44EA47540A3002D5002001467E
:10081000E9E7010510196941DDE908450019694159
:10082000BDE8F04DA2E72DE9F04D81EA030404F0A4
:10083000004B21F0004514464FF0000A23F0004120
:1008400050EA050220D054EA01021DD0C5F30A5730
:100850000246C5F31303C1F31300C1F30A5640F473
:10086000801543F48013A7EB0608101BD64608F248
:10087000FD3873EB050002D308F1010801E092187E
:100880005B41B8F1000F03DA00200146BDE8F08DAE
:1008900000204FF48011064684460EE0171B73EBD0
:1008A000050705D3121B63EB050306434CEA010C55
:1008B00049084FEA300092185B4150EA0107EDD138
:1008C00052EA030012D082EA040083EA05010843D9
:1008D00005D0101BAB4106D20122002306E0002206
:1008E0004FF0004302E06FF0010253101AEB0600D4
:1008F0004CEB085110EB0A0041EB0B01BDE8F04D49
:10090000FFF734BF2DE9F04D00231A461B1A8A4128
:1009100003DB00200146BDE8F08DC1F30A52C1F3AC
:10092000130141F480154FF0000BD10702D10018DC
:100930006D41521E0027044640F2FF11384601EB7C
:10094000620A3E468046024600204FF48011FFF7BF
:10095000B4FEC2197141BB1846EB0100B4EB030CA5
:1009600075EB000C04D3E41A65EB000517460E4640
:10097000241908F101006D4180463428E3DDF9199E
:1009800046EB0600091BA84103D24FF0FF32134685
:1009900001E0002213461BEB070046EB0A51BDE8BD
:1009A000F04DFFF7E3BE0000064C074D06E0E0689F
:1009B00040F0010394E8070098471034AC42F6D3A6
:1009C000FFF7F8FBDC680008FC68000870B58D18BC
:1009D00010F8014B14F0030201D110F8012B231180
:1009E00006D110F8013B03E010F8016B01F8016B30
:1009F000521EF9D1ABB110F8012B04F00C048A1A85
:100A00000C2C03D0A2EB84129B1C08E010F8014BC5
:100A1000A2EB0422F8E712F8014B01F8014B5B1E30
:100A2000F9D5A942D4D3002070BDFEE7014800F0FB
:100A3000FDBA0000D4070020014800F0F7BA00001A
:100A4000D407002070B520481E490024016003210E
:100A5000C0E901144FF40021C0E903414FF44011F3
:100A60004161047644768476C4760477012545771F
:100A700000F0DAFB18B11F2114A002F09AFD18480B
:100A80004FF4007140F2FF1284600160082101619F
:100A9000183084600260C0E90341183001460562E5
:100AA000C0E906450461046044604461064800F002
:100AB000A7F90421044800F02AF9BDE87040024873
:100AC00000F07ABC00640040D40700202E2E5C4267
:100AD00053505C6273705F63616E2E6300000000B0
:100AE0009C4600201A4B30B40A461968491C19600C
:100AF0000368A3F20123042B27D2DFE803F0020AE4
:100B0000121A322902D80146124816E0114611483D
:100B100018E0322902D801460F480EE011460E486F
:100B200010E0322902D801460C4806E011460B4875
:100B300008E0322904D80146094830BC00F0DCB88E
:100B40000748114630BC00F067B830BC7047000061
:100B5000AC0700206C470020B84700200448002064
:100B600050480020014800F06DBC00007C080020C7
:100B700001681823CAB2103AB2FBF3F2054B6FF3C7
:100B80000901032A9B5CC36500D9091D81650846DC
:100B9000704700003167000810B5014600208B69DE
:100BA0008A6A4FF0C07453B1B3F5005F15D072B1CB
:100BB000012A0CD0022A0AD0032A09D104E01AB172
:100BC000012A06D0022A03D1C96AC90100D5012031
:100BD00010BDC96AA142FAD010BD002AF7D0012A7F
:100BE000F2D0022AF3D0032AF3D010BD30B5046846
:100BF000256825F480252560046863608368402BA0
:100C0000036803D099600068C26030BD9A600068D4
:100C1000C16030BD7047000030B5002304681A463B
:100C20004460098849BA016001684468091BC160D1
:100C30002E491C460968322901D2C46119E0C168F5
:100C400041F65835E94206DA816B491C8163C16877
:100C500001F500510CE0C16841F65835A94206DDA6
:100C6000816B491E8163C168A1F5005100E0C16834
:100C7000C1610168856B01EB45318160016885695F
:100C8000DFED1B0A491B00EE101AB8EEC00A20EE79
:100C9000200ADFED180A20EE200A80ED100AC16953
:100CA00000EE101A017DB8EEC00A00EB8105491C68
:100CB000017585ED080A017D062900D1047500EE55
:100CC000102A00EB83015B1CB8EEC00AD1ED080AC4
:100CD000062B30EE800ABDEEC00A10EE102AEEDBC5
:100CE000062192FBF1F1C16330BD0000AC0700208A
:100CF0000000B44300000039118849BA816181695C
:100D00008160816941600169491C0161704790F807
:100D10002020012A09D090F82020022A05D0416A1B
:100D200041F48021416201207047006842690A4312
:100D3000426100207047F0B590F82040012C07D0A8
:100D400090F82040022C03D0416A41F4802153E006
:100D50000468A5686D0105D4A5682D0102D4A568B5
:100D6000ED0046D5A4680125C4F30164A5401D60CB
:100D70008D684FF4C0739DB1CE6835434E6845EA27
:100D8000C605066803EB0417F5514FF4C2750768F2
:100D900005EB04150E697E51097D012905D009E096
:100DA0000E88CD6845EA4655EBE701684E5946F492
:100DB00080764E511179D2F805504FF4C67641EA4B
:100DC0000521056806EB0416A9511178D2F8012017
:100DD0004FF4C47541EA0221026805EB0415515134
:100DE000006803EB0411425842F001024250002017
:100DF000F0BD416A41F4001141620120F0BD0000E4
:100E000010B590F82020012A09D090F82020022A5D
:100E100005D0416A41F480214162012010BD3A4869
:100E2000D0F8002242F00102C0F80022D0F80022DF
:100E300022F47C52C0F80022D0F800224B6A42EA29
:100E40000322C0F800220B7D01229A40D0F81C3208
:100E50009343C0F81C32CB69B3B9D0F80C3293433A
:100E6000C0F80C328C894B6864F31F434C6900EB6B
:100E7000C404C4F840320C890B6864F31F434C6906
:100E800000EBC404C4F84432CB69012B16D1D0F86E
:100E90000C321343C0F80C320C884B6864F31F43C8
:100EA0004C6900EBC404C4F840320C89CB6864F38D
:100EB0001F434C6900EBC404C4F844328B69002B17
:100EC000D0F804320ED01343C0F804320B69002B63
:100ED000D0F8143208D01343C0F81432096A01293B
:100EE00004D008E09343EFE79343F5E7D0F81C12F2
:100EF0001143C0F81C12D0F8001221F00101C0F813
:100F00000012002010BD000000640040704790F8FF
:100F100020300022012B03D090F82030022B04D186
:100F2000006821B1006900F0030210467047C068F4
:100F3000F9E730B590F82040012C07D090F8204018
:100F4000022C03D0416A41F4802109E011B101294A
:100F500009D00CE00468E46807E0416A41F400113C
:100F60004162012030BD04682469A407F5D04FF424
:100F7000D874056804EB01142D5915F0040595602B
:100F800005682D5942D0ED08556005682C59C4F309
:100F90004004D4604FF4DA74056804EB01142D5951
:100FA00005F00F05156105682D59C5F307259561F5
:100FB00005682C59240C54614FF4DC72046802EB70
:100FC0000112A4581C700468A458240A5C700468B8
:100FD000A458240C9C700468A258120EDA704FF4C6
:100FE000DE72046802EB0112A4581C710468A45854
:100FF000240A5C710468A458240C9C710468A258EB
:10100000120EDA7129B1012909D00DE06D0D1560BC
:10101000BBE70068C16841F02001C16004E00068DE
:10102000016941F020010161002030BD2DE9F05F30
:101030000546006800244669D0F804908768D0F817
:101040000CB0D0F810A0D0F81880F10748D0F907FC
:1010500014D001218160B80703D5284600F0D9F9E2
:101060000CE0780702D54FF4006407E0380702D59A
:101070004FF4805402E0284600F0CAF9F80516D56E
:1010800029684FF480708860B80503D5284600F0C1
:10109000C2F90CE0780502D544F4005407E03805A5
:1010A00002D544F4804402E0284600F0B3F9F80386
:1010B00016D529684FF480308860B80303D52846D8
:1010C00000F0ABF90CE0780302D544F4004407E0EB
:1010D000380302D544F4803402E0284600F09CF93D
:1010E000300707D55FEACB6004D52968102044F4A7
:1010F0000074C86070074FF0080707D55FEA0B70EF
:1011000004D52868C760284600F050F9B00706D516
:101110002868C068800702D0284600F048F97006A9
:1011200007D55FEACA6004D52968102044F48064BA
:101130000861B00607D55FEA0A7004D52868076120
:10114000284600F035F9F00606D5286800698007C2
:1011500002D0284600F02DF9B00308D55FEAC96037
:1011600005D5296810204860284600F023F9F003CF
:1011700007D55FEA097004D528684760284600F063
:101180004DF9300446D55FEA497040D5F00504D5E5
:101190005FEAC87001D044F00104B00504D55FEAED
:1011A000887001D544F00204700504D55FEA4870E8
:1011B00001D544F00404300529D518F0700F26D06D
:1011C00008F07000402815D006DC102809D020282F
:1011D0000AD0302816D10AE050280ED0602811D14C
:1011E0000EE044F008040DE044F010040AE044F07E
:1011F000200407E044F0400404E044F0800401E0EF
:1012000044F480742868816921F070018161296843
:1012100004204860002C05D0686A20436862284694
:10122000FFF774FEBDE8F09F70B5040003D094F89A
:10123000200010B104E0012070BD204600F082F8CB
:101240002068016821F00201016000F057FB0546AB
:10125000052604E000F052FB401B0A2811D8206844
:1012600040688007F6D42068016841F00101016000
:1012700000F044FB05460BE000F040FB401B0A2851
:1012800006D9606A40F40030606284F82060D2E7DA
:1012900020684068C007EFD0207E012820680168E0
:1012A0003DD021F080010160607E01282068016846
:1012B00038D021F040010160A07E0128206801683B
:1012C00033D021F020010160E07E01282068016810
:1012D0002ED041F010010160207F012820680168B4
:1012E00029D021F008010160607F01282068016891
:1012F00024D021F004010160D4E902010843D4E9BB
:101300000412114308436168491E08432168C861FB
:1013100000206062012084F82000002070BD41F0B0
:101320008001C0E741F04001C5E741F02001CAE774
:1013300021F01001CFE741F00801D4E741F00401AA
:10134000D9E7000000B50068154987B0884225D16B
:1013500014480021026842F0007202600068022214
:1013600000F0007005900320CDE90210CDE90002E5
:101370000920049069460C4800F0D4F900220521A8
:10138000132000F073FB132000F064FB0022052102
:10139000142000F06BFB142000F05CFB07B000BDD4
:1013A0000064004040380240000C02407047704723
:1013B000704770477047000070B5044690F82000F1
:1013C000012804D0606A40F40020606218E0022026
:1013D00084F820002068016821F00101016000F01C
:1013E0008DFA05460EE000BF00F088FA401B0A287F
:1013F00008D9606A40F400306062052084F820005B
:10140000012070BD20684068C007EDD1606270BDEA
:10141000704770477047704770477047704790F843
:101420003510022903D08021416501207047052134
:1014300080F835100068016821F00101016000208A
:10144000704700002DE9F84304464FF00009CDF83D
:10145000009063484FF41651A56D0068B0FBF1F79A
:101460002E6894F85C10082000FA01F131420FD088
:1014700021680A6852070BD50A6822F004020A6044
:1014800094F85C108840A860606D40F001006065D1
:1014900094F85C104FF0010808FA01F0304208D0CF
:1014A00021684969090604D5A860606D40F0020012
:1014B000606594F85C1004208840304208D02168B0
:1014C0000968890704D5A860606D40F00400606574
:1014D00094F85C1010208840304218D021680968C8
:1014E000090714D5A86020680168490304D500687D
:1014F000000308D5A16C07E00168C90503D40168A1
:1015000021F008010160216C09B12046884794F858
:101510005C1020208840304231D021680968C9061B
:101520002DD5A86094F8350005282068016806D0FC
:10153000490347D5006800031DD4616C1CE021F00D
:10154000160101602068416921F080014161206C31
:1015500008B9A06C20B12068016821F00801016081
:1015600094F85C103F208840A86084F8349084F898
:101570003580216D1FE0E16B09B120468847606D21
:1015800000282BD0606DC00714D0052084F83500EA
:101590002068016821F0010101600098401C009062
:1015A000B84203D820680068C007F6D184F83490A8
:1015B00084F83580E16C002910D001B02046BDE8E8
:1015C000F04308470168C905D5D4016821F010012E
:1015D000016084F8349084F83580CCE7BDE8F88366
:1015E000C40500202DE9F041044600F087F90646C5
:1015F0005CB1002584F83450022084F8350020685E
:10160000016821F0010101600DE00120BDE8F081D9
:1016100000F074F9801B052805D92020606503209F
:1016200084F83500F2E720680068C007F0D122682E
:10163000116820480140D4E901031843D4E9033676
:101640003343184363691843A3691843E369184394
:10165000236A18430843616A042903D1D4E90B13B0
:1016600019430843106020684069666A20F007014A
:1016700030460E43012704280CD1A06A0643E06AD5
:1016800040B12046FFF788FA20B14020606584F819
:101690003570BAE7206846612046FFF769FA94F88A
:1016A0005C203F2191408160656584F835700020A1
:1016B000ACE700003F8010F070B5044690F83400AD
:1016C000002501280CD0012084F8340094F83560FE
:1016D0000020012E06D084F834000225284670BD73
:1016E000022070BD022684F8356060652046FFF751
:1016F0007DFA2068016841F001010160EEE7000019
:1017000070B5044600F0FAF80546601C02D00448A3
:101710000078044400F0F2F8401BA042FAD370BDF8
:10172000B80500202DE9F84FDFF890B100224FF006
:1017300001084FF0030A4FF00F090BF1040E00BF30
:101740000B6808FA02F42340A3426ED14D68022DC3
:1017500001D0122D0ED1D50800EB850CDCF82050FD
:101760005607F70E09FA07F6B5430E69BE402E4339
:10177000CCF82060066855000F790AFA05FC07F0DE
:10178000030726EA0C06AF40374307604E68012E78
:1017900005D0022E03D0112E01D0122E0ED1876853
:1017A000CE6827EA0C07AE403E4386604668A643F3
:1017B0000C79C4F30014944034434460C4688E68C8
:1017C00024EA0C04AE402643C6604C68E4006FD5A2
:1017D0003B4C256845F480452560246822F00305CC
:1017E00004F480440094374C2E19D6F80848950725
:1017F0002F0F09FA07F5AC43334DA84201D100255C
:101800002EE0324DA84201D1012529E0304DA842F9
:1018100001D1022524E02F4DA84201D103251FE06C
:101820002D4DA84202D104251AE041E02B4DA842DB
:1018300001D1052514E02A4DA84201D106250FE06B
:10184000284DA84201D107250AE0274DA84201D121
:10185000082505E0254DA84201D1092500E00A250B
:10186000BD402543C6F80858DBF800405D464E6889
:101870009C43F60300D51C432C60DEF800407546FF
:101880004E689C43B60300D51C432C600B4D0835B5
:101890002C684E689C43F60200D51C432C60074D13
:1018A0000C352C684E689C43B60200D51C432C6056
:1018B000521C102AFFF444AFBDE8F88F003C0140F1
:1018C0004438024000300140000002400004024061
:1018D00000080240000C02400010024000140240C8
:1018E00000180240001C0240002002400024024078
:1018F0000AB1816170470904FBE700000148806874
:1019000070470000B8050020024881680278114441
:1019100081607047B80500200B4810B5016841F49C
:1019200000710160016841F480610160016841F467
:1019300080710160032000F0B9F8002000F006F883
:1019400000F03EF8002010BD003C024010B50146FA
:1019500088B000221D2000F089F81D2000F07AF8E0
:1019600013480024016841F002010160006805A9E4
:1019700000F002000690684600F042F900F066F9B7
:101980000C494000B0FBF1F10C480B4A491E0260C3
:1019900040F2E732C0E90324C0E9011400F0D2FCB0
:1019A00010B1012008B010BD044800F0E7FCF9E7D1
:1019B0004038024040420F0000040040DC08002094
:1019C000234808B5016841F480410160006800F4D3
:1019D000804000901E48001F016841F08051016066
:1019E000006800F080500090032000F05FF80022B3
:1019F00011466FF00B0000F039F8002211466FF02D
:101A00000A0000F033F8002211466FF0090000F0E0
:101A10002DF800221146501F00F028F80022114630
:101A2000101F00F023F800220F21901E00F01EF876
:101A300000220F21501E00F019F80521002208464F
:101A400000F014F8BDE80840052000F003B80000DD
:101A50004438024000F01F020121914040098000FB
:101A600000F1E020C0F8001170470000F0B40E4B08
:101A70001B680C46C3F30223C3F10705042D00D9EC
:101A80000425191D072901D2002300E0DB1E0126D1
:101A900006FA05F1491E214099409E40761E1640E7
:101AA0003143F0BC01F0D2B80CED00E0064900F083
:101AB000070208684FF6FF03184040EA0220034A75
:101AC00010430860704700000CED00E00000FA05CC
:101AD0002DE9F0470E46050065D0DFF81481D8F8EF
:101AE0000000F7B200F00F00B04207D288F8007093
:101AF000D8F8000000F00F00B04254D128683D4CE7
:101B0000810712D5400703D5206840F4E0502060DB
:101B10002878000703D5206840F4604020602068E2
:101B2000A96820F0F000084320602878C0072DD075
:101B3000304968680839012812D0022813D00328D8
:101B400011D00968890700292DDA216821F00301E5
:101B500001432160FFF7D2FE814641F2883A0EE050
:101B600009688903EFE709688901ECE7FFF7C6FE1A
:101B7000A0EB0901514502D90320BDE8F087206898
:101B8000696800F00C00B0EB810FEFD1D8F80010BD
:101B9000404601F00F01B14207D90770006800F01C
:101BA0000F00B04201D00120E7E72878400705D5B3
:101BB0002068E96820F4E050084320602878000796
:101BC00006D52068296920F4604040EAC100206001
:101BD00000F05CF82168084AC1F30311515CC84069
:101BE000064908600020FFF7B1FE0020C5E70000AD
:101BF000003C02400838024039670008C405002054
:101C00000F2202600C4A136803F003034360136859
:101C100003F0F0038360136803F4E053C3601268B9
:101C20004FF4E05303EAD20202610448006800F076
:101C30000F0008607047000008380240003C024076
:101C40000148006870470000C405002004480549A9
:101C500000680968044AC1F38221515CC84070479A
:101C6000C4050020083802404967000804480549B7
:101C700000680968044AC1F34231515CC8407047AA
:101C8000C40500200838024049670008154810B50F
:101C9000006810F00C02144813D01449042A0FD025
:101CA000082A0ED10F4C241F2268236802F03F023D
:101CB0005B0207D52068C0F38810A0FB010106E095
:101CC000084610BD2168C1F38811A1FB0001002363
:101CD000FEF7E6FA2168C1F30141491C4900B0FB57
:101CE000F1F010BD083802400024F400001BB700DA
:101CF0002DE9F84F050076D02878DFF8F8B2BE4C11
:101D0000C00749D0DBF800105846C1F38101012912
:101D100008D00068C0F3810002280AD1201D0068A5
:101D2000400206D52068800336D568680028E2D0D6
:101D300032E06868B0F5803F10D0B0F5A02F206881
:101D400010D020F480302060206820F480202060B3
:101D50006868A0B1FFF7D2FD06460CE0206840F4A9
:101D60008030F4E740F480202060F7E7FFF7C6FDFD
:101D7000801B642873D820688003F7D50CE0FFF738
:101D8000BDFD064605E000BFFFF7B8FD801B6428D7
:101D9000F0D820688003F7D42878DFF860828007C5
:101DA0004FF000093ED5DBF80010584611F00C0F3B
:101DB00009D00068C0F3810002280BD18D48001FB4
:101DC0000068400206D42068800715D5E86801281D
:101DD00009D111E0E868B8B10120C8F80000FFF7A8
:101DE0008DFD064605E002E1FFF788FD801B022815
:101DF000C0D820688007F7D52068296920F0F8004E
:101E000040EAC10020600DE0C8F80090FFF776FDC1
:101E1000064604E0FFF772FD801B02281FD82068E9
:101E20008007F7D42878000722D5724E7448696974
:101E30006C3671B101210160FFF760FD074604E0D7
:101E4000FFF75CFDC01B022809D830688007F7D572
:101E50000EE0C0F80090FFF751FD074605E083E073
:101E6000FFF74CFDC01B02287ED830688007F7D4EE
:101E70002878400768D5DFF87CA100270AF1380AE6
:101E8000DAF80000C0000BD4DAF8001041F08051FD
:101E9000CAF80010DAF80000012700F08050009026
:101EA000584E3068C00510D4306840F480703060FF
:101EB000FFF724FD009005E0FFF720FD0099401A90
:101EC000022851D83068C005F6D54A4EA868683651
:101ED00001280FD00528306810D020F001003060B4
:101EE000306820F004003060A868B8B1FFF706FD44
:101EF00000900FE0306840F00100F4E740F004008B
:101F00003060F7E7FFF7FAFC0099411A41F2883098
:101F1000814264D830688007F4D50EE0FFF7EEFC0C
:101F2000009007E0FFF7EAFC0099411A41F288307F
:101F3000814254D830688007F4D42FB1DAF8001009
:101F400021F08051CAF80010A869C0B3DBF8001076
:101F5000C1F3810102294AD00228484607D0C8F8B7
:101F60006000FFF7CBFC00E039E005463AE0474669
:101F7000C8F86000FFF7C2FC064604E0FFF7BEFCAD
:101F8000801B02282BD820688001F7D4D5E90701EF
:101F90000843A96A1C4A490802EB01416A6A41EAFE
:101FA0008211084395F82C1040EA01611148001F86
:101FB000016001203866FFF7A1FC054605E014E04A
:101FC000FFF79CFC401B022809D820688001F7D548
:101FD0000BE000BFFFF792FC401B022802D9032050
:101FE000BDE8F88F20688001F4D40020F8E70120D4
:101FF000F6E700000838024000380240000047427F
:10200000800E4742007000400000FFFF70B50400E2
:1020100005D00025A56294F8510010B106E001201A
:1020200070BD84F85050204600F030F8022084F84B
:1020300051002068016821F040010160D4E90101EC
:102040000843D4E903121143084361690843218B13
:1020500001F400710843E1690843216A0843A16A59
:10206000084321680860A069042101EA1040616A00
:102070000843216848602068C16921F40061C1619A
:102080006565012084F85100002070BD00B500682E
:102090000E4987B0884217D10D480021026842F4EA
:1020A00080120260006800F4801005904FF46070A8
:1020B00000900220CDE90101032003900520049047
:1020C00069460448FFF72EFB07B000BD00500140F1
:1020D00044380240001402402DE9F84F044690F8BD
:1020E000500000260A9F9A4693460D464FF001087D
:1020F00001280ED0012084F85000FFF7FFFB814635
:1021000094F85100616801280CD0B1F5827F07D1A5
:1021100002E00220BDE8F88FA16809B9042801D0C7
:102120000226BDE055B1BBF1000F07D0BAF1000F98
:1021300004D094F85100012802D004E00126AFE059
:10214000052084F8510000206065C4F838B0A4F878
:102150003EA0A4F83CA02563A4F836A0A4F834A0BF
:102160002064606420680168490603D4016841F076
:1021700040010160E068B0F5006F606804D0E8B32A
:10218000E08E01283BD06AE010B1E08E01282ED10C
:10219000216835F8020BC860E08E401EE08626E01C
:1021A000B8F1000F0DD0E08E58B120688168890722
:1021B00007D535F8021BC160E08E401EE0864FF067
:1021C0000008E08F58B120688168C90707D0C0684F
:1021D0002BF8020BE08F401EE0874FF00108781CBF
:1021E00005D0FFF78BFBA0EB0900B84246D2E08E8A
:1021F0000028D5D1E08F0028D2D136E0FFE7216852
:1022000015F8010B0873E08E401EE08627E000BF42
:10221000B8F1000F0DD0E08E58B1206881688907B1
:1022200007D515F8011B0173E08E401EE0864FF0C4
:102230000008E08F58B120688168C90707D0C068DE
:102240000BF8010BE08F401EE0874FF00108781C6F
:1022500005D0FFF753FBA0EB0900B8420ED2E08E89
:102260000028D5D1E08F0028D2D13B46012202219F
:102270002046CDF8009000F0B2FD08B103260FE033
:102280004A463946204600F09AFD18B10126202022
:10229000606505E0A06818B92068C1688068009092
:1022A000012084F85100002084F85000304631E7C6
:1022B0004FF0E0210428086903D020F004000861F1
:1022C000704740F00400FAE710B5401EB0F1807F7F
:1022D00001D3012010BD4FF0E02460610F21601791
:1022E00000F0B4FC0020A06107202061002010BD98
:1022F0007047704730B590F83820012A20D001226D
:1023000080F83820022380F8393003685C6824F0B4
:1023100070045C6003685C680D682C435C60036853
:102320009C6824F080049C6003689C6849680C43A6
:102330009C6080F83920002180F83810084630BDB4
:10234000022030BD10B5040003D094F8390010B15C
:1023500007E0012010BD002084F83800204600F07E
:102360000CF8022084F83900211D206800F008FED6
:10237000012084F83900002010BD70470168CA6848
:1023800042F00102CA600068016841F00101016089
:1023900000207047704770B50446006801694FF02F
:1023A0000005C943890715D4C168C943890711D4F9
:1023B000E91E01610120207620688069800720469F
:1023C00002D0FFF7E7FF04E000F0C8F8204600F075
:1023D0005DF9257620680169C943490717D4C168AA
:1023E000C943490713D46FF004010161022020762C
:1023F0002068806910F4407F204602D0FFF7CAFFB2
:1024000004E000F0ABF8204600F040F925762068A3
:102410000169C943090716D4C168C943090712D421
:102420006FF008010161042020762068C0698007F0
:10243000204602D0FFF7AEFF04E000F08FF8204600
:1024400000F024F9257620680169C943C90617D42C
:10245000C168C943C90613D46FF010010161082097
:1024600020762068C06910F4407F204602D0FFF734
:1024700091FF04E000F072F8204600F007F925769D
:1024800020680169C943C90708D1C168C943C907A0
:1024900004D1891E0161204600F016F92068016907
:1024A000C943090609D4C168C943090605D46FF0B8
:1024B000800101612046FFF71BFF20680169C943C5
:1024C000490609D4C168C943490605D46FF04001E3
:1024D0000161204600F002F920680169C9438906BC
:1024E0000BD4C168C943890607D46FF0200101618C
:1024F0002046BDE87040FFF7FCBE70BD00B5124B32
:1025000002680020022185B09A420BD1202200925D
:10251000CDE90110CDE9030169460C48FFF702F946
:1025200005B000BD0A4B9A42FAD1D2130092CDE910
:102530000110CDE9030169460648FFF7F3F80C21C5
:10254000054800F0A5F8EBE7000400400004024055
:1025500000080040000C024070090020704770B570
:10256000044690F838000D4601280DD0012684F865
:102570003860022084F8390042B1042A18D0082AB1
:102580002AD00C2A4DD139E0022070BD206800F01D
:1025900063FD2068816941F00801816120688169DB
:1025A00021F004018161206881692A69114311E0E9
:1025B000206800F07DFD2068816941F4006181613F
:1025C0002068816921F480618161206881692A69BC
:1025D00041EA0221816124E0206800F09BFD20682F
:1025E000C16941F00801C1612068C16921F004019D
:1025F000C1612068C1692A69114311E0206800F0B7
:10260000B9FD2068C16941F40061C1612068C169F8
:1026100021F48061C1612068C1692A6941EA02210F
:10262000C16184F83960002084F8380070BD10B5AD
:10263000040003D094F8390010B107E0012010BD68
:10264000002084F83800204600F00CF8022084F8BE
:102650003900211D206800F093FC012084F8390026
:10266000002010BD08B500680649884208D1064818
:10267000016841F004010160006800F0040000906E
:1026800008BD0000000800404038024070470000CC
:1026900010B504460068012200F0D2FC0849206809
:1026A000884202D00749884203D1416C41F400417D
:1026B00041642068016841F001010160002010BD03
:1026C000000001400004014000680349884201D134
:1026D000FFF71AB9704700000004004070477047C8
:1026E00070B5026804461068D168536910F00F0F86
:1026F00050D003F0010501F4907635435DD0C20758
:1027000005D0CA0503D5E26B42F00102E26342073D
:1027100005D5DA0703D0E26B42F00202E2638207DA
:1027200005D5DA0703D0E26B42F00402E263020748
:1027300005D5DA0703D0E26B42F00802E263E26BF0
:10274000002A33D0800604D5880602D5204600F042
:102750004FFD20684069E16BC0F38010090700D489
:1027600028B3204600F036FD2068416949061AD595
:10277000416921F040014161606BA0B11B490165D5
:10278000606BFEF74CFE002810D0606B016DBDE859
:1027900070400847830610D58B060ED52046BDE84D
:1027A000704000F025BD2046FFF799FF70BD204620
:1027B000FFF795FF0020E06370BD030606D50B060A
:1027C00004D52046BDE8704000F0AEBE4006F3D50B
:1027D0004806F1D5D168204621F04001D160202182
:1027E00084F8391000F0ADF870BD0000C531000864
:1027F00070B5040004D094F83900002510B106E04B
:10280000012070BD84F83850204600F023F82420C1
:1028100084F839002068C16821F40051C160204665
:1028200000F02CFD2068016921F4904101612068CD
:10283000416921F02A0141612068C16841F40051D9
:10284000C160E563202084F8390084F83A00002054
:1028500070BD0000F0B506462E4F046800252E49D5
:1028600002200122032387B0BC4232D10C6844F01D
:1028700010040C60096801AC01F010010591C02141
:10288000009184E80D000720049069462348FEF774
:1028900049FF244C224820604FF00060C4E9010544
:1028A0004014C4E903506561A561E56125622046D5
:1028B0006562FEF797FE18B18C211BA000F079FE2F
:1028C0007463002205212520A663FFF7CFF8252099
:1028D0001CE0194DAC421BD10C6844F020040C6084
:1028E000096801AC01F0200105914FF48441009189
:1028F00084E80D000820049069461048FEF712FF96
:10290000002205214720FFF7B1F84720FFF7A2F882
:1029100007B0F0BD001001404438024000040240FE
:10292000406402407C0800202E2E2F5372632F75C6
:10293000736172742E63000000140140001802409D
:1029400070477047FEE70000104810B50E4901605F
:102950001021416000214FF400228160C0E9031280
:10296000920042610176417681760122C27601773A
:102970004277FEF759FC002805D0BDE810404F21F2
:1029800003A000F016BE10BD00640040D407002074
:102990002E2E2F5372632F63616E2E630000000092
:1029A000094808B5016841F480010160006800220F
:1029B00000F48000009005213A20FFF757F8BDE8A9
:1029C00008403A20FFF746B83038024000B585B0DD
:1029D00014220A496846FDF794FC0021684602F07B
:1029E00095FE0749086001F0C9FD01F0EFFD01F017
:1029F000D9FD01F0FFFD05B000BD00001C67000817
:102A0000000000202DE9F0412F4886B00024016825
:102A100041F040010160016801F040010591016849
:102A200041F001010160016801F0010105910168B7
:102A300041F002010160016801F0020105910168A5
:102A400041F008010160016801F008010591016889
:102A500041F080010160016801F080010591016889
:102A600041F010010160016801F010010591016859
:102A700041F0200101600068144F00F020004FF485
:102A800000650590002229463846FEF731FFDFF841
:102A90004080EE00002231464046FEF729FF0095B7
:102AA0000125CDE90154694638460394FEF73AFE04
:102AB0000096CDE90154694640460394FEF732FE84
:102AC00006B0BDE8F081000030380240001002403E
:102AD00000140240114810B50F4901604FF4827193
:102AE000416000218160C1604FF400720161C0E962
:102AF00005123022C0E90721416281620A21C162C8
:102B0000FFF784FA002805D0BDE81040452104A055
:102B100000F04FBD10BD000000500140180900201A
:102B20007370692E6300000010B51A488AB0184906
:102B3000016053210024C0E9011440F6C411C0E92A
:102B40000314FFF774FD18B10F2113A000F031FD3D
:102B5000079407A90F480894FFF7CCFB18B116217A
:102B60000DA000F026FD6020CDE9000402940C22A7
:102B7000694608480494FFF7F2FC18B11F2106A02B
:102B800000F017FD0348FFF7B9FC0AB010BD0000C4
:102B900000080040700900202E2E5C5372635C67B1
:102BA000756E2E63000000000E4810B50C490160E0
:102BB0000D49416000214FF480628160C0E9031239
:102BC0000C22C0E90521C161FFF712FE002805D0E3
:102BD000BDE810404F2105A000F0EBBC10BD000087
:102BE00000100140FC070020A08601002E2E2F536C
:102BF00072632F75736172742E6300000D4810B5F7
:102C00000B4901604FF4E1314160002181600C22E9
:102C1000C160C0E904128161C161FFF7E9FD0028CC
:102C200005D0BDE81040622103A000F0C2BC10BD79
:102C3000001401403C0800202E2E2F5372632F7584
:102C4000736172742E630000FEE770470907090E76
:102C5000002806DA00F00F0000F1E02080F8141DD3
:102C6000704700F1E02080F800147047D0ED021AA0
:102C7000C0ED031A90EC020A30EE600A80ED020A01
:102C8000D0ED060A20EE801A80ED091AD0ED0A0A6E
:102C900090ED072A42EE000A30EE610AC0ED0A0A02
:102CA000D0ED081A71EE200A20EE210A80ED0B0A01
:102CB00030EE800A80ED040AD0ED0C0AB0EEC01AA6
:102CC000B4EEE01AF1EE10FA06DDB5EEC00AF1EE50
:102CD00010FA02DDC0ED040A7047B1EE600A80ED23
:102CE000040A704790ED021A80ED031A90EC020A74
:102CF00030EE600A80ED020AD0ED060A60EE801A1E
:102D0000C0ED091AD0ED0A0A90ED072A42EE000A3A
:102D100030EE410AC0ED0A0A90ED081A71EEA00AE1
:102D200020EE010A80ED0B0A30EE800A80ED040AE5
:102D3000D0ED0C0AB0EEC01AB4EEE01AF1EE10FAC3
:102D40000BDDB5EEC00AF1EE10FA02DDC0ED040AAB
:102D500003E0B1EE600A80ED040A90ED040AD0EDC4
:102D6000050A0D4A9FED0D1A30EE600A10EE101A9A
:102D7000914202DD30EE810A09E010EE101A084A95
:102D8000914202D890ED040A03E030EEC10A80EDD2
:102D9000040A80ED050A70470000484400004844DA
:102DA000000048C49FED040A80ED000A80ED010A8E
:102DB00080ED040A7047000000000000704738B53D
:102DC0000B46009204460022802100F008F80028FB
:102DD00004D0606D40F020006065032038BD2DE90F
:102DE000F0411D4617460E460446DDF8188035E0D2
:102DF000681C33D02DB1FEF781FDA0EB0800A8427E
:102E00002CD32068416821F0E00141606068B0F592
:102E1000827F0BD1A068B0F5004F02D0B0F5806F73
:102E200004D12068016821F040010160A06AB0F57A
:102E3000005F0AD1206801684DF6FF721140016001
:102E40002068016841F400510160012084F85100BC
:102E5000002084F850000320BDE8F08120688068DD
:102E600036EA000004D00020B842C1D10020F3E7C8
:102E70000120F9E7012002F025FCFBE702F03CBC51
:102E800030B5254893B00025016841F080510160BC
:102E9000006800F0805011902048016841F44041E2
:102EA00001600068022400F440401190012000906D
:102EB000000401908001CDE9064006200890A8207A
:102EC000CDE9090404200B906846FEF711FF00B11C
:102ED000FEE70CA90F2081E831004FF4A0500F90BD
:102EE0004FF48050109005210CA8FEF7F1FD00B1C1
:102EF000FEE7FEF7A5FE4FF47A71B0FBF1F0FFF7A5
:102F0000E3F90420FFF7D4F900220F21501EFEF749
:102F1000ADFD13B030BD00004038024000700040ED
:102F20001048016841F4700101600F48016841F0E8
:102F3000010101600C4A00210832116002680B4B4C
:102F40001A400260031D0A4A1A60026822F48022B5
:102F5000026005480C30016002495806803908605B
:102F60007047000088ED00E000380240FFFFF6FEE9
:102F7000103000240148FFF70EBA0000DC080020E2
:102F8000F0B50268234B244D244E254F254C4FF0BD
:102F9000804C984209D0604507D0A84205D0B04285
:102FA00003D0B84201D0A04204D122F0700E4A688A
:102FB00042EA0E0298421BD0604519D0A84217D0B1
:102FC000B04215D0B84213D0A04211D0164DA8423D
:102FD0000ED0164DA8420BD0154DA84208D0154D65
:102FE000A84205D0144DA84202D0144DA84203D1E6
:102FF00022F44075CA682A4302608A68C2620A687D
:103000008262984201D0A04201D109690163012185
:103010004161F0BD00000140000400400008004094
:10302000000C004000040140004001400044014009
:103030000048014000180040001C004000200040F3
:1030400010B50123046A8B409C430462036A8A40E2
:103050001343036210BD000030B5026A22F0010282
:103060000262026A436884690D6824F07304254390
:1030700022F002048A6822430B4CA04202D00B4C7F
:10308000A0420BD122F00804CA6823F44073224303
:103090004C6922F004021C438B6923434360856121
:1030A00049684163026230BD0000014000040140F4
:1030B00030B5026A22F010020262026A4368846933
:1030C0000D6824F4E64444EA05248D6822F02002C9
:1030D00042EA05120D4DA84202D00D4DA8420ED174
:1030E000CD6822F0800242EA05124D6923F4406364
:1030F00043EA85038D6922F0400243EA8503436079
:10310000846149688163026230BD000000000140B3
:103110000004014030B5026A22F480720262036A40
:103120004268C46923F4007324F073050C682C43CF
:103130008D6843EA05230D4DA84202D00C4DA842EC
:103140000ED1CD6823F4006343EA05234D6922F4D0
:10315000405242EA05128D6923F4806342EA051267
:103160004260C4614968C163036230BD0000014030
:103170000004014030B5026A22F480520262046AFF
:103180004268C3690D6823F4E64343EA05238D686A
:1031900024F4005444EA0534084DA84202D0084DF6
:1031A000A84204D14D6922F4804242EA851242606D
:1031B000C36149680164046230BD00000000014041
:1031C0000004014010B5806B0021C185C184FFF768
:1031D00086FA10BD0168CA6822F49072CA6001685C
:1031E0004A6922F001024A61202180F83A107047B2
:1031F00010B590F83A10222901D0022010BD816844
:10320000B1F5805F11D00169002901681FD04968BC
:1032100001F07F03816A4A1C82620B70C18D491ED6
:103220000904090CC18518D026E00269816A002AC8
:103230000268526805D0D2B20A80816A491C816254
:10324000ECE7C2F308020A80816A891CF7E74A6842
:10325000816A4B1C83620A70E0E70168CA6822F445
:103260009072CA6001684A6922F001024A61202115
:1032700080F83A10FFF764FB002010BD2DE9F04103
:1032800004460068016921F44052E168114301617C
:103290002168C86849F20C6290432369A268E56915
:1032A0001A4363692B431A430243CA602168486981
:1032B00020F44072A06910434861E1696425B1F5CA
:1032C000004F9748974A21684FF032083FD091420B
:1032D00001D081427CD1FEF7C9FC00EBC00101EBBB
:1032E000001061688900B0FBF1F6FEF7BFFC00EB4F
:1032F000C00101EB001061688900B0FBF1F0B0FB88
:10330000F5F06FF01801484306EB800108EB01105F
:10331000B0FBF5F000F0F006FEF7A8FC00EBC001F2
:1033200001EB001061688900B0FBF1F0B0FBF5F033
:1033300006EB0016FEF79AFC00EBC00101EB001053
:1033400061688900B0FBF1F7FEF790FCD2E0914292
:1033500001D081423DD1FEF789FC00EBC00101EBB9
:10336000001061684900B0FBF1F0B0FBF5F0060118
:10337000FEF77CFC00EBC00101EB00106168490026
:10338000B0FBF1F7FEF772FC00EBC00101EB00109F
:1033900061684900B0FBF1F0B0FBF5F06FF0180187
:1033A000484307EB800108EBC100B0FBF5F000F0EB
:1033B000F80006EB4006FEF759FC00EBC00101EBFC
:1033C000001061684900B0FBF1F7FEF74FFC3CE0EC
:1033D00055E0FEF73BFC00EBC00101EB001061681B
:1033E0004900B0FBF1F0B0FBF5F00601FEF72EFC52
:1033F00000EBC00101EB001061684900B0FBF1F780
:10340000FEF724FC00EBC00101EB001061684900ED
:10341000B0FBF1F0B0FBF5F06FF01801484307EB9B
:10342000800108EBC100B0FBF5F000F0F80006EBFE
:103430004006FEF70BFC00EBC00101EB00106168D9
:103440004900B0FBF1F7FEF701FC00EBC00101EB16
:10345000001061684900B0FBF1F0B0FBF5F06FF0CF
:103460001801484307EB800108EBC100B0FBF5F001
:1034700000F00700216830448860BDE8F081FEF765
:10348000E5FB00EBC00101EB001061688900B0FBB7
:10349000F1F6FEF7DBFB00EBC00101EB0010616809
:1034A0008900B0FBF1F0B0FBF5F06FF01801484374
:1034B00006EB800108EB0110B0FBF5F000F0F00620
:1034C000FEF7C4FB00EBC00101EB0010616889004E
:1034D000B0FBF1F0B0FBF5F006EB0016FEF7B6FB23
:1034E00000EBC00101EB001061688900B0FBF1F74F
:1034F000FEF7ACFB00EBC00101EB00106168890036
:10350000B0FBF1F0B0FBF5F06FF01801484307EBAA
:10351000800108EB0110B0FBF5F000F00F00A9E707
:10352000001401400010014090F83910212901D009
:10353000022070478168B1F5805F016A0BD04A1C98
:103540000262026809785160C18C491E0904090CA5
:10355000C1840ED017E009880268C1F308015160E8
:1035600001690029016A02D0491C0162ECE7891C4B
:10357000FBE70168CA6822F08002CA600068C1687F
:1035800041F04001C16000207047000010B50448C0
:1035900002F07AFDBDE810400148FFF7A1B8000035
:1035A000FC0700200148FFF79BB800003C08002002
:1035B000FEE7FEE703B401984100009850EAC120FD
:1035C00018BF04204A0D18BF40F0010040F2FF72FE
:1035D000B2EB515F08BF40F00200012808BF052090
:1035E00002B070470000000070B5C1482DED020B1D
:1035F0002DED0E8B82B0119D25F000449FEDBEDBBA
:103600009FEDBFEB84423EDBA4F140511098A1F145
:103610007F6108430FD0BC48844202DC28D1109857
:1036200030B39DED100B02B0BDEC0E8B02B0BDE8C7
:10363000704000F0B0BC9DED100B53EC1D2B51EC15
:10364000100BFCF729FF9DED100B41EC180B53EC10
:103650001E2B51EC100BFCF71FFF53EC182BFCF743
:1036600074FE41EC100B02B0BDEC0E8B02B070BDCD
:10367000012000F0D5FC02B0BDEC0E8B02B0BDE81D
:10368000704000F09DBCA1489FEDA18B844256DAAA
:103690009DED100BB4F1795F0ADA51EC100BFFF7D6
:1036A00089FF042808BF00F09BFC9DED100BDAE7B2
:1036B00053EC102B51EC100BFCF7EEFE41EC190B08
:1036C00095480621B0EE490AF0EE690A784400F008
:1036D000E6FB53EC192B51EC100BFCF7DDFE41EC33
:1036E0001A0B8E48B0EE490AF0EE690A04217844BC
:1036F00000F0D5FB53EC192B51EC100BFCF7CCFE72
:1037000053EC182BFCF721FE41EC100B51EC1A0B7B
:1037100053EC102BFDF787F8CDE900019DED000B70
:1037200053EC102B9DED100B51EC100BFCF7B4FE7D
:103730009DED101B53EC112BFCF707FED2E09DED25
:10374000100B51EC100B00F08DFF53EC182BFCF715
:10375000A0FE9FED730BCDE9000153EC102B9DED06
:10376000000B51EC100BFCF797FE41EC190B6E4867
:103770000621B0EE490AF0EE690A784400F08FFBAA
:1037800053EC192B51EC100BFCF786FE41EC1B0B94
:103790006648B0EE490AF0EE690A0421784400F068
:1037A0007EFB53EC192B51EC100BFCF775FE53EC20
:1037B000182BFCF7CAFD41EC1C0B51EC190B02F065
:1037C000D1FB41EC180B5A489FED5BABA04222DCC9
:1037D00053EC1C2B51EC1B0BFDF725F8CDE9000138
:1037E0009DED000B51EC180B53EC102BFCF754FE25
:1037F00053EC182BFCF7A9FD53EC1A2BFCF74CFEED
:1038000053EC1D2BFCF742FE53EC1E2BFCF741FE44
:1038100041EC100B5FE08DED008B002000909DEDE2
:10382000000B51EC180B53EC102BFCF78EFD9DEDAB
:10383000000B41EC1E0B53EC102B51EC100BFCF762
:103840002BFE53EC192BFCF724FE53EC1E2BFCF73C
:10385000EAFF41EC190B53EC1C2B51EC1B0BFCF752
:10386000E2FF41EC1B0B53EC1A2B51EC190BFCF74C
:1038700013FE53EC1D2BFCF70CFE41EC190B53EC23
:103880001A2B51EC180BFCF707FE53EC1B2BFCF723
:1038900003FE53EC192BFCF7F9FD9DED000B41ECF9
:1038A000180B53EC1A2B51EC100BFCF7F5FD9FEDA8
:1038B000249B53EC192BFCF7ECFD41EC100B51EC65
:1038C000180B53EC102BFCF7E1FD53EC192BFCF714
:1038D000E0FD41EC100B002D3FF7C5AE51EC100B95
:1038E00081F0004141EC100BBDE60000000000003B
:1038F0000000F03F00000000075C143326A6913C56
:10390000182D4454FB21F93F0000F07F0000E03FF8
:10391000000000000000F03FE8300000F63000003A
:10392000000000000000E03F3A3000004830000096
:103930003333EF3F000000000000000000000040B3
:10394000182D4454FB21E93F70B59B482DED020B27
:103950002DED068B079D25F00044A04218DC97480A
:10396000844202DC0AD1069840B19DED060BBDEC05
:10397000068B02B0BDE8704000F00DBB002DCCBF3F
:103980009FED8F0B9FED900BBDEC068B02B070BDD1
:103990008F48A04215DD8F48A042D8BF4FF0FF34BA
:1039A00058DD9DED060B51EC100BFFF703FE0428CC
:1039B00008BF00F015FB9DED060BBDEC068B02B0B9
:1039C00070BD9DED060B51EC100B00F04BFECDE9E8
:1039D000060181489FED828BA0423CDD8248A042D7
:1039E0001FDD00249FED82AB9DED060B53EC1A2BDF
:1039F00051EC100BFCF7A9FC9DED060B41EC190BEB
:103A000053EC1A2B51EC100BFCF746FD53EC182B22
:103A1000FCF73CFD53EC192BFCF705FFCDE9060143
:103A200049E09DED060B012453EC182B51EC100BD3
:103A3000FCF78BFC9DED060B41EC190B53EC182B9E
:103A400051EC100BFCF722FD53EC192BFCF7EBFEAD
:103A5000CDE906012FE06848A0421FDD02249FED5A
:103A6000689B9DED060B53EC192B51EC100BFCF7EA
:103A700013FD53EC182BFCF768FC9DED060B41EC95
:103A8000180B53EC192B51EC100BFCF7FFFC53EC0B
:103A9000182BFCF7C8FECDE906010CE09DED060BE6
:103AA000032453EC102B9FED580B51EC100BFCF73B
:103AB000BAFECDE906019DED060B53EC102B51EC3F
:103AC000100BFCF7E9FC41EC180B53EC182BFCF73E
:103AD000E3FC41EC190B4E480621B0EE490AF0EE2A
:103AE000690A784400F0DBF953EC182B51EC100B09
:103AF000FCF7D2FC41EC180B4648B0EE490AF0EE58
:103B0000690A0521784400F0CAF953EC192B51ECED
:103B1000100BFCF7C1FC41EC100B51EC180B53ECF3
:103B2000102B002C0EDAFCF710FC9DED061B53EC5D
:103B3000112BFCF7B1FC9DED061B53EC112BFCF790
:103B4000A8FC35E0FCF701FC9DED061B53EC112BA6
:103B5000FCF7A2FC41EC100B2F48784400EBC400AA
:103B600090ED001B51EC100B53EC112BFCF78EFC6D
:103B70009DED061B53EC112BFCF788FC41EC100B60
:103B80002648784400EBC40090ED001B51EC100B6C
:103B900053EC112BFCF77DFC41EC100B002DA2BF68
:103BA000BDEC068B02B070BD51EC100B81F00041F2
:103BB00041EC100B01E70000000010440000F07F12
:103BC000182D4454FB21F93F182D4454FB21F9BF13
:103BD0000000DC3F0000203E0000F33F000000003A
:103BE000000000000000F03F0000E63F0000000081
:103BF00000000000000000400080034000000000C2
:103C0000000000000000F83F000000000000F0BFCE
:103C10008A2D0000402D0000CA2C0000822C0000DC
:103C200070B56B4E2DED040B2DED028B82B0DDF8DF
:103C30001CC0DDE905235C422CF000411C4341EA35
:103C4000D474049D22F00040B44205D86C422C4349
:103C500040EAD474B4420BD99DED061B9DED040BD4
:103C600002B0BDEC028B04B0BDE8704000F09DB91D
:103C7000ACF14054A4F17F641C430BD0022404EA4D
:103C8000AC7444EAD27405439FED538B9FED542BE3
:103C900007D015E09DED040B51EC100B00F090FAED
:103CA00042E0002C11BF012C9DED040B02B0BDECD5
:103CB000028B04BF04B070BD022C38D0032C3BD063
:103CC0000B439FED491B9FED4A0B0AD0B14218D11F
:103CD000B04209D121F0804120F080400791059049
:103CE0000FE0002A15DA10E0434B7B44002C08BF9C
:103CF00093ED000B0DD0012C10D0022C17D0032C0B
:103D00001AD0B0421DD1002A03DAB0EE410AF0EE1B
:103D1000610A02B0BDEC028B04B070BD93ED000BE4
:103D200051EC100B81F0004141EC100BF1E7B0EECB
:103D3000480AF0EE680AECE7B0EE420AF0EE620ADA
:103D4000E7E7401A00153C28C8BF8DED000B19DCD1
:103D5000BCF1000FBEBF10F13C0F9FED290B8DEDA4
:103D6000000B0FDB9DED060B53EC102B9DED040BB0
:103D700051EC100BFCF757FD00F074FC00F020FA3A
:103D8000CDE90001002C08BF9DED000BC1D0012C36
:103D900010D0022C9FED1C0B53EC102B9DED000B53
:103DA00051EC100B0DD0FCF771FB53EC182BFCF70A
:103DB0006DFBB9E7019880F0004001909DED000B8C
:103DC000A7E7FCF763FB53EC182BFCF762FBABE7B0
:103DD0000000F07F00000000182D4454FB21094032
:103DE000182D4454FB2109C0182D4454FB21F9BF60
:103DF000182D4454FB21F93FB22B000000000000B5
:103E00000000000000000000075C143326A6A13C5F
:103E10002DED020B019820F0004001909DED000B6C
:103E200002B0704700B52DED048BB0EE409AF0EE75
:103E3000609A83B051EC190BFCF764FD41EC180B50
:103E400018EE100A18EE901A8DED008B002818BF9E
:103E50000120084320F00040C0F17F6000F1E04005
:103E6000C00F14D019EE101A19EE900A8DED009BB8
:103E7000002918BF0121084320F00040C0F17F60F5
:103E800000F1E040C00F04BF012000F0C9F8B0EE1F
:103E9000480A03B0F0EE680ABDEC048B00BD70B5B3
:103EA00004462DED028B4D1E00EBC500B0EE408A9E
:103EB000F0EE608A90ED000B35F0060017D053EC61
:103EC000182B51EC100BFCF7E7FA41EC100B6D1EB0
:103ED00004EBC50090ED001B51EC100B53EC112BC3
:103EE000FCF733FA41EC100B35F00600E7D1022D58
:103EF00036D0042D1CD0062D1CBFBDEC028B70BD2E
:103F000053EC182B51EC100BFCF7C6FA94ED0A1B7E
:103F100053EC112BFCF719FA53EC182BFCF7BCFAF5
:103F200094ED081B53EC112BFCF70FFA41EC100B2E
:103F300053EC182B51EC100BFCF7AEFA94ED061B6A
:103F400053EC112BFCF701FA53EC182BFCF7A4FAF5
:103F500094ED040B53EC102BFCF7F7F941EC100B2C
:103F600053EC182B51EC100BFCF796FA94ED021B56
:103F700053EC112BFCF7E9F953EC182BFCF78CFAF6
:103F800094ED001B53EC112BFCF7DFF9BDEC028B19
:103F900041EC100B70BD10B553EC102B51EC100B15
:103FA000FCF7D3F941EC100B10BD10B553EC112BFD
:103FB00051EC100BFCF7C9F941EC100B10BD0000DF
:103FC0009FED050B10B553EC102B51EC100BFCF7CB
:103FD0002AFC41EC100B10BD0000000000000000A6
:103FE0009FED050B10B553EC102B51EC100BFCF7AB
:103FF00053FA41EC100B10BD00000000000000104F
:1040000002E008C8121F08C1002AFAD170477047A1
:10401000002001E001C1121F002AFBD170470000FF
:104020000149086070470000D00700202DE9FC47D7
:104030000646087892460C4608B9607838B106F111
:10404000140000F0F9F80746207830B108E002B01B
:104050003046BDE8F04701F0BCBF607801280FD0C2
:104060006946304600F00AFBBDF90200BDF90010B8
:104070004FF4B47501F1B402002A15DD002217E0F7
:104080006946304600F0FAFA01A9304600F016FB06
:10409000BDF9020008B9BDF90600BDF900100029FC
:1040A000E6D1BDF90410E3E792FBF5F2C2F101029B
:1040B000C2EB021202EB420201EBC201B43191FBEE
:1040C000F5F205FB1211B4390FFA81F9192801DD57
:1040D000192004E06FF01801884200DA0846804693
:1040E00052462146304601F074FFCDE9007A96F839
:1040F0002C0043464A46214600F01EF8A268B2F959
:10410000000000F1B401002901DD002103E091FB72
:10411000F5F1C1F10101C1EB011101EB4101B42342
:1041200003EBC101084490FBF5F105FB1100B43825
:104130001080BDE8FC87000070B58E78DDE904547E
:1041400016B1012E1DD033E0C87810B101280CD073
:104150002EE088682A44068832440280CA6804EB4C
:104160008400C0EB0440908022E0C868644204EB05
:104170008404858088682244B0F9005005FA82F2F0
:1041800015E0CD78A5B908B15A200BE000EE104A31
:10419000DFED0A0AB8EEC00A20EE200ABDEEC00A22
:1041A00010EE100ACC68A08088680488224402803F
:1041B000886841881944418070BD0000333333BFA3
:1041C00010B541EC100BFFF7BFFB51EC100B10BD0D
:1041D00008B501F085FA009000210948FCF797FE28
:1041E00048B1084B084A00210548FCF7A2FE0549E2
:1041F0000548FCF777FC0521684601F06AFAEBE711
:10420000D4070020B40700209C4800200CB50021F2
:1042100000910191C2681160BDF8043093808268FA
:104220001160044A436812781A70017041708170FD
:10423000C1700CBD30670008007CC0F3400100F085
:104240000100081A962110FB01F070472DE9F0419A
:1042500004462DED088B82B08846012001F032FA29
:10426000B4F90400FCF78AF99FED8D8B53EC182B01
:10427000FCF712F941EC190BB4F90200FCF77EF9D6
:1042800053EC182BFCF708F941EC1A0BB4F90000B9
:104290004042FCF773F953EC182BFCF7FDF853EC94
:1042A0001A2BFCF752F853EC192BFCF74EF89FED44
:1042B0007E9B53EC192BFCF7EFF8FCF7D3F97C4D00
:1042C0002860B4F90400FCF759F953EC182BFCF7FB
:1042D000E3F841EC1A0BB4F90200FCF74FF953EC88
:1042E000182BFCF7D9F841EC1B0BB4F90000FCF7D4
:1042F00045F953EC182BFCF7CFF853EC1B2BFCF7CC
:1043000024F853EC1A2BFCF720F853EC192BFCF78C
:10431000C3F8FCF7A7F905F148063060B4F90400CA
:10432000FCF72CF953EC182BFCF7B6F841EC1A0B00
:10433000B4F90200FCF722F953EC182BFCF7ACF8A7
:1043400041EC1B0BB4F90000FCF718F953EC182BE7
:10435000FCF7A2F853EC1B2BFCF798F853EC1A2B44
:10436000FBF7F3FF53EC192BFCF796F8FCF77AF9FF
:1043700005F190073860B4F90400FCF7FFF853EC3E
:10438000182BFCF789F841EC1A0BB4F90200FCF782
:10439000F5F853EC182BFCF77FF841EC1B0BB4F944
:1043A00000004042FCF7EAF853EC182BFCF774F8D5
:1043B00053EC1B2BFCF76AF853EC1A2BFBF7C5FFE9
:1043C00053EC192BFCF768F8FCF74CF905F1D8040D
:1043D00020603848C06B00EE100A3648B8EEC00ABC
:1043E0004C3085ED010AC06B00EE100A3148B8EE82
:1043F000C00A983086ED010AC06B00EE100A2D4805
:10440000B8EEC00AE43087ED010AC06B00EE100A76
:104410002846B8EEC00A84ED010AFEF727FC3046B4
:10442000FEF724FC3846FEF721FC2046FEF71EFC72
:1044300094ED040ABDEEC00A10EE100A00B200901E
:1044400097ED040ABDEEC00A10EE100A96ED040ABC
:1044500003B2BDEEC00A10EE100A95ED040A02B2D6
:10446000BDEEC00A10EE100A01B2134801F03EFC86
:1044700098F8380003280DD198F83A00032809D19C
:104480009FED0E0A85ED000A86ED000A87ED000A11
:1044900084ED000A02B0BDEC088BBDE8F08100009D
:1044A000333333333333B33F000000000000324076
:1044B0008C0600206C470020D4070020000000007C
:1044C00070B50C46054600F077FE2A680146104696
:1044D00062F3410028602068024660F3410208B29E
:1044E000226070BD10B5B0F90220002A00DA5242F5
:1044F00013B2B0F90420002A01DA544200E0144655
:1045000024B2DFED130A9FED131A0A2C08DD12FB0B
:1045100004F200EE102AB8EEC00A20EE200A01E0F4
:10452000B0EE410A0A2BBDEEC00A10EE102A0A8036
:1045300008DD408810FB03F000EE100AB8EEC00A58
:1045400020EE201ABDEEC10A10EE100A488010BD00
:104550000742323A0000000008B501F0C1F8054CEE
:1045600000900549E068FFF771FE0521684601F0FB
:10457000B0F8F6E7F4480020B848002000B585B050
:10458000142206496846FBF7BCFE0021684601F08C
:10459000BDF80349486005B000BD00007C67000815
:1045A000AC07002000B585B0142206496846FBF729
:1045B000A8FE0021684601F0A9F80349086005B08B
:1045C00000BD000090670008BC07002000B585B062
:1045D000142206496846FBF794FE0021684601F064
:1045E00095F80349086005B000BD00006867000841
:1045F0008806002000B585B0142206496846FBF7FE
:1046000080FE0021684601F081F80349486005B04A
:1046100000BD0000A4670008C807002038B50F4897
:1046200000210068026842680092C26842F01002ED
:10463000C2600A4C0A4A94F83A0020280DD132236D
:10464000A262A385E1632168606B091DFDF734F860
:104650002068416941F04001416138BDFC070020FC
:10466000F446002082B0CDE9000121F00040019025
:104670009DED000B02B051EC100B7047B0F90A2011
:10468000DFED0D0A00EE102AB8EEC00A20EE200A77
:10469000BDEEC00A10EE102A4A80B0F90C0000EE00
:1046A000100AB8EEC00A20EE200ABDEEC00A10EED5
:1046B000100A088070470000CDCCCC3CB0F908202F
:1046C000DFED0D0A00EE102AB8EEC00A20EE200A37
:1046D000BDEEC00A10EE102A0A80B0F9060000EE06
:1046E000100AB8EEC00A20EE200ABDEEC00A10EE95
:1046F000100A488070470000FAEDEB3910B5082128
:104700000A48FDF7C5FF0C210848FDF7C1FF4FF42B
:104710007A74204601F0E8FC204601F0E5FCBDE893
:1047200010404FF49670FCF7EBBF000070090020BA
:1047300010B5FF4CFF482DED108B94ED010AD4ED20
:10474000010A20EE20FA94ED010AD4ED020A20EECF
:1047500020CA94ED010AD4ED030A60EE20BA94ED6C
:10476000010AD4ED040A60EE20CA94ED020AD4EDE9
:10477000020A20EE20DA94ED020AD4ED030A20EEBC
:10478000209A94ED020AD4ED040A20EE20BA94EDAA
:10479000030AD4ED030A60EE20AA94ED030AD4EDD7
:1047A000040A20EE20AA94ED040AD4ED040A60EE77
:1047B000209A90ED040A84ED080A90ED050A84ED34
:1047C000090A90ED060A84ED0A0AB0F9001000EE1D
:1047D000101AB8EEC00A84ED0B0AB0F9021000EE10
:1047E000101AB8EEC00A84ED0C0AB0F9041000EEFD
:1047F000101AB8EEC00A84ED0D0AB0F9061000EEEA
:10480000101AB8EEC00A84ED0E0AB0F9081000EED6
:10481000101AB8EEC00A84ED0F0AB0F90A0000EED3
:10482000100AB8EEC00A84ED100AFDF767F8A0641C
:10483000A06C616C401A00EE100AB8EE400ADFED81
:10484000BE0AA06CC0EE208A606494ED0B0AD4ED21
:104850000B0A94ED0C1A20EE200AD4ED0C0A00EE9F
:10486000810AD4ED0D0A94ED0D1A00EE810A00F0D4
:10487000CBFBD4ED0B0A60EE800AC4ED0B0AD4ED3D
:104880000C0A60EE800AC4ED0C0AD4ED0D0A20EE8D
:10489000800A84ED0D0A94ED0E0AD4ED0E0A94ED13
:1048A0000F1A20EE200AD4ED0F0A00EE810AD4ED93
:1048B000100A94ED101A00EE810A00F0A5FBD4ED69
:1048C0000E0AB6EE001AB0EE008A60EE800A39EEEB
:1048D0006CEA7BEE2B1AC4ED0E0AD4ED0F0A60EEE3
:1048E000800AC4ED0F0AD4ED100A20EE800A71EEA2
:1048F0006A0A31EE4D1A84ED100A94ED0E0A70EE3C
:10490000E9EA31EE692A20EE080A71EE6ADA60EE11
:104910002E0A94ED0F0A20EE080A40EE0E0A94EDDE
:10492000100A20EE080A40EE210A94ED0E0A79EEF4
:104930002C1A7BEE6BCA20EE080A60EEA00A20EE6D
:10494000210AD4ED0F1A61EE881A01EE820AD4ED25
:10495000101A3AEE4C2A61EE881A01EE820AD4ED62
:104960000E1A3AEE0C2A61EE881A40EE000A21EE89
:10497000AC9AD4ED0F1A10EE900A61EE881A01EE8F
:10498000829AD4ED101A61EE881A01EEAD9AFBF707
:1049900025FE41EC100BFFF745FA51EC100BFBF72D
:1049A00061FE00EE900A7CEE0A2A3FEE4D1A60EEA0
:1049B000880A69EE083A22EE880A31EE6A1A60EE39
:1049C0008E1A94ED104A2CEE882A31EE293A43EEE5
:1049D000A21A7BEE8B2A20EEAE1A60EEA22AD4ED4C
:1049E0000C0A03EEAC1A43EEAD2A60EE830AD4ED56
:1049F0000D3A43EEC00AD4ED0F3A63EEA23A44EE0C
:104A0000613A94ED0B4A70EEA30AD4ED0D3A63EED1
:104A1000823AF5EEC00A44EE433A94ED103A94ED32
:104A20000E4A23EE013A04EE623A73EE832A94EDC5
:104A30000B3A23EE000A94ED0C3A03EE420A94ED91
:104A40000E2A62EE211A94ED0F2A42EE411A30EE40
:104A5000210AF1EE10FA41D0F5EEC02AF1EE10FA7B
:104A60003CD0B5EEC00AF1EE10FA37D0D4ED051AFD
:104A70009FED321A20EE812A42EE281A22EE812A78
:104A8000C4ED051AD4ED061A42EE281AC4ED061A32
:104A900060EE011A94ED071A01EEA81A84ED071AC8
:104AA00094ED081A00EE881AD4ED050A71EE200A7A
:104AB000C4ED080AD4ED090A94ED061A42EE880AFC
:104AC00070EE810AC4ED090AD4ED0A0A40EE080A24
:104AD00094ED070A30EE800A84ED0A0A94ED020A8A
:104AE000D4ED080A94ED091A94ED013A20EEC00ABB
:104AF000D4ED030A00EEC10AD4ED040A94ED0A1ABB
:104B000000EEC10AD4ED080A94ED0A1A00EE283A24
:104B100094ED010A20EE200AD4ED030A00EE810A8A
:104B2000D4ED040A94ED091A00EEC10A08E0000071
:104B300028060020084700200000FA440AD7233C3A
:104B4000D4ED021AD4ED090A94ED0A1A40EE281A9F
:104B500094ED010A94ED032AD4ED042A20EE200AF4
:104B6000D4ED020A00EEC10AD4ED040A94ED081A4D
:104B700000EE810AD4ED0A0A94ED091A00EE282A03
:104B800094ED010A20EE200AD4ED020A00EE810A1B
:104B9000D4ED030A94ED081A00EEC10A40EE282A6B
:104BA00023EE030A01EEA10A02EE020A02EEA20AB5
:104BB00000F02AFA63EE000AC4ED010A61EE800AF1
:104BC000C4ED020A62EE000A22EE800AC4ED030A76
:104BD00084ED040ABDEC108B10BD000070B5564C7E
:104BE0002DED068BF8EE008AB0EE008AB7EE00AA33
:104BF00094ED030AD4ED030A94ED041A20EE280A7A
:104C000020EE200AD4ED040A60EE880A00EEC10A04
:104C100030EE0A0A10EE100AFBF7E0FC94ED020AEF
:104C2000D4ED030A94ED041A20EE080A41EC190BA6
:104C300020EE200AD4ED010A60EE880A00EE810A17
:104C400010EE100AFBF7CAFC41EC100BB0EE491A4B
:104C5000F0EE691AFEF7E4FF9FED389B51EC100B64
:104C600053EC192BFBF718FCFBF7FCFC354D2863C4
:104C700094ED020AD4ED040A94ED031A20EE280AFA
:104C800020EE200AD4ED010A60EE880A00EE810AC7
:104C900010EE100AFBF7A2FC41EC100BFEF7A4FC8F
:104CA00053EC192B51EC100BFBF7F6FBFBF7DAFC7E
:104CB000E86294ED020AD4ED020A94ED031A20EEA4
:104CC000280A20EE200AD4ED030A60EE880A00EEDE
:104CD000C10A30EE0A0A10EE100AFBF77FFC94EDD1
:104CE000030AD4ED040A94ED021A20EE080A41ECFE
:104CF000190B20EE200AD4ED010A60EE880A00EEBE
:104D0000810A10EE100AFBF769FC41EC100BB0EEC3
:104D1000491AF0EE691AFEF783FF9FED0B1B51EC69
:104D2000100B53EC112BFBF7B7FBFBF79BFCA862B6
:104D3000BDEC068B70BD0000280600206666666626
:104D400066A64CC0084700206666666666A64C40AC
:104D500010B500F013FBFFF7EBFCBDE81040FFF7C8
:104D60003DBF000070B5FDF7B5FE00F0D5FA00F0CC
:104D700065F86420FCF7C4FC254C264E002500BFD6
:104D800000F0FCFAFFF7D4FCFFF728FFB4F90200AB
:104D9000D6ED0C0A00EE100A6D1C642DB8EEC00AA8
:104DA00030EE200ABDEEC00A10EE100A6080B4F9A1
:104DB0000000D6ED0B0A00EE100AB8EEC00A30EE85
:104DC000200ABDEEC00A10EE100A2080B4F90400DB
:104DD000D6ED0A0A00EE100AB8EEC00A30EE200A3C
:104DE000BDEEC00A10EE100AA080C9DBB4F90210B3
:104DF000642091FBF0F16180B4F9001091FBF0F1B7
:104E00002180B4F9041091FBF0F0A08070BD000087
:104E1000C00700200847002008B500F061FC0090A2
:104E2000FFF796FF0221684600F053FCF8E7EFF326
:104E30000580002800D001207047000010B55948B7
:104E40002DED0A8BB0F90610B0F908009FED569BC6
:104E5000DFED57BA574C9FED588A9FED58BADFEDFA
:104E600058AA9FED58AADFED588A00294EDA9FED27
:104E700057CA00282ADA91FBF0F0FBF77FFB41ECE0
:104E8000100BFEF7C5FF53EC192B51EC100BFBF781
:104E9000D1FB0AD8C4ED01BA84ED028A9FED4C0A19
:104EA00084ED030A9FED4B0A0BE09FED4B0A84ED66
:104EB000010A9FED4A0A84ED020A84ED03BA9FEDD0
:104EC000480A84ED040ABDEC0A8B10BDFBDD91FBA2
:104ED000F0F0FBF753FB41EC100BFEF799FF53EC9E
:104EE000192B51EC100BFBF7A5FB84ED01CA06D87A
:104EF00084ED028AC4ED03AA9FED3A0AE1E784ED4E
:104F000002AAC4ED038A9FED380ADAE7DBDD002848
:104F10009FED36CA22DD91FBF0F0FBF72FFB41EC51
:104F2000100BFEF775FF53EC192B51EC100BFBF730
:104F300081FB0AD89FED2E0A84ED010AC4ED02AA76
:104F400084ED038AC4ED04BABDE79FED2A0A84ED1F
:104F5000010AC4ED028A84ED03AAB2E7B3DA91FB39
:104F6000F0F0FBF70BFB41EC100BFEF751FF53EC9D
:104F7000192B51EC100BFBF75DFB84ED01CA08D82F
:104F80009FED1D0A84ED020A84ED038A9FED1B0A42
:104F900097E79FED1B0A84ED02BA84ED030A9FEDAB
:104FA000190A8EE708470020000000000000F03FCB
:104FB0000AD7A3BB28060020A8C64BBEE17A543FFF
:104FC000355E7ABF68910DBFE17A54BF0AD7A33B23
:104FD000BE9F7A3F4ED111BC6F1203BC7B140EBF33
:104FE0006F1203BBA69B443C99BB16BB0AD7233B5D
:104FF00052499D3A99BB163B355E7A3F6F12033C8E
:10500000295C0FBFBC74933B10EE100AF6EE000A49
:10501000074960EE200AA1EB600000EE100A20EEC6
:10502000801AF7EE080A41EE400A20EE800A704727
:10503000DF59375F06220146492000F0E1BA10B57A
:1050400030216A2000F014FB0A20FCF759FB0D21E7
:10505000242000F00DFB0A20FCF752FB0E21282033
:1050600000F006FB0A20FCF74BFB8E21312000F0FC
:10507000FFFA0A20FCF744FB01210B2000F07BF82B
:105080000A20FCF73DFB002000F059F8102801D061
:10509000012010BD01210B2000F06DF80A20FCF763
:1050A0002FFB00210A2000F066F80A2000F047F8E4
:1050B00008B1022010BD0A20FCF722FB00210B20C2
:1050C00000F059F80B2000F03AF808B1032010BDA9
:1050D0000A20FCF715FB2421412000F04CF8412068
:1050E00000F02DF8242801D0042010BD0A20FCF780
:1050F00007FBC021422000F03EF8422000F01FF8DC
:10510000C02801D0052010BD0A20FCF7F9FA0021C3
:105110002A2000F0ADFA0A20FCF7F2FA0021342030
:1051200000F0A6FA0A20FCF7EBFA062203210E2073
:1051300000F0A4F96420FCF7E3FA002010BD10B5DC
:105140000146322000F094FA0A20FCF7D9FA8021B7
:10515000342000F08DFA0A20FCF7D2FA352000F056
:1051600027FA04460021342000F082FA0A20FCF7D6
:10517000C7FA204610BD70B50D46044600212A200E
:1051800000F076FA0220FCF7BBFA2146292000F055
:105190006FFA0220FCF7B4FA2946642000F068FA9E
:1051A0000220FCF7ADFA81212A2000F061FABDE867
:1051B00070400A20FCF7A4BA1FB5144603AB00F0F8
:1051C00010F820784100401C084403994843617856
:1051D00008414FF480710390884200DD084604B016
:1051E00010BD70B5167800240068012516B1012E97
:1051F0001DD020E05678012E1DD1C00707D00878B9
:10520000C00705D01570547007E00844186070BDE1
:105210001868802809DA15705570186810B14FF0B9
:105220000001F2E74FF00101EFE72BD070BD567897
:10523000012E0ED0F6B100F00103C0F3400083420E
:105240000FD1087800F00101C0F34000814208D17D
:1052500070BDC00705D00878C00705D01570547020
:1052600070BD1470557070BD18688028FBDB5470D9
:10527000147070BDC007F4D00878C007F1D018686A
:10528000FF28F6DD1470EAE7FCF746FBFDF7F8FDB2
:10529000FDF7B8FBFDF784FBFDF756FBFDF784FC3B
:1052A000FDF7ACFCFBF7CEFBFFF7B8F9FFF75AFDB3
:1052B000FDF73AFCFFF722FA4FF4FA64204600F0BB
:1052C00013FF204600F010FFFDF780FB00F003FA0B
:1052D000FEE701460020842900D0C81C704700006A
:1052E00008B500F0FDF90A4C0090094B094A991CD9
:1052F00002F13C0000F042FC0649B4F900203C31C8
:10530000044800F0E6FC0F21684600F0E2F9ECE703
:10531000C8070020B848002030B585B06420FCF7ED
:10532000EFF9752000F044F9124900241422887026
:1053300011496846FAF7E5FF4FEA0D0505EB440011
:10534000417815F8140000F093F90120FCF7D8F922
:10535000641CE4B20A2CF1D3032000F084F902208B
:1053600000F07CF9FFF76BFE00F0D0F805B00020EC
:1053700030BD0000280600205467000810B50E223A
:1053800039493B2000F03CF9374800F10E04018810
:1053900049BA2180418849BA6180818849BAA1808F
:1053A000C18849BAA1810189628B49BA891AE18110
:1053B0004189A28B49BA891A21828089E18B40BA3E
:1053C000401A60822948FFF735FE2849A4F14200BF
:1053D0004C399FED271ACA6C8264B1F85010A0F8BE
:1053E0004C10D0F842100160D0F846104160D0F85F
:1053F0004A108160B4F90C0000EE100AA4F14200DA
:10540000F8EEC00A80EE810AF3EE050A30EE200ABB
:1054100080ED030AB4F90E1000EE101AF8EEC00A7F
:105420009FED140A80EE801ADFED130AC1EE201AF8
:10543000C0ED041AB4F9101001EE101AF8EEC11AFA
:1054400081EE801AC1EE201AC0ED051AB4F91210CF
:1054500001EE101AF8EEC11A81EE801A81EE200AD0
:1054600080ED060A10BD00003C47002074060020B5
:105470005CEFA6436F1283413333654270B50E462D
:10548000044601461546282000F0F2F80220FCF7F9
:1054900037F90A21292000F0EBF80220FCF730F957
:1054A0000121642000F0E4F80220FCF729F944F01F
:1054B0008001252000F0DCF80220FCF721F93146BC
:1054C000262000F0D5F80220FCF71AF90321342039
:1054D00000F0CEF80220FCF713F90321672000F05A
:1054E000C7F80220FCF70CF981212A2000F0C0F84F
:1054F0000620FCF705F945F08001272000F0B8F8F8
:10550000BDE870400220FCF7FBB800002DE9F04137
:10551000264E002706F10E044FF496750E222349FD
:105520003B2000F06DF83188A08A49BA0844A08277
:105530007188E08A49BA0844E082B188208B49BA70
:10554000084420833189608B49BA0844608371899B
:10555000A08B49BA0844A083B189E08B49BA0844BA
:10556000E0830520FCF7CCF87F1CAF42D6DBB4F912
:10557000140090FBF5F0A082B4F9160090FBF5F052
:10558000E082B4F9180090FBF5F02083B4F91A001A
:1055900090FBF5F000B2608390FBF5F0A083B4F9C6
:1055A0001E0090FBF5F0E083BDE8F0813C47002051
:1055B000F8B5104E0446002240213046FCF798F919
:1055C00044F080000C4C3725621C20700123511ED2
:1055D0000A480095FCF780FD621C0123511E074814
:1055E0000095FCF779FD012240213046FCF780F957
:1055F0006078F8BD00140240280600201809002039
:10560000F8B5134F15460E46044600224021384691
:10561000FCF76EF90F4944F08000372408705231CE
:10562000A1F151020870012352390B480094FCF794
:1056300053FD08492B463246523107480094FCF787
:105640004BFD012240213846FCF752F90020F8BDFD
:10565000001402402806002018090020C006010E90
:105660001C2000F005B8C006010E1B20AFF300801F
:10567000F8B5114F0E460446002240213846FCF78B
:1056800037F904F07F000D4C3725621C2070012390
:10569000511E0B480095FCF71FFD2670621C01236C
:1056A000511E07480095FCF717FD0122402138469E
:1056B000FCF71EF90020F8BD001402402806002067
:1056C0001809002010B500B9012000F003FE0020E9
:1056D00010BD8120704710B500F022FE002010BDE3
:1056E00010B5FFF7A4FB18B1BDE8104000F048BFAB
:1056F000BDE8104000F03EBF10B500F02DFF0128BE
:1057000003D0BDE8104000F0E5BE10BD3EB5044634
:105710000D46B0F90800FFF7DCFD02A9CDE9000154
:10572000208A2B4682B2D4E9001000F0E9FE01285D
:1057300001D000203EBD02983EBD00002DE9F041A1
:10574000184C0F460546E6682068001D00F0E2FC94
:1057500038B9206890F82C100120884021698143D5
:105760002161681C07D137B12168BDE8F0410E48BE
:10577000091D00F007BD20683544B5424560216829
:1057800005D2A06BBDE8F041091D00F0E3BC606BE1
:10579000091D00F0DFFCA06A854200D2A562BDE8C9
:1057A000F0810000EC050020884600202DE9F04142
:1057B000054600F0F3FC2E4CA068401CA060206859
:1057C0002C4F10B1606940B32DE02560A06801281E
:1057D00029D1002606EB860007EB800000F0ACFC28
:1057E000761C072EF6D323488C3000F0A5FC214808
:1057F000A03000F0A1FC1F48B43000F09DFC1D4813
:10580000C83000F099FC1B48DC3000F095FC1948CA
:105810008C3060631430A06305E02068E96AC06AD8
:10582000884200D82560606A401C6062E96A0120F5
:10583000226988401043206101EB810007EB800062
:10584000291D00F09FFC00F0C9FC606900280CD005
:105850002068E96AC06A884207D207494FF0805041
:105860000860BFF34F8FBFF36F8FBDE8F08100007A
:10587000EC050020AC45002004ED00E070B5114EB1
:10588000114C17E000F080FD3068B8B100F0E4FE84
:1058900000F084FCF068C568281D00F03BFCA0689F
:1058A000401EA0606068401E606000F097FC2846C3
:1058B00000F00CF860680028E4D170BD00F0CCFE68
:1058C000F8E7000074460020EC05002010B50446FF
:1058D000006B00F097FC2046BDE8104000F092BC41
:1058E00010484FF47051420706D0C01D0D4920F0FA
:1058F0000700411AC1F570510B4A00230144C2E967
:1059000000030839103A21F0070111604B600B6069
:105910000B1AC0E9001393604FF000405360D06051
:1059200070470000AC090020D8050020074C4FF05C
:105930008056074DFFF7A2FF20680128FAD92E6094
:10594000BFF34F8FBFF36F8FF4E70000AC4500202B
:1059500004ED00E02DE9F0479A46DDE9098481462F
:105960006FF00303206B03EB82021044089D20F0CC
:105970000706700707D0502080F31188BFF34F8FC0
:10598000BFF36F8FFEE723180A5C83F834200A5CAC
:1059900012B1401C1028F6D3002784F84370072D5D
:1059A00000D30625E562C4E91157201D00F0CFFBA6
:1059B00004F1180000F0CBFB2461C5F1070064621C
:1059C000A061E76484F8507052464946304600F0C2
:1059D000BFF82060B8F1000F01D0C8F80040BDE862
:1059E000F087000030B5114900E011460A68824294
:1059F000FBD34B685C18844203D14068184448606C
:105A0000084643681C18944209D1084C103C24688D
:105A1000A24209D052681A4442600A6812680260C1
:105A2000814200D0086030BD0460F9E7D80500204D
:105A30000648416B096829B1416BC968C968496862
:105A4000816270474FF0FF31FAE70000EC0500205B
:105A500008484068401C4FF0500080F3118804D083
:105A6000BFF34F8FBFF36F8FFEE7BFF34F8FBFF3CF
:105A70006F8FFEE7E00500202DE9F0410546002785
:105A800000F082FC314E306808B9FFF729FFF0685A
:105A900005424BD1C5B3083568070ED005F00700A5
:105AA000C0F108000544680707D0502080F3118832
:105AB000BFF34F8FBFF36F8FFEE72DB37068854242
:105AC00034D82248103001460C6801E020460C46CC
:105AD0006168A94202D221680029F7D131688C425D
