:020000040800F2
:10000000B84500207D0200087F2400085522000822
:100010007D2400081B080008AD2B0008000000002C
:10002000000000000000000000000000C101000806
:10003000050A00080000000015020008FB25000862
:10004000970200089702000897020008970200082C
:1000500097020008F125000897020008970200089F
:10006000970200089702000897020008970200080C
:1000700097020008970200089702000897020008FC
:100080009702000897020008970200082908000854
:100090001D08000897020008970200089702000850
:1000A00097020008970200089702000897020008CC
:1000B00097020008F526000897020008970200083A
:1000C00097020008970200089702000897020008AC
:1000D00097020008892B0008970200089702000881
:1000E000970200089702000897020008970200088C
:1000F000970200089702000897020008970200087C
:10010000970200089702000897020008970200086B
:10011000970200089702000897020008970200085B
:100120009702000897020008550900089702000886
:10013000970200089702000897020008970200083B
:10014000970200089702000897020008970200082B
:10015000970200089702000897020008A12B0008E8
:10016000970200089702000897020008970200080B
:10017000970200089702000897020008000000009C
:1001800097020008970200089702000897020008EB
:1001900097020008970200089702000897020008DB
:1001A000000000000000000097020008DFF80CD0FB
:1001B00000F0F6FA00480047492F0008B845002033
:1001C0002B4B19680868B0E8F04F80F30988BFF33B
:1001D0006F8F4FF0000080F311887047000000001F
:1001E00006480068006880F3088862B661B6BFF30D
:1001F0004F8FBFF36F8F00DF00BF00BF08ED00E03F
:10020000DFF80C00016841F470010160704700BF25
:1002100088ED00E0EFF30980BFF36F8F144B1A688D
:100220001EF0100F08BF20ED108A20E9F04F10607B
:1002300008B44FF0500080F31188BFF34F8FBFF325
:100240006F8F03F08FFB4FF0000080F3118808BC24
:1002500019680868B0E8F04F1EF0100F08BFB0EC46
:10026000108A80F30988BFF36F8F704700BF00BF0B
:1002700038000020EFF305807047000006488047F3
:1002800006480047FEE7FEE7FEE7FEE7FEE7FEE77B
:10029000FEE7FEE7FEE7FEE7A1260008AD01000845
:1002A0002DE9F05F0546002092469B4688460646AB
:1002B000814640241BE0284641464746224600F03E
:1002C000B8F953465A46C01A914110D31146184600
:1002D000224600F09FF92D1A67EB01084F4622468F
:1002E0000120002100F096F917EB00094E41201E75
:1002F000A4F10104DFDC484631462A464346BDE806
:10030000F09F40EA01039B0703D009E008C9121FD0
:1003100008C0042AFAD203E011F8013B00F8013BBF
:10032000521EF9D27047D2B201E000F8012B491EEB
:10033000FBD270470022F6E710B513460A46044682
:100340001946FFF7F0FF204610BD2DE9FE4F80460D
:1003500081EA0300C00F0C46009021F0004123F019
:100360000045B8EB0200A94105D24046214690461F
:100370001C460B46024623F00040104347D0270D91
:10038000C7F30A00C3F30A510290401A01904028B3
:100390006BDAC3F3130040F4801B0098924620B13F
:1003A0000023D2EB030A63EB0B0B01985946C0F113
:1003B0004002504600F02EF906460D46504659467A
:1003C000019A00F046F910EB08006141002487EA29
:1003D000115284EAE7731A4340D0009A62B3019A3B
:1003E000012A4FEA075215DC001B61EB02014FF0B6
:1003F000004202EA0752CDE90042001C41F580119B
:1004000032462B4600F07DF903B0BDE8F08F404640
:100410002146F9E7001B61EB0201001C41F5801346
:1004200000185B412018A2F5001747EB030140EAD2
:10043000D570B6196D4111E06D084FEA360645EAF0
:10044000C0754FEA0752001B61EB0201001C41F529
:10045000801149084FEA30000019514132462B46BD
:1004600003B0BDE8F04F00F03DB900980122400014
:100470000023D0EB020263EBE073009821464FEAC1
:10048000E074B8EB000061EB0401E9E783F000439E
:100490005BE781F0004158E72DE9FE4F81EA030454
:1004A00004F0004421F0004100944FF0000B23F0D1
:1004B000004350EA01045ED052EA03045BD0C3F368
:1004C0000A54C1F30A552C44A4F2F3340194A0FB5E
:1004D0000254C1F3130141F48011C3F3130343F435
:1004E000801301FB024400FB034E840A970A44EA8E
:1004F000815447EA8357A4FB076802958D0A05FBE0
:1005000007854FEA932C04FB0C542705029D4FEA04
:10051000065847EA1637B5EB08056EEB070C870E51
:10052000920E47EA811742EA8312A7FB0201B6EB5B
:100530000B0164EB00042B0D43EA0C335E1844EB13
:100540001C50DA465146E7FB0201C5F313044FEA9B
:100550000B3343EA14534FEA0432019C43EA060387
:10056000A4F10C040294009CCDE900B400F0C9F899
:1005700003B0BDE8F08F00200146F9E70EB5C10FCA
:1005800080EAE0700844CA07002140F233438DE856
:100590000E000A460B4600F0B4F803B000BD70B57B
:1005A000C1F30A5201F000450024C1F3130140F2E7
:1005B000FF3341F480119A4201DA002070BD40F20D
:1005C00033439A42A2F2334203DC524200F031F844
:1005D00000E090402C43F1D0404270BD01F0004358
:1005E00030B421F0004150EA010206D00A0DA2F514
:1005F0006072C1F31301002A02DC30BC0020704796
:10060000440F44EAC104C100E01830BC00EBC25002
:1006100000F031B8202A04DB203A00FA02F1002071
:1006200070479140C2F1200320FA03F31943904030
:100630007047202A04DB203A21FA02F0002170479B
:1006400021FA02F3D040C2F120029140084319463A
:100650007047202A06DBCB17203A41FA02F043EA22
:10066000E07306E041FA02F3D040C2F1200291406B
:100670000843194670470029A8BF7047401C49002D
:1006800008BF20F00100704710B4B0FA80FC00FAF7
:100690000CF050EA010404BF10BC704749B1CCF122
:1006A000200421FA04F411FA0CF118BF01212143AE
:1006B0000843A3EB0C01CB1D4FEA00614FEA102069
:1006C00042BF002010BC704700EBC350104400290B
:1006D000A4BF10BC7047401C490008BF20F00100B7
:1006E00010BC704710B5141E73F1000408DA401CEA
:1006F00041F1000192185B411A4301D120F0010041
:1007000010BD2DE9F04D92469B4611B1B1FA81F230
:1007100002E0B0FA80F220329046FFF77BFF0446F9
:100720000F4640EA0A0041EA0B0153465A46084385
:1007300013D0114653EA010019D0C8F140025046C7
:10074000FFF777FF05460E46504659464246FFF7EB
:1007500061FF084305D0012004E020463946BDE88A
:10076000F08D0020054346EAE0762C4337430A9893
:100770006305E40AA0EB08000022FD0A44EA47549E
:100780000A3002D500200146E9E701051019694148
:10079000DDE9084500196941BDE8F04DA2E7000018
:1007A000064C074D06E0E06840F0010394E80700BE
:1007B00098471034AC42F6D3FFF7FCFC643D0008C8
:1007C000843D000870B58C1810F8015B15F0070324
:1007D00001D110F8013B2A1106D110F8012B03E0DA
:1007E00010F8016B01F8016B5B1EF9D12B0705D4E2
:1007F0000023521E0DD401F8013BFAE710F8013B2B
:10080000CB1A921C03E013F8015B01F8015B521E46
:10081000F9D5A142D8D3002070BDFEE7014800F011
:10082000FDBA0000B0010020014800F0F7BA000056
:10083000B001002070B520481E490024016003214A
:10084000C0E901144FF40021C0E903414FF4401105
:100850004161047644768476C47604770125457731
:1008600000F0DAFB18B11F2114A002F0A0F918481B
:100870004FF4007140F2FF128460016008210161B1
:10088000183084600260C0E90341183001460562F7
:10089000C0E906450461046044604461064800F014
:1008A000A7F90421044800F02AF9BDE87040024885
:1008B00000F07ABC00640040B00100202E2E5C42A3
:1008C00053505C6273705F63616E2E6300000000C2
:1008D000E43F00201A4B30B40A461968491C1960DD
:1008E0000368A3F20123042B27D2DFE803F0020AF6
:1008F000121A322902D80146124816E01146114850
:1009000018E0322902D801460F480EE011460E4881
:1009100010E0322902D801460C4806E011460B4887
:1009200008E0322904D80146094830BC00F0DCB8A0
:100930000748114630BC00F067B830BC7047000073
:10094000A001002068400020B440002000410020A9
:100950004C410020014800F06DBC0000580200200E
:1009600001681823CAB2103AB2FBF3F2054B6FF3D9
:100970000901032A9B5CC36500D9091D81650846EE
:1009800070470000FC3C000810B5014600208B6950
:100990008A6A4FF0C07453B1B3F5005F15D072B1DD
:1009A000012A0CD0022A0AD0032A09D104E01AB184
:1009B000012A06D0022A03D1C96AC90100D5012043
:1009C00010BDC96AA142FAD010BD002AF7D0012A91
:1009D000F2D0022AF3D0032AF3D010BD30B5046858
:1009E000256825F480252560046863608368402BB2
:1009F000036803D099600068C26030BD9A600068E7
:100A0000C16030BD7047000030B5002304681A464D
:100A10004460098849BA016001684468091BC160E3
:100A20002E491C460968322901D2C46119E0C16807
:100A300041F65835E94206DA816B491C8163C16889
:100A400001F500510CE0C16841F65835A94206DDB8
:100A5000816B491E8163C168A1F5005100E0C16846
:100A6000C1610168856B01EB453181600168856971
:100A7000DFED1B0A491B00EE101AB8EEC00A20EE8B
:100A8000200ADFED180A20EE200A80ED100AC16965
:100A900000EE101A017DB8EEC00A00EB8105491C7A
:100AA000017585ED080A017D062900D1047500EE67
:100AB000102A00EB83015B1CB8EEC00AD1ED080AD6
:100AC000062B30EE800ABDEEC00A10EE102AEEDBD7
:100AD000062192FBF1F1C16330BD0000A0010020AE
:100AE0000000B44300000039118849BA816181696E
:100AF0008160816941600169491C0161704790F81A
:100B00002020012A09D090F82020022A05D0416A2D
:100B100041F48021416201207047006842690A4324
:100B2000426100207047F0B590F82040012C07D0BA
:100B300090F82040022C03D0416A41F4802153E018
:100B40000468A5686D0105D4A5682D0102D4A568C7
:100B5000ED0046D5A4680125C4F30164A5401D60DD
:100B60008D684FF4C0739DB1CE6835434E6845EA39
:100B7000C605066803EB0417F5514FF4C275076804
:100B800005EB04150E697E51097D012905D009E0A8
:100B90000E88CD6845EA4655EBE701684E5946F4A4
:100BA00080764E511179D2F805504FF4C67641EA5D
:100BB0000521056806EB0416A9511178D2F8012029
:100BC0004FF4C47541EA0221026805EB0415515146
:100BD000006803EB0411425842F001024250002029
:100BE000F0BD416A41F4001141620120F0BD0000F6
:100BF00010B590F82020012A09D090F82020022A70
:100C000005D0416A41F480214162012010BD3A487B
:100C1000D0F8002242F00102C0F80022D0F80022F1
:100C200022F47C52C0F80022D0F800224B6A42EA3B
:100C30000322C0F800220B7D01229A40D0F81C321A
:100C40009343C0F81C32CB69B3B9D0F80C3293434C
:100C5000C0F80C328C894B6864F31F434C6900EB7D
:100C6000C404C4F840320C890B6864F31F434C6918
:100C700000EBC404C4F84432CB69012B16D1D0F880
:100C80000C321343C0F80C320C884B6864F31F43DA
:100C90004C6900EBC404C4F840320C89CB6864F39F
:100CA0001F434C6900EBC404C4F844328B69002B29
:100CB000D0F804320ED01343C0F804320B69002B75
:100CC000D0F8143208D01343C0F81432096A01294D
:100CD00004D008E09343EFE79343F5E7D0F81C1204
:100CE0001143C0F81C12D0F8001221F00101C0F825
:100CF0000012002010BD000000640040704790F812
:100D000020300022012B03D090F82030022B04D198
:100D1000006821B1006900F0030210467047C06806
:100D2000F9E730B590F82040012C07D090F820402A
:100D3000022C03D0416A41F4802109E011B101295C
:100D400009D00CE00468E46807E0416A41F400114E
:100D50004162012030BD04682469A407F5D04FF436
:100D6000D874056804EB01142D5915F0040595603D
:100D700005682D5942D0ED08556005682C59C4F31B
:100D80004004D4604FF4DA74056804EB01142D5963
:100D900005F00F05156105682D59C5F30725956107
:100DA00005682C59240C54614FF4DC72046802EB82
:100DB0000112A4581C700468A458240A5C700468CA
:100DC000A458240C9C700468A258120EDA704FF4D8
:100DD000DE72046802EB0112A4581C710468A45866
:100DE000240A5C710468A458240C9C710468A258FD
:100DF000120EDA7129B1012909D00DE06D0D1560CF
:100E0000BBE70068C16841F02001C16004E00068F0
:100E1000016941F020010161002030BD2DE9F05F42
:100E20000546006800244669D0F804908768D0F829
:100E30000CB0D0F810A0D0F81880F10748D0F9070E
:100E400014D001218160B80703D5284600F0D9F9F4
:100E50000CE0780702D54FF4006407E0380702D5AC
:100E60004FF4805402E0284600F0CAF9F80516D580
:100E700029684FF480708860B80503D5284600F0D3
:100E8000C2F90CE0780502D544F4005407E03805B7
:100E900002D544F4804402E0284600F0B3F9F80398
:100EA00016D529684FF480308860B80303D52846EA
:100EB00000F0ABF90CE0780302D544F4004407E0FD
:100EC000380302D544F4803402E0284600F09CF94F
:100ED000300707D55FEACB6004D52968102044F4B9
:100EE0000074C86070074FF0080707D55FEA0B7001
:100EF00004D52868C760284600F050F9B00706D529
:100F00002868C068800702D0284600F048F97006BB
:100F100007D55FEACA6004D52968102044F48064CC
:100F20000861B00607D55FEA0A7004D52868076132
:100F3000284600F035F9F00606D5286800698007D4
:100F400002D0284600F02DF9B00308D55FEAC96049
:100F500005D5296810204860284600F023F9F003E1
:100F600007D55FEA097004D528684760284600F075
:100F70004DF9300446D55FEA497040D5F00504D5F7
:100F80005FEAC87001D044F00104B00504D55FEAFF
:100F9000887001D544F00204700504D55FEA4870FA
:100FA00001D544F00404300529D518F0700F26D07F
:100FB00008F07000402815D006DC102809D0202841
:100FC0000AD0302816D10AE050280ED0602811D15E
:100FD0000EE044F008040DE044F010040AE044F090
:100FE000200407E044F0400404E044F0800401E001
:100FF00044F480742868816921F070018161296856
:1010000004204860002C05D0686A204368622846A6
:10101000FFF774FEBDE8F09F70B5040003D094F8AC
:10102000200010B104E0012070BD204600F082F8DD
:101030002068016821F00201016000F045FB0546CF
:10104000052604E000F040FB401B0A2811D8206868
:1010500040688007F6D42068016841F00101016012
:1010600000F032FB05460BE000F02EFB401B0A2887
:1010700006D9606A40F40030606284F82060D2E7EC
:1010800020684068C007EFD0207E012820680168F2
:101090003DD021F080010160607E01282068016858
:1010A00038D021F040010160A07E0128206801684D
:1010B00033D021F020010160E07E01282068016822
:1010C0002ED041F010010160207F012820680168C6
:1010D00029D021F008010160607F012820680168A3
:1010E00024D021F004010160D4E902010843D4E9CD
:1010F0000412114308436168491E08432168C8610E
:1011000000206062012084F82000002070BD41F0C2
:101110008001C0E741F04001C5E741F02001CAE786
:1011200021F01001CFE741F00801D4E741F00401BC
:10113000D9E7000000B50068154987B0884225D17D
:1011400014480021026842F0007202600068022226
:1011500000F0007005900320CDE90210CDE90002F7
:101160000920049069460C4800F0C2F900220521CC
:10117000132000F061FB132000F052FB0022052138
:10118000142000F059FB142000F04AFB07B000BD0A
:101190000064004040380240000C02407047704735
:1011A000704770477047000070B5044690F8200003
:1011B000012804D0606A40F40020606218E0022038
:1011C00084F820002068016821F00101016000F02E
:1011D0007BFA05460EE000BF00F076FA401B0A28B5
:1011E00008D9606A40F400306062052084F820006D
:1011F000012070BD20684068C007EDD1606270BDFD
:10120000704770477047704770477047704790F855
:101210003510022903D08021416501207047052146
:1012200080F835100068016821F00101016000209C
:10123000704700002DE9F84304464FF00009CDF84F
:10124000009063484FF41651A56D0068B0FBF1F7AC
:101250002E6894F85C10082000FA01F131420FD09A
:1012600021680A6852070BD50A6822F004020A6056
:1012700094F85C108840A860606D40F001006065E3
:1012800094F85C104FF0010808FA01F0304208D0E1
:1012900021684969090604D5A860606D40F0020024
:1012A000606594F85C1004208840304208D02168C2
:1012B0000968890704D5A860606D40F00400606586
:1012C00094F85C1010208840304218D021680968DA
:1012D000090714D5A86020680168490304D500688F
:1012E000000308D5A16C07E00168C90503D40168B3
:1012F00021F008010160216C09B12046884794F86B
:101300005C1020208840304231D021680968C9062D
:101310002DD5A86094F8350005282068016806D00E
:10132000490347D5006800031DD4616C1CE021F01F
:10133000160101602068416921F080014161206C43
:1013400008B9A06C20B12068016821F00801016093
:1013500094F85C103F208840A86084F8349084F8AA
:101360003580216D1FE0E16B09B120468847606D33
:1013700000282BD0606DC00714D0052084F83500FC
:101380002068016821F0010101600098401C009074
:10139000B84203D820680068C007F6D184F83490BA
:1013A00084F83580E16C002910D001B02046BDE8FA
:1013B000F04308470168C905D5D4016821F0100140
:1013C000016084F8349084F83580CCE7BDE8F88378
:1013D000100000202DE9F041044600F075F90646A2
:1013E0005CB1002584F83450022084F83500206870
:1013F000016821F0010101600DE00120BDE8F081EC
:1014000000F062F9801B052805D9202060650320C3
:1014100084F83500F2E720680068C007F0D1226840
:10142000116820480140D4E901031843D4E9033688
:101430003343184363691843A3691843E3691843A6
:10144000236A18430843616A042903D1D4E90B13C2
:1014500019430843106020684069666A20F007015C
:1014600030460E43012704280CD1A06A0643E06AE7
:1014700040B12046FFF788FA20B14020606584F82B
:101480003570BAE7206846612046FFF769FA94F89C
:101490005C203F2191408160656584F835700020B3
:1014A000ACE700003F8010F070B5044690F83400BF
:1014B000002501280CD0012084F8340094F8356010
:1014C0000020012E06D084F834000225284670BD85
:1014D000022070BD022684F8356060652046FFF763
:1014E0007DFA2068016841F001010160EEE700002B
:1014F0002DE9F84FDFF890B100224FF001084FF0CE
:10150000030A4FF00F090BF1040E00BF0B6808FA35
:1015100002F42340A3426ED14D68022D01D0122D5A
:101520000ED1D50800EB850CDCF820505607F70EDD
:1015300009FA07F6B5430E69BE402E43CCF8206089
:10154000066855000F790AFA05FC07F0030726EA3A
:101550000C06AF40374307604E68012E05D0022EBF
:1015600003D0112E01D0122E0ED18768CE6827EA43
:101570000C07AE403E4386604668A6430C79C4F330
:101580000014944034434460C4688E6824EA0C0418
:10159000AE402643C6604C68E4006FD53B4C2568DE
:1015A00045F480452560246822F0030504F4804456
:1015B0000094374C2E19D6F8084895072F0F09FAD2
:1015C00007F5AC43334DA84201D100252EE0324D42
:1015D000A84201D1012529E0304DA84201D10225C0
:1015E00024E02F4DA84201D103251FE02D4DA84234
:1015F00002D104251AE041E02B4DA84201D1052576
:1016000014E02A4DA84201D106250FE0284DA8423A
:1016100001D107250AE0274DA84201D1082505E0A0
:10162000254DA84201D1092500E00A25BD402543EA
:10163000C6F80858DBF800405D464E689C43F60348
:1016400000D51C432C60DEF8004075464E689C4374
:10165000B60300D51C432C600B4D08352C684E6832
:101660009C43F60200D51C432C60074D0C352C68BA
:101670004E689C43B60200D51C432C60521C102AB5
:10168000FFF444AFBDE8F88F003C0140443802400D
:101690000030014000000240000402400008024007
:1016A000000C0240001002400014024000180240EA
:1016B000001C024000200240002402400AB1816167
:1016C00070470904FBE7000001488068704700008C
:1016D000040000200248816802781144816070474C
:1016E000040000200B4810B5016841F4007101604E
:1016F000016841F480610160016841F4807101601A
:10170000032000F0B9F8002000F006F800F03EF8E1
:10171000002010BD003C024010B5014688B00022F8
:101720001D2000F089F81D2000F07AF813480024ED
:10173000016841F002010160006805A900F00200A3
:101740000690684600F042F900F066F90C49400046
:10175000B0FBF1F10C480B4A491E026040F2E7323F
:10176000C0E90324C0E9011400F058FB10B10120C6
:1017700008B010BD044800F06DFBF9E740380240A6
:1017800040420F0000040040B8020020234808B582
:10179000016841F480410160006800F480400090DD
:1017A0001E48001F016841F080510160006800F090
:1017B00080500090032000F05FF8002211466FF087
:1017C0000B0000F039F8002211466FF00A0000F01B
:1017D00033F8002211466FF0090000F02DF80022C6
:1017E0001146501F00F028F800221146101F00F08B
:1017F00023F800220F21901E00F01EF800220F2176
:10180000501E00F019F805210022084600F014F8D7
:10181000BDE80840052000F003B80000443802404D
:1018200000F01F02012191404009800000F1E020FA
:10183000C0F8001170470000F0B40E4B1B680C4656
:10184000C3F30223C3F10705042D00D90425191D94
:10185000072901D2002300E0DB1E012606FA05F16C
:10186000491E214099409E40761E16403143F0BCEF
:1018700000F006BE0CED00E0064900F00702086823
:101880004FF6FF03184040EA0220034A1043086065
:10189000704700000CED00E00000FA052DE9F0476C
:1018A0000E46050065D0DFF81481D8F80000F7B2C5
:1018B00000F00F00B04207D288F80070D8F800009E
:1018C00000F00F00B04254D128683D4C810712D57A
:1018D000400703D5206840F4E050206028780007D6
:1018E00003D5206840F4604020602068A96820F09B
:1018F000F000084320602878C0072DD03049686880
:101900000839012812D0022813D0032811D0096801
:10191000890700292DDA216821F0030101432160A4
:10192000FFF7D2FE814641F2883A0EE0096889034A
:10193000EFE709688901ECE7FFF7C6FEA0EB0901B4
:10194000514502D90320BDE8F0872068696800F09E
:101950000C00B0EB810FEFD1D8F80010404601F039
:101960000F01B14207D90770006800F00F00B042C4
:1019700001D00120E7E72878400705D52068E9680D
:1019800020F4E050084320602878000706D520683E
:10199000296920F4604040EAC100206000F05CF852
:1019A0002168084AC1F30311515CC8400649086028
:1019B0000020FFF7B1FE0020C5E70000003C024018
:1019C00008380240043D0008100000200F22026089
:1019D0000C4A136803F003034360136803F0F00339
:1019E0008360136803F4E053C36012684FF4E0535C
:1019F00003EAD20202610448006800F00F000860A8
:101A00007047000008380240003C0240014800686E
:101A1000704700001000002004480549006809686C
:101A2000044AC1F38221515CC84070471000002075
:101A300008380240143D0008044805490068096858
:101A4000044AC1F34231515CC84070471000002085
:101A500008380240143D0008154810B5006810F021
:101A60000C02144813D01449042A0FD0082A0ED1AE
:101A70000F4C241F2268236802F03F025B0207D547
:101A80002068C0F38810A0FB010106E0084610BDE5
:101A90002168C1F38811A1FB00010023FEF700FCBF
:101AA0002168C1F30141491C4900B0FBF1F010BDB0
:101AB000083802400024F400001BB7002DE9F84F5D
:101AC000050076D02878DFF8F8B2BE4CC00749D0C0
:101AD000DBF800105846C1F38101012908D00068E5
:101AE000C0F3810002280AD1201D0068400206D5FB
:101AF0002068800336D568680028E2D032E0686844
:101B0000B0F5803F10D0B0F5A02F206810D020F4A1
:101B100080302060206820F4802020606868A0B1B8
:101B2000FFF7D2FD06460CE0206840F48030F4E771
:101B300040F480202060F7E7FFF7C6FD801B642893
:101B400073D820688003F7D50CE0FFF7BDFD06468B
:101B500005E000BFFFF7B8FD801B6428F0D82068BF
:101B60008003F7D42878DFF8608280074FF00009FF
:101B70003ED5DBF80010584611F00C0F09D0006874
:101B8000C0F3810002280BD18D48001F006840027D
:101B900006D42068800715D5E868012809D111E02E
:101BA000E868B8B10120C8F80000FFF78DFD0646CF
:101BB00005E002E1FFF788FD801B0228C0D82068FD
:101BC0008007F7D52068296920F0F80040EAC100B5
:101BD00020600DE0C8F80090FFF776FD064604E0AF
:101BE000FFF772FD801B02281FD820688007F7D4FA
:101BF0002878000722D5724E744869696C3671B135
:101C000001210160FFF760FD074604E0FFF75CFD7E
:101C1000C01B022809D830688007F7D50EE0C0F84D
:101C20000090FFF751FD074605E083E0FFF74CFD0C
:101C3000C01B02287ED830688007F7D42878400778
:101C400068D5DFF87CA100270AF1380ADAF800002D
:101C5000C0000BD4DAF8001041F08051CAF800102F
:101C6000DAF80000012700F080500090584E3068EC
:101C7000C00510D4306840F480703060FFF724FD58
:101C8000009005E0FFF720FD0099401A022851D886
:101C90003068C005F6D54A4EA868683601280FD0CE
:101CA0000528306810D020F001003060306820F046
:101CB00004003060A868B8B1FFF706FD00900FE09F
:101CC000306840F00100F4E740F004003060F7E7CE
:101CD000FFF7FAFC0099411A41F28830814264D83A
:101CE00030688007F4D50EE0FFF7EEFC009007E0C7
:101CF000FFF7EAFC0099411A41F28830814254D83A
:101D000030688007F4D42FB1DAF8001021F0805148
:101D1000CAF80010A869C0B3DBF80010C1F3810154
:101D200002294AD00228484607D0C8F86000FFF7C9
:101D3000CBFC00E039E005463AE04746C8F86000D1
:101D4000FFF7C2FC064604E0FFF7BEFC801B02283A
:101D50002BD820688001F7D4D5E907010843A96A88
:101D60001C4A490802EB01416A6A41EA82110843B0
:101D700095F82C1040EA01611148001F0160012014
:101D80003866FFF7A1FC054605E014E0FFF79CFC70
:101D9000401B022809D820688001F7D50BE000BF5E
:101DA000FFF792FC401B022802D90320BDE8F88F00
:101DB00020688001F4D40020F8E70120F6E7000055
:101DC000083802400038024000004742800E474277
:101DD000007000400000FFFF4FF0E0210428086978
:101DE00003D020F004000861704740F00400FAE7D7
:101DF00010B5401EB0F1807F01D3012010BD4FF01F
:101E0000E02460610F21601700F03AFB0020A06120
:101E100007202061002010BD7047704710B50400F6
:101E200003D094F8390010B107E0012010BD002064
:101E300084F83800204600F00CF8022084F83900BD
:101E4000211D206800F05CFC012084F8390000208E
:101E500010BD70470168CA6842F00102CA6000689C
:101E6000016841F00101016000207047704770B5C2
:101E70000446006801694FF00005C943890715D47D
:101E8000C168C943890711D4E91E01610120207688
:101E9000206880698007204602D0FFF7E7FF04E052
:101EA00000F098F8204600F096F825762068016941
:101EB000C943490717D4C168C943490713D46FF010
:101EC00004010161022020762068806910F4407FBF
:101ED000204602D0FFF7CAFF04E000F07BF820465E
:101EE00000F079F8257620680169C943090716D4FE
:101EF000C168C943090712D46FF0080101610420C9
:101F000020762068C0698007204602D0FFF7AEFF28
:101F100004E000F05FF8204600F05DF825762068C8
:101F20000169C943C90617D4C168C943C90613D496
:101F30006FF010010161082020762068C06910F45C
:101F4000407F204602D0FFF791FF04E000F042F806
:101F5000204600F040F8257620680169C943C9078A
:101F600008D1C168C943C90704D1891E016120464F
:101F700000F032F820680169C943090609D4C16834
:101F8000C943090605D46FF0800101612046FFF7BF
:101F900043FF20680169C943490609D4C168C943A0
:101FA000490605D46FF040010161204600F01EF89B
:101FB00020680169C94389060BD4C168C9438906F1
:101FC00007D46FF0200101612046BDE87040FFF7A3
:101FD00024BF70BD7047704700680349884201D133
:101FE000FFF778BB7047000000040040704770475F
:101FF00070B5026804461068D168536910F00F0F7D
:1020000050D003F0010501F4907635435DD0C2074E
:1020100005D0CA0503D5E26B42F00102E263420734
:1020200005D5DA0703D0E26B42F00202E2638207D1
:1020300005D5DA0703D0E26B42F00402E26302073F
:1020400005D5DA0703D0E26B42F00802E263E26BE7
:10205000002A33D0800604D5880602D5204600F039
:10206000C5FB20684069E16BC0F38010090700D40C
:1020700028B3204600F0ACFB2068416949061AD518
:10208000416921F040014161606BA0B11B490165CC
:10209000606BFFF7BCF8002810D0606B016DBDE8E5
:1020A00070400847830610D58B060ED52046BDE844
:1020B000704000F09BBB2046FFF799FF70BD2046A3
:1020C000FFF795FF0020E06370BD030606D50B0601
:1020D00004D52046BDE8704000F024BD4006F3D58D
:1020E0004806F1D5D168204621F04001D160202179
:1020F00084F8391000F0ADF870BD0000C127000869
:1021000070B5040004D094F83900002510B106E041
:10211000012070BD84F83850204600F023F82420B8
:1021200084F839002068C16821F40051C16020465C
:1021300000F0A2FB2068016921F490410161206850
:10214000416921F02A0141612068C16841F40051D0
:10215000C160E563202084F8390084F83A0000204B
:1021600070BD0000F0B506462E4F046800252E49CC
:1021700002200122032387B0BC4232D10C6844F014
:1021800010040C60096801AC01F010010591C02138
:10219000009184E80D000720049069462348FFF76A
:1021A000A7F9244C224820604FF00060C4E90105E3
:1021B0004014C4E903506561A561E56125622046CC
:1021C0006562FFF707F918B18C211BA000F0EFFC46
:1021D0007463002205212520A663FFF72DFB25202F
:1021E0001CE0194DAC421BD10C6844F020040C607B
:1021F000096801AC01F0200105914FF48441009180
:1022000084E80D000820049069461048FFF770F933
:10221000002205214720FFF70FFB4720FFF700FBB7
:1022200007B0F0BD001001404438024000040240F5
:1022300040640240580200202E2E2F5372632F75E7
:10224000736172742E630000001401400018024094
:1022500070477047FEE70000104810B50E49016056
:102260001021416000214FF400228160C0E9031277
:10227000920042610176417681760122C276017731
:102280004277FEF7C9FE002805D0BDE810404F2177
:1022900003A000F08CBC10BD00640040B001002021
:1022A0002E2E2F5372632F63616E2E630000000089
:1022B000094808B5016841F4800101600068002206
:1022C00000F48000009005213A20FFF7B5FABDE840
:1022D00008403A20FFF7A4BA3038024000B585B074
:1022E000142208496846FEF70CF80021684600F001
:1022F0006CFE0549086000F0D5FD00F0E7FD05B073
:1023000000BD0000E83C0008000000202DE9F0417D
:102310002F4886B00024016841F040010160016847
:1023200001F040010591016841F00101016001687F
:1023300001F001010591016841F0020101600168AD
:1023400001F002010591016841F008010160016896
:1023500001F008010591016841F080010160016808
:1023600001F080010591016841F0100101600168F0
:1023700001F010010591016841F020010160006841
:10238000144F00F020004FF400650590002229460C
:102390003846FFF793F9DFF84080EE00002231461F
:1023A0004046FFF78BF900950125CDE901546946B8
:1023B00038460394FFF79CF80096CDE9015469462E
:1023C00040460394FFF794F806B0BDE8F0810000A2
:1023D0003038024000100240001402400E4810B590
:1023E0000C4901600D49416000214FF48062816019
:1023F000C0E903120C22C0E90521C161FFF780FE8C
:10240000002805D0BDE810404F2105A000F0CFBB4B
:1024100010BD000000100140D8010020A08601007E
:102420002E2E2F5372632F75736172742E6300000A
:102430000D4810B50B4901604FF4E13141600021B6
:1024400081600C22C160C0E904128161C161FFF7A3
:1024500057FE002805D0BDE81040622103A000F01F
:10246000A6BB10BD00140140180200202E2E2F53D1
:1024700072632F75736172742E630000FEE77047FC
:102480000907090E002806DA00F00F0000F1E0202D
:1024900080F8141D704700F1E02080F800147047A8
:1024A000D0ED021AC0ED031A90EC020A30EE600A79
:1024B00080ED020AD0ED060A20EE801A80ED091A9E
:1024C000D0ED0A0A90ED072A42EE000A30EE610ACA
:1024D000C0ED0A0AD0ED081A71EE200A20EE210A9A
:1024E00080ED0B0A30EE800A80ED040AD0ED0C0A74
:1024F000B0EEC01AB4EEE01AF1EE10FA06DDB5EE59
:10250000C00AF1EE10FA02DDC0ED040A7047B1EE28
:10251000600A80ED040A704790ED021A80ED031AFC
:1025200090EC020A30EE600A80ED020AD0ED060A55
:1025300060EE801AC0ED091AD0ED0A0A90ED072A64
:1025400042EE000A30EE410AC0ED0A0A90ED081A88
:1025500071EEA00A20EE010A80ED0B0A30EE800A2F
:1025600080ED040AD0ED0C0AB0EEC01AB4EEE01A09
:10257000F1EE10FA0BDDB5EEC00AF1EE10FA02DD55
:10258000C0ED040A03E0B1EE600A80ED040A90EDAC
:10259000040AD0ED050A0D4A9FED0D1A30EE600ACF
:1025A00010EE101A914202DD30EE810A09E010EEC1
:1025B000101A084A914202D890ED040A03E030EE66
:1025C000C10A80ED040A80ED050A70470000484406
:1025D00000004844000048C49FED040A80ED000A52
:1025E00080ED010A80ED040A704700000000000041
:1025F0007047012000F0C5FCFBE700F0DCBC0000E8
:1026000030B5254893B00025016841F08051016044
:10261000006800F0805011902048016841F440416A
:1026200001600068022400F44040119001200090F5
:10263000000401908001CDE9064006200890A82002
:10264000CDE9090404200B906846FFF737FA00B182
:10265000FEE70CA90F2081E831004FF4A0500F9045
:102660004FF48050109005210CA8FFF717F900B126
:10267000FEE7FFF7CBF94FF47A71B0FBF1F0FFF70B
:10268000B7FB0420FFF7A8FB00220F21501EFFF725
:10269000D3F813B030BD0000403802400070004055
:1026A0001048016841F4700101600F48016841F071
:1026B000010101600C4A00210832116002680B4BD5
:1026C0001A400260031D0A4A1A60026822F480223E
:1026D000026005480C3001600249580680390860E4
:1026E0007047000088ED00E000380240FFFFF6FE72
:1026F000103000240148FFF7BABB0000B8020020E8
:10270000F0B50268234B244D244E254F254C4FF045
:10271000804C984209D0604507D0A84205D0B0420D
:1027200003D0B84201D0A04204D122F0700E4A6812
:1027300042EA0E0298421BD0604519D0A84217D039
:10274000B04215D0B84213D0A04211D0164DA842C5
:102750000ED0164DA8420BD0154DA84208D0154DED
:10276000A84205D0144DA84202D0144DA84203D16E
:1027700022F44075CA682A4302608A68C2620A6805
:102780008262984201D0A04201D10969016301210E
:102790004161F0BD0000014000040040000800401D
:1027A000000C004000040140004001400044014092
:1027B0000048014000180040001C0040002000407C
:1027C00010B5806B0021C185C184FFF710FC10BDDE
:1027D0000168CA6822F49072CA6001684A6922F0EE
:1027E00001024A61202180F83A10704710B590F834
:1027F0003A10222901D0022010BD8168B1F5805F16
:1028000011D00169002901681FD0496801F07F03D8
:10281000816A4A1C82620B70C18D491E0904090C31
:10282000C18518D026E00269816A002A02685268D0
:1028300005D0D2B20A80816A491C8162ECE7C2F3FA
:1028400008020A80816A891CF7E74A68816A4B1C82
:1028500083620A70E0E70168CA6822F49072CA6075
:1028600001684A6922F001024A61202180F83A1089
:10287000FFF7EEFC002010BD2DE9F0410446006892
:10288000016921F44052E168114301612168C8687F
:1028900049F20C6290432369A268E5691A436369AF
:1028A0002B431A430243CA602168486920F44072EE
:1028B000A06910434861E1696425B1F5004F97486C
:1028C000974A21684FF032083FD0914201D08142AF
:1028D0007CD1FFF7B1F800EBC00101EB001061689B
:1028E0008900B0FBF1F6FFF7A7F800EBC00101EBA0
:1028F000001061688900B0FBF1F0B0FBF5F06FF0FB
:102900001801484306EB800108EB0110B0FBF5F01D
:1029100000F0F006FFF790F800EBC00101EB0010AB
:1029200061688900B0FBF1F0B0FBF5F006EB001632
:10293000FFF782F800EBC00101EB0010616889002D
:10294000B0FBF1F7FFF778F8D2E0914201D0814275
:102950003DD1FFF771F800EBC00101EB0010616899
:102960004900B0FBF1F0B0FBF5F00601FFF764F8A9
:1029700000EBC00101EB001061684900B0FBF1F70A
:10298000FFF75AF800EBC00101EB00106168490045
:10299000B0FBF1F0B0FBF5F06FF01801484307EB26
:1029A000800108EBC100B0FBF5F000F0F80006EB89
:1029B0004006FFF741F800EBC00101EB0010616831
:1029C0004900B0FBF1F7FFF737F83CE055E0FFF7BF
:1029D00023F800EBC00101EB001061684900B0FB77
:1029E000F1F0B0FBF5F00601FFF716F800EBC001BF
:1029F00001EB001061684900B0FBF1F7FFF70CF83C
:102A000000EBC00101EB001061684900B0FBF1F080
:102A1000B0FBF5F06FF01801484307EB800108EBBD
:102A2000C100B0FBF5F000F0F80006EB4006FEF741
:102A3000F3FF00EBC00101EB001061684900B0FB3F
:102A4000F1F7FEF7E9FF00EBC00101EB0010616850
:102A50004900B0FBF1F0B0FBF5F06FF0180148430E
:102A600007EB800108EBC100B0FBF5F000F00700B8
:102A7000216830448860BDE8F081FEF7CDFF00EBAF
:102A8000C00101EB001061688900B0FBF1F6FEF7B0
:102A9000C3FF00EBC00101EB001061688900B0FBCF
:102AA000F1F0B0FBF5F06FF01801484306EB800140
:102AB00008EB0110B0FBF5F000F0F006FEF7ACFFFC
:102AC00000EBC00101EB001061688900B0FBF1F080
:102AD000B0FBF5F006EB0016FEF79EFF00EBC00121
:102AE00001EB001061688900B0FBF1F7FEF794FF7D
:102AF00000EBC00101EB001061688900B0FBF1F050
:102B0000B0FBF5F06FF01801484307EB800108EBCC
:102B10000110B0FBF5F000F00F00A9E70014014030
:102B20000010014090F83910212901D0022070478F
:102B30008168B1F5805F016A0BD04A1C02620268AD
:102B400009785160C18C491E0904090CC1840ED05A
:102B500017E009880268C1F3080151600169002982
:102B6000016A02D0491C0162ECE7891CFBE701689D
:102B7000CA6822F08002CA600068C16841F0400162
:102B8000C16000207047000010B5044800F078FDD7
:102B9000BDE810400148FFF72BBA0000D801002023
:102BA0000148FFF725BA000018020020FEE7FEE703
:102BB00002E008C8121F08C1002AFAD17047704706
:102BC000002001E001C1121F002AFBD17047000064
:102BD00008B500F0E4F9009000210948FEF78FF8ED
:102BE00048B1084B084A00210548FEF79AF8054904
:102BF0000548FDF76FFE0521684600F0C9F9EBE7CF
:102C0000B0010020A8010020984100202DE9F041EA
:102C100004462DED088B82B08846012000F0B1F902
:102C2000B4F90400FDF7AAFC9FED8D8B53EC182B33
:102C3000FDF732FC41EC190BB4F90200FDF79EFCE4
:102C400053EC182BFDF728FC41EC1A0BB4F90000EB
:102C50004042FDF793FC53EC182BFDF71DFC53ECA1
:102C60001A2BFDF772FB53EC192BFDF76EFB9FED52
:102C70007E9B53EC192BFDF70FFCFDF7AFFC7C4D51
:102C80002860B4F90400FDF779FC53EC182BFDF72C
:102C900003FC41EC1A0BB4F90200FDF76FFC53EC96
:102CA000182BFDF7F9FB41EC1B0BB4F90000FDF705
:102CB00065FC53EC182BFDF7EFFB53EC1B2BFDF7DA
:102CC00044FB53EC1A2BFDF740FB53EC192BFDF79B
:102CD000E3FBFDF783FC05F148063060B4F904001E
:102CE000FDF74CFC53EC182BFDF7D6FB41EC1A0B0F
:102CF000B4F90200FDF742FC53EC182BFDF7CCFBB6
:102D000041EC1B0BB4F90000FDF738FC53EC182B19
:102D1000FDF7C2FB53EC1B2BFDF7B8FB53EC1A2B52
:102D2000FDF713FB53EC192BFDF7B6FBFDF756FC33
:102D300005F190073860B4F90400FDF71FFC53EC6F
:102D4000182BFDF7A9FB41EC1A0BB4F90200FDF7B3
:102D500015FC53EC182BFDF79FFB41EC1B0BB4F952
:102D600000004042FDF70AFC53EC182BFDF794FBE2
:102D700053EC1B2BFDF78AFB53EC1A2BFDF7E5FAFE
:102D800053EC192BFDF788FBFDF728FC05F1D8045F
:102D900020603848C06B00EE100A3648B8EEC00A12
:102DA0004C3085ED010AC06B00EE100A3148B8EED8
:102DB000C00A983086ED010AC06B00EE100A2D485B
:102DC000B8EEC00AE43087ED010AC06B00EE100ACD
:102DD0002846B8EEC00A84ED010AFFF761FB3046D1
:102DE000FFF75EFB3846FFF75BFB2046FFF758FB1B
:102DF00094ED040ABDEEC00A10EE100A00B2009075
:102E000097ED040ABDEEC00A10EE100A96ED040A12
:102E100003B2BDEEC00A10EE100A95ED040A02B22C
:102E2000BDEEC00A10EE100A01B2134800F000FC1B
:102E300098F8170002280DD198F81800022809D137
:102E40009FED0E0A85ED000A86ED000A87ED000A67
:102E500084ED000A02B0BDEC088BBDE8F0810000F3
:102E6000333333333333B33F0000000000003240CC
:102E70008000002068400020B00100200000000019
:102E800008B500F08CF8009004490548FFF7BEFE35
:102E90000521684600F07CF8F6E700004E4000206F
:102EA0007400002000B585B0142206496846FDF77D
:102EB00028FA0021684600F088F80349486005B008
:102EC00000BD0000303D0008A001002000B585B025
:102ED000142206496846FDF714FA0021684600F0FE
:102EE00074F80349086005B000BD00001C3D0008EF
:102EF0007C00002038B50F48002100680268426855
:102F00000092C26842F01002C2600A4C0A4A94F869
:102F10003A0020280DD13223A262A385E163216803
:102F2000606B091DFEF7C0FA2068416941F040015D
:102F3000416138BDD80100203C400020EFF30580FE
:102F4000002800D001207047FEF7CCFBFFF758FBAC
:102F5000FFF7DCF9FFF7ACF9FFF77EF9FFF73EFA70
:102F6000FFF766FAFDF766FCFFF7C4FFFFF7B6F957
:102F700000F010F8FEE701460020842900D0C81CAC
:102F8000704710B500B9012000F08AFC002010BD88
:102F90008120704710B500F0A9FC002010BD10B5CD
:102FA000FFF7CCFF18B1BDE8104000F0CFBDBDE881
:102FB000104000F0C5BD10B500F0B4FD012803D0ED
:102FC000BDE8104000F06CBD10BD3EB504460D4696
:102FD000B0F90800FFF7CFFF02A9CDE90001208A70
:102FE0002B4682B2D4E9001000F070FD012801D018
:102FF00000203EBD02983EBD2DE9F041184C0F4621
:103000000546E6682068001D00F06AFB38B92068B4
:1030100090F82C1001208840216981432161681CAF
:1030200007D137B12168BDE8F0410E48091D00F015
:103030008FBB20683544B5424560216805D2A06B3E
:10304000BDE8F041091D00F06BBB606B091D00F08D
:1030500067FBA06A854200D2A562BDE8F08100004E
:1030600038000020D03F00202DE9F041054600F057
:103070007BFB2E4CA068401CA06020682C4F10B138
:10308000606940B32DE02560A068012829D10026A1
:1030900006EB860007EB800000F034FB761C072E61
:1030A000F6D323488C3000F02DFB2148A03000F0EF
:1030B00029FB1F48B43000F025FB1D48C83000F044
:1030C00021FB1B48DC3000F01DFB19488C3060638D
:1030D0001430A06305E02068E96AC06A884200D81D
:1030E0002560606A401C6062E96A012022698840AC
:1030F0001043206101EB810007EB8000291D00F0E7
:1031000027FB00F051FB606900280CD02068E96AB9
:10311000C06A884207D207494FF080500860BFF369
:103120004F8FBFF36F8FBDE8F081000038000020A3
:10313000F43E002004ED00E070B5114E114C17E094
:1031400000F008FC3068B8B100F06CFD00F00CFB3A
:10315000F068C568281D00F0C3FAA068401EA06092
:103160006068401E606000F01FFB284600F00CF80D
:1031700060680028E4D170BD00F054FDF8E700005D
:10318000BC3F00203800002010B50446006B00F062
:103190001FFB2046BDE8104000F01ABB10484FF45A
:1031A0007051420706D0C01D0D4920F00700411A9A
:1031B000C1F570510B4A00230144C2E900030839EC
:1031C000103A21F0070111604B600B600B1AC0E947
:1031D000001393604FF000405360D06070470000D0
:1031E000F402002024000020074C4FF08056074DC9
:1031F000FFF7A2FF20680128FAD92E60BFF34F8F96
:10320000BFF36F8FF4E70000F43E002004ED00E010
:103210002DE9F0479A46DDE9098481466FF0030302
:10322000206B03EB82021044089D20F00706700714
:1032300007D0502080F31188BFF34F8FBFF36F8FFB
:10324000FEE723180A5C83F834200A5C12B1401CA4
:103250001028F6D3002784F84370072D00D30625E5
:10326000E562C4E91157201D00F057FA04F1180077
:1032700000F053FA2461C5F107006462A061E764BD
:1032800084F8507052464946304600F0BFF820603E
:10329000B8F1000F01D0C8F80040BDE8F087000089
:1032A00030B5114900E011460A688242FBD34B68F1
:1032B0005C18844203D1406818444860084643685B
:1032C0001C18944209D1084C103C2468A24209D031
:1032D00052681A4442600A6812680260814200D053
:1032E000086030BD0460F9E7240000200648416B07
:1032F000096829B1416BC968C9684968816270472A
:103300004FF0FF31FAE7000038000020084840681D
:10331000401C4FF0500080F3118804D0BFF34F8F52
:10332000BFF36F8FFEE7BFF34F8FBFF36F8FFEE7E3
:103330002C0000202DE9F0410546002700F00AFB93
:10334000314E306808B9FFF729FFF06805424BD1CC
:10335000C5B3083568070ED005F00700C0F10800B6
:103360000544680707D0502080F31188BFF34F8FC2
:10337000BFF36F8FFEE72DB37068854234D82248C3
:10338000103001460C6801E020460C466168A942F5
:1033900002D221680029F7D131688C4224D0076815
:1033A0002168016060680837411B10290FD9601936
:1033B000420708D0502080F31188BFF34F8FBFF32E
:1033C0006F8FFEE710E041606560FFF769FF61689D
:1033D0007068401A7060B268904200D2B060F068C5
:1033E00001430020C4E9000100F01CFC780707D06D
:1033F000502080F31188BFF34F8FBFF36F8FFEE72C
:103400003846BDE8F08100001400002010B5031F0D
:103410004FF080741C601B1F21F001011960191FFF
:10342000044B0B6014390A60091F6FF00202443824
:103430000A6010BD0D3300082DE9F04104460888EC
:10344000C0F30A05A5F58065258048788A78C0080C
:1034500040EA4210C0F30A03A3F5806363808878D2
:10346000CA78800940EA82000A7905F5257540EAA4
:103470008220C0F30A02A2F58062A28008794E7908
:10348000400840EAC610C0F30A00A0F58060E08062
:103490008E7B06F00107C6F34006BE1BE6818E7BDD
:1034A000C6F38017C7EBD61626828E7BC6F3C007FD
:1034B000C6F38006BE1B66828E7BC6F3001606EB43
:1034C000C60707EB0616642707EBC606A682CE7B67
:1034D000A675002626816681A6814E79B609E67515
:1034E0004979C1F3011121764FF4A5618D420BD8C2
:1034F00003F525738B4207D802F525728A4203D85B
:1035000000F52570884203D919212046FCF712FFE7
:103510002046BDE8F04100F001B800002DE9F0417F
:1035200004462DED048BB0F90E20B0F91010B0F95F
:103530001200384D002A61D0E9B3E0B3B4F90000BD
:10354000002800DA404207B2B4F90200002801DA8C
:10355000414200E001460AB2B4F90410002900DA41
:1035600049429FED2D9B9FED2E8B0EB20A280ADB60
:1035700010FB02F0FDF702F853EC192BFCF78CFF5F
:1035800041EC100B03E0B0EE480AF0EE680A51EC93
:10359000100BFDF704F82880B4F900000A280BDBB3
:1035A00010FB07F0FCF7EAFF53EC192BFCF774FF54
:1035B00041EC100B04E021E0B0EE480AF0EE680A9E
:1035C00051EC100BFCF7EBFF6880B4F904000A28FB
:1035D0000BDB10FB06F0FCF7D1FF9FED131B53EC48
:1035E000112BFCF759FF41EC180B51EC180BFCF7B1
:1035F000D6FFA880BDEC048BBDE8F081A38A12FB46
:1036000003F22A8011FB03F16980962110FB01F07F
:10361000EFE7000074000020809F71E14048463FC2
:10362000000000000000000092CB7F48BF7D3D3FBE
:1036300030B589B00D0A8DF800508DF80110110ACF
:103640008DF802100446190A0C988DF804108DF8B4
:103650000530010A8DF806108DF803208DF807005B
:103660001822064902A8FCF74CFE01236A4602A96B
:103670002046FDF758FA09B030BD0000E43F0020B5
:1036800038B501680A68D20624D5CA68D20621D5A1
:1036900004460868486800900F4884421AD1606B5D
:1036A0000068016821F001010160606B00684068FA
:1036B00080B2202804D1094901F11200FFF7BCFEB5
:1036C000616B322009684860606B0068016841F0F6
:1036D0000101016038BD0000D80100203C400020FD
:1036E000D0E9013201699A60D0E901235A604A6841
:1036F000824201D182684A60002202610868401E4D
:103700000860704700F108014FF0FF32C0E9011274
:10371000C1600161002101607047002101617047B3
:1037200030B50B685A1C02D000F1080202E00269B1
:1037300004E02246546825689D42FAD953684B60DC
:1037400099608A60516008610168491C016030BD60
:1037500042684A6093688B60936859609160086121
:103760000168491C01607047502080F31188BFF345
:103770004F8FBFF36F8F0A494868401C486001288B
:103780000CD10848006810F0FF0F07D0502080F3DC
:103790001188BFF34F8FBFF36F8FFEE770470000B4
:1037A0002C00002004ED00E00849486828B1401EC4
:1037B000486001D180F311887047502080F3118850
:1037C000BFF34F8FBFF36F8FFEE700002C00002088
:1037D00070B5002827D0144DA0F108046168E8688E
:1037E000014207D1502080F31188BFF34F8FBFF300
:1037F0006F8FFEE722683AB1502080F31188BFF343
:103800004F8FBFF36F8FFEE78143616000F0A2F836
:1038100060686968084468602046FFF741FDBDE8BC
:10382000704000F0FFB970BD1400002006484FF44E
:103830007A710068B0FBF1F14FF0E020491E416160
:1038400007210161704700001000002010B5FCF74F
:1038500011FD114910280ED300F1E02090F8F0037B
:103860000A78904207D2502080F31188BFF34F8F1F
:10387000BFF36F8FFEE709480068896800F4E060D5
:10388000884207D9502080F31188BFF34F8FBFF3D0
:103890006F8FFEE710BD00002C0000200CED00E053
:1038A00010B5020014D00F48006B38B1502080F3DF
:1038B0001188BFF34F8FBFF36F8FFEE700F04AF818
:1038C00000211046FFF798FB00F0ACF9002807D163
:1038D00005494FF080500860BFF34F8FBFF36F8FE3
:1038E00010BD00003800002004ED00E01CB51548B4
:1038F0000024CDE900402346802213A1144800F0A3
:10390000E5F8012809D0401C1AD1502080F3118815
:10391000BFF34F8FBFF36F8FFEE7502080F3118806
:10392000BFF34F8FBFF36F8F06484FF0FF312C3836
:10393000816201214161C460BDE81C4000F040B8D3
:103940001CBD00006400002049444C4500000000FC
:10395000E93100080248016B491C0163704700000F
:10396000380000201448016B11B10121C16170477A
:103970000021C1610169B1FA81F1C1F11F0101EBBF
:1039800081020E4951F822306BB101EB820101F145
:1039900008034A6852684A609A4201D152684A60F4
:1039A000D16801607047502080F31188BFF34F8FBA
:1039B000BFF36F8FFEE7000038000020F43E0020C8
:1039C0001CB532480168324A914207D1502080F339
:1039D0001188BFF34F8FBFF36F8FFEE700682C494C
:1039E000491E884207D1502080F31188BFF34F8FC2
:1039F000BFF36F8FFEE7274908780190FF2008701A
:103A000008788DF800009DF800009DF8002000F077
:103A1000F000904207D0502080F31188BFF34F8F01
:103A2000BFF36F8FFEE79DF800001B4A00F05000C7
:103A300010700720906005E09DF800305B008DF865
:103A40000030401E9DF800301B06F5D4000200F443
:103A5000E0609060019808700C482030016841F4E3
:103A600070010160016841F070410160FFF7DEFE06
:103A700000205060FCF7C4FB0848016841F0404159
:103A80000160FCF7ADFB00201CBD000000ED00E074
:103A900071C20F4100E400E02C00002034EF00E090
:103AA00010B5502080F31188BFF34F8FBFF36F8F95
:103AB00000F054F818B104494FF08050086000201D
:103AC00080F3118810BD000004ED00E02DE9FF5FD8
:103AD0008346DDE90E87994616468A469000FFF731
:103AE00029FC05001AD05420FFF724FC040012D052
:103AF00025630021CDE90241CDE900874B463246DE
:103B000051465846FFF784FB2046FFF7ADFA0120E7
:103B100004B0BDE8F09F2846FFF75AFE4FF0FF3093
:103B2000F6E700000548416919B1006B18B10020A3
:103B300070470120704702207047000038000020C5
:103B40000148C068704700003800002010B5FFF73A
:103B50007DFE0148C06810BD380000202DE9F0410D
:103B60002E4C0027206B40B1A069401CA061E06989
:103B700000B101273846BDE8F081E668761CE660B2
:103B800013D1606B006838B1502080F31188BFF307
:103B90004F8FBFF36F8FFEE7606BA16B6163A06314
:103BA000206A401C2062FFF7A1FBA06ADFF870804A
:103BB000864209D3606B006880B1606BC068C568DD
:103BC000686886420DD2A0622068C06A00EB80015E
:103BD00058F821000128CAD90127C8E74FF0FF3063
:103BE000F1E7281DFFF77CFDA86A18B105F1180060
:103BF000FFF776FDE86A01212269814011432161C6
:103C000000EB800108EB8100291DFFF7A1FDE86AA8
:103C10002168C96A8842CDD30127CBE7380000204C
:103C2000F43E00202DE9F0472C4D00242746286B58
:103C300038B1FFF799FD286B401E2863286B40B10F
:103C400046E0502080F31188BFF34F8FBFF36F8F92
:103C5000FEE7A968224E0120D1B3A6F1B40980463F
:103C60003068E8B1F068C46804F11800FFF738FD67
:103C7000201DFFF735FDE06A2A6908FA00F11143BB
:103C8000296100EB800109EB8100211DFFF760FD38
:103C9000E06A2968C96A8842E2D3C5F81C80DFE778
:103CA0000CB1FFF723FBAC6944B14646FFF756FF62
:103CB00000B1EE61641EF9D10020A861E86938B155
:103CC0000849012738070860BFF34F8FBFF36F8F94
:103CD000FFF76AFD3846BDE8F08700003800002095
:103CE000A83F002004ED00E0443D0008F325000853
:103CF0000000000000000000800000000006101618
:103D0000000610160000000000000000010203047D
:103D1000060708090000000001020304503D0008E6
:103D2000812E0008030000000000000000010000D8
:103D30005C3D0008D12B00080300000000000000DB
:103D40000001000064656661756C745461736B00FA
:103D5000636861737369735461736B0063616E545C
:103D600061736B00843D000800000020B00100007A
:103D7000C4070008A83D0008B00100200844000066
:103D8000C02B00084132018210031D24F41AAA013D
:103D900001660315A04264409C4515484419251B43
:083DA00008D90409EA480000FB
:04000005080001AD41
:00000001FF
