:020000040800F2
:10000000904C00207D0200089F2D0008552B000811
:100010009D2D00081B080008F942000800000000A0
:10002000000000000000000000000000C101000806
:10003000490A00080000000015020008AF2F000860
:10004000970200089702000897020008970200082C
:1000500097020008A52F00089702000897020008E1
:10006000970200089702000897020008970200080C
:1000700097020008970200089702000897020008FC
:100080009702000897020008970200082908000854
:100090001D08000897020008970200089702000850
:1000A00097020008970200089702000897020008CC
:1000B00097020008A930000897020008970200087C
:1000C00097020008970200089702000897020008AC
:1000D00097020008453500089702000897020008BB
:1000E000970200089702000897020008970200088C
:1000F000970200089702000897020008970200087C
:10010000970200089702000897020008970200086B
:10011000970200089702000897020008970200085B
:1001200097020008810900088D090008970200085D
:10013000970200089702000897020008970200083B
:10014000970200089702000897020008C12D0008D6
:100150009702000899090008970200085D35000819
:10016000970200089702000897020008970200080B
:10017000970200089702000897020008000000009C
:1001800097020008970200089702000897020008EB
:1001900097020008970200089702000897020008DB
:1001A000000000000000000097020008DFF80CD0FB
:1001B00000F0F6FA0048004795460008904C0020F1
:1001C0002B4B19680868B0E8F04F80F30988BFF33B
:1001D0006F8F4FF0000080F311887047000000001F
:1001E00006480068006880F3088862B661B6BFF30D
:1001F0004F8FBFF36F8F00DF00BF00BF08ED00E03F
:10020000DFF80C00016841F470010160704700BF25
:1002100088ED00E0EFF30980BFF36F8F144B1A688D
:100220001EF0100F08BF20ED108A20E9F04F10607B
:1002300008B44FF0500080F31188BFF34F8FBFF325
:100240006F8F04F035FF4FF0000080F3118808BC79
:1002500019680868B0E8F04F1EF0100F08BFB0EC46
:10026000108A80F30988BFF36F8F704700BF00BF0B
:1002700038000020EFF305807047000006488047F3
:1002800006480047FEE7FEE7FEE7FEE7FEE7FEE77B
:10029000FEE7FEE7FEE7FEE755300008AD01000887
:1002A0002DE9F05F0546002092469B4688460646AB
:1002B000814640241BE0284641464746224600F03E
:1002C000B8F953465A46C01A914110D31146184600
:1002D000224600F09FF92D1A67EB01084F4622468F
:1002E0000120002100F096F917EB00094E41201E75
:1002F000A4F10104DFDC484631462A464346BDE806
:10030000F09F40EA01039B0703D009E008C9121FD0
:1003100008C0042AFAD203E011F8013B00F8013BBF
:10032000521EF9D27047D2B201E000F8012B491EEB
:10033000FBD270470022F6E710B513460A46044682
:100340001946FFF7F0FF204610BD2DE9FE4F80460D
:1003500081EA0300C00F0C46009021F0004123F019
:100360000045B8EB0200A94105D24046214690461F
:100370001C460B46024623F00040104347D0270D91
:10038000C7F30A00C3F30A510290401A01904028B3
:100390006BDAC3F3130040F4801B0098924620B13F
:1003A0000023D2EB030A63EB0B0B01985946C0F113
:1003B0004002504600F02EF906460D46504659467A
:1003C000019A00F046F910EB08006141002487EA29
:1003D000115284EAE7731A4340D0009A62B3019A3B
:1003E000012A4FEA075215DC001B61EB02014FF0B6
:1003F000004202EA0752CDE90042001C41F580119B
:1004000032462B4600F07DF903B0BDE8F08F404640
:100410002146F9E7001B61EB0201001C41F5801346
:1004200000185B412018A2F5001747EB030140EAD2
:10043000D570B6196D4111E06D084FEA360645EAF0
:10044000C0754FEA0752001B61EB0201001C41F529
:10045000801149084FEA30000019514132462B46BD
:1004600003B0BDE8F04F00F03DB900980122400014
:100470000023D0EB020263EBE073009821464FEAC1
:10048000E074B8EB000061EB0401E9E783F000439E
:100490005BE781F0004158E72DE9FE4F81EA030454
:1004A00004F0004421F0004100944FF0000B23F0D1
:1004B000004350EA01045ED052EA03045BD0C3F368
:1004C0000A54C1F30A552C44A4F2F3340194A0FB5E
:1004D0000254C1F3130141F48011C3F3130343F435
:1004E000801301FB024400FB034E840A970A44EA8E
:1004F000815447EA8357A4FB076802958D0A05FBE0
:1005000007854FEA932C04FB0C542705029D4FEA04
:10051000065847EA1637B5EB08056EEB070C870E51
:10052000920E47EA811742EA8312A7FB0201B6EB5B
:100530000B0164EB00042B0D43EA0C335E1844EB13
:100540001C50DA465146E7FB0201C5F313044FEA9B
:100550000B3343EA14534FEA0432019C43EA060387
:10056000A4F10C040294009CCDE900B400F0C9F899
:1005700003B0BDE8F08F00200146F9E70EB5C10FCA
:1005800080EAE0700844CA07002140F233438DE856
:100590000E000A460B4600F0B4F803B000BD70B57B
:1005A000C1F30A5201F000450024C1F3130140F2E7
:1005B000FF3341F480119A4201DA002070BD40F20D
:1005C00033439A42A2F2334203DC524200F031F844
:1005D00000E090402C43F1D0404270BD01F0004358
:1005E00030B421F0004150EA010206D00A0DA2F514
:1005F0006072C1F31301002A02DC30BC0020704796
:10060000440F44EAC104C100E01830BC00EBC25002
:1006100000F031B8202A04DB203A00FA02F1002071
:1006200070479140C2F1200320FA03F31943904030
:100630007047202A04DB203A21FA02F0002170479B
:1006400021FA02F3D040C2F120029140084319463A
:100650007047202A06DBCB17203A41FA02F043EA22
:10066000E07306E041FA02F3D040C2F1200291406B
:100670000843194670470029A8BF7047401C49002D
:1006800008BF20F00100704710B4B0FA80FC00FAF7
:100690000CF050EA010404BF10BC704749B1CCF122
:1006A000200421FA04F411FA0CF118BF01212143AE
:1006B0000843A3EB0C01CB1D4FEA00614FEA102069
:1006C00042BF002010BC704700EBC350104400290B
:1006D000A4BF10BC7047401C490008BF20F00100B7
:1006E00010BC704710B5141E73F1000408DA401CEA
:1006F00041F1000192185B411A4301D120F0010041
:1007000010BD2DE9F04D92469B4611B1B1FA81F230
:1007100002E0B0FA80F220329046FFF77BFF0446F9
:100720000F4640EA0A0041EA0B0153465A46084385
:1007300013D0114653EA010019D0C8F140025046C7
:10074000FFF777FF05460E46504659464246FFF7EB
:1007500061FF084305D0012004E020463946BDE88A
:10076000F08D0020054346EAE0762C4337430A9893
:100770006305E40AA0EB08000022FD0A44EA47549E
:100780000A3002D500200146E9E701051019694148
:10079000DDE9084500196941BDE8F04DA2E7000018
:1007A000064C074D06E0E06840F0010394E80700BE
:1007B00098471034AC42F6D3FFF7FCFCB054000865
:1007C000D054000870B58C1810F8015B15F00703C1
:1007D00001D110F8013B2A1106D110F8012B03E0DA
:1007E00010F8016B01F8016B5B1EF9D12B0705D4E2
:1007F0000023521E0DD401F8013BFAE710F8013B2B
:10080000CB1A921C03E013F8015B01F8015B521E46
:10081000F9D5A142D8D3002070BDFEE7014800F011
:100820001FBB0000B4010020014800F019BB00000C
:10083000B401002070B520481E4900240160032146
:10084000C0E901144FF40021C0E903414FF4401105
:100850004161047644768476C47604770125457731
:1008600000F0FCFB18B11F2114A003F046FD18484E
:100870004FF4007140F2FF128460016008210161B1
:10088000183084600260C0E90341183001460562F7
:10089000C0E906450461046044604461064800F014
:1008A000C9F90421044800F04CF9BDE87040024841
:1008B00000F09CBC00640040B40100202E2E5C427D
:1008C00053505C6273705F63616E2E6300000000C2
:1008D000BC460020094A10B5D2F81822D2F81422DA
:1008E0000AB1012010BD0A460146044802F042FE4A
:1008F000BDE81040014802F045BE0000B8030020EA
:100900001A4B30B40A461968491C19600368A3F2EF
:100910000123042B27D2DFE803F0020A121A32293E
:1009200002D80146124816E01146114818E0322953
:1009300002D801460F480EE011460E4810E0322959
:1009400002D801460C4806E011460B4808E032295F
:1009500004D80146094830BC00F0E8B80748114601
:1009600030BC00F073B830BC70470000A00100201C
:10097000404700208C470020D84700202448002012
:10098000014800F079BC0000BC020020014800F0E2
:1009900073BC00005C020020014800F06DBC000048
:1009A0001C03002001681823CAB2103AB2FBF3F20C
:1009B000054B6FF30901032A9B5CC36500D9091D30
:1009C00081650846704700004854000810B501468C
:1009D00000208B698A6A4FF0C07453B1B3F5005F91
:1009E00015D072B1012A0CD0022A0AD0032A09D1EB
:1009F00004E01AB1012A06D0022A03D1C96AC9014A
:100A000000D5012010BDC96AA142FAD010BD002A4C
:100A1000F7D0012AF2D0022AF3D0032AF3D010BD76
:100A200030B50468256825F4802525600468636076
:100A30008368402B036803D099600068C26030BDB2
:100A40009A600068C16030BD7047000030B5002377
:100A500004681A464460098849BA0160016844681C
:100A6000091BC1602E491C460968322901D2C461A4
:100A700019E0C16841F65835E94206DA816B491C34
:100A80008163C16801F500510CE0C16841F6583539
:100A9000A94206DD816B491E8163C168A1F5005141
:100AA00000E0C168C1610168856B01EB453181607F
:100AB00001688569DFED1B0A491B00EE101AB8EECC
:100AC000C00A20EE200ADFED180A20EE200A80ED91
:100AD000100AC16900EE101A017DB8EEC00A00EBE1
:100AE0008105491C017585ED080A017D062900D1A3
:100AF000047500EE102A00EB83015B1CB8EEC00AFF
:100B0000D1ED080A062B30EE800ABDEEC00A10EEC9
:100B1000102AEEDB062192FBF1F1C16330BD00002B
:100B2000A00100200000B44300000039118849BA38
:100B3000816181698160816941600169491C01614C
:100B4000704790F82020012A09D090F82020022A2E
:100B500005D0416A41F4802141620120704700685C
:100B600042690A43426100207047F0B590F8204086
:100B7000012C07D090F82040022C03D0416A41F4A8
:100B8000802153E00468A5686D0105D4A5682D0196
:100B900002D4A568ED0046D5A4680125C4F301641C
:100BA000A5401D608D684FF4C0739DB1CE6835437C
:100BB0004E6845EAC605066803EB0417F5514FF485
:100BC000C275076805EB04150E697E51097D012980
:100BD00005D009E00E88CD6845EA4655EBE7016887
:100BE0004E5946F480764E511179D2F805504FF4A3
:100BF000C67641EA0521056806EB0416A95111786D
:100C0000D2F801204FF4C47541EA0221026805EBD5
:100C100004155151006803EB0411425842F00102DF
:100C200042500020F0BD416A41F4001141620120B0
:100C3000F0BD000010B590F82020012A09D090F8EE
:100C40002020022A05D0416A41F48021416201201E
:100C500010BD3A48D0F8002242F00102C0F800224C
:100C6000D0F8002222F47C52C0F80022D0F80022F2
:100C70004B6A42EA0322C0F800220B7D01229A400F
:100C8000D0F81C329343C0F81C32CB69B3B9D0F80A
:100C90000C329343C0F80C328C894B6864F31F43C9
:100CA0004C6900EBC404C4F840320C890B6864F34F
:100CB0001F434C6900EBC404C4F84432CB69012BD8
:100CC00016D1D0F80C321343C0F80C320C884B68A4
:100CD00064F31F434C6900EBC404C4F840320C8930
:100CE000CB6864F31F434C6900EBC404C4F844327E
:100CF0008B69002BD0F804320ED01343C0F80432B5
:100D00000B69002BD0F8143208D01343C0F814320A
:100D1000096A012904D008E09343EFE79343F5E71C
:100D2000D0F81C121143C0F81C12D0F8001221F0A8
:100D30000101C0F80012002010BD00000064004056
:100D4000704790F820300022012B03D090F820301B
:100D5000022B04D1006821B1006900F003021046A3
:100D60007047C068F9E730B590F82040012C07D0F3
:100D700090F82040022C03D0416A41F4802109E020
:100D800011B1012909D00CE00468E46807E0416A68
:100D900041F400114162012030BD04682469A407B8
:100DA000F5D04FF4D874056804EB01142D5915F0F3
:100DB0000405956005682D5942D0ED085560056819
:100DC0002C59C4F34004D4604FF4DA74056804EB82
:100DD00001142D5905F00F05156105682D59C5F34E
:100DE0000725956105682C59240C54614FF4DC7279
:100DF000046802EB0112A4581C700468A458240A69
:100E00005C700468A458240C9C700468A258120EEC
:100E1000DA704FF4DE72046802EB0112A4581C7100
:100E20000468A458240A5C710468A458240C9C71BA
:100E30000468A258120EDA7129B1012909D00DE017
:100E40006D0D1560BBE70068C16841F02001C1600D
:100E500004E00068016941F020010161002030BD1B
:100E60002DE9F05F0546006800244669D0F804903B
:100E70008768D0F80CB0D0F810A0D0F81880F1072F
:100E800048D0F90714D001218160B80703D528465E
:100E900000F0D9F90CE0780702D54FF4006407E0C0
:100EA000380702D54FF4805402E0284600F0CAF912
:100EB000F80516D529684FF480708860B80503D509
:100EC000284600F0C2F90CE0780502D544F400543D
:100ED00007E0380502D544F4804402E0284600F0DB
:100EE000B3F9F80316D529684FF480308860B80349
:100EF00003D5284600F0ABF90CE0780302D544F4A2
:100F0000004407E0380302D544F4803402E0284668
:100F100000F09CF9300707D55FEACB6004D529685B
:100F2000102044F40074C86070074FF0080707D51C
:100F30005FEA0B7004D52868C760284600F050F9B6
:100F4000B00706D52868C068800702D0284600F0A0
:100F500048F9700607D55FEACA6004D529681020F1
:100F600044F480640861B00607D55FEA0A7004D5CE
:100F700028680761284600F035F9F00606D528688C
:100F80000069800702D0284600F02DF9B00308D58B
:100F90005FEAC96005D5296810204860284600F03E
:100FA00023F9F00307D55FEA097004D52868476084
:100FB000284600F04DF9300446D55FEA497040D527
:100FC000F00504D55FEAC87001D044F00104B00513
:100FD00004D55FEA887001D544F00204700504D599
:100FE0005FEA487001D544F00404300529D518F0B3
:100FF000700F26D008F07000402815D006DC1028AD
:1010000009D020280AD0302816D10AE050280ED066
:10101000602811D10EE044F008040DE044F0100403
:101020000AE044F0200407E044F0400404E044F007
:10103000800401E044F480742868816921F0700123
:101040008161296804204860002C05D0686A20432B
:1010500068622846FFF774FEBDE8F09F70B5040093
:1010600003D094F8200010B104E0012070BD2046A8
:1010700000F082F82068016821F00201016000F0B0
:1010800045FB0546052604E000F040FB401B0A280E
:1010900011D8206840688007F6D42068016841F0C4
:1010A0000101016000F032FB05460BE000F02EFB71
:1010B000401B0A2806D9606A40F40030606284F858
:1010C0002060D2E720684068C007EFD0207E01286A
:1010D000206801683DD021F080010160607E012818
:1010E0002068016838D021F040010160A07E01280D
:1010F0002068016833D021F020010160E07E0128E2
:10110000206801682ED041F010010160207F012885
:101110002068016829D021F008010160607F012862
:101120002068016824D021F004010160D4E90201A3
:101130000843D4E90412114308436168491E084377
:101140002168C86100206062012084F8200000202E
:1011500070BD41F08001C0E741F04001C5E741F0BA
:101160002001CAE721F01001CFE741F00801D4E7E0
:1011700041F00401D9E7000000B50068154987B0C7
:10118000884225D114480021026842F000720260B2
:101190000068022200F0007005900320CDE90210E3
:1011A000CDE900020920049069460C4800F0C2F91C
:1011B00000220521132000F061FB132000F052FBF8
:1011C00000220521142000F059FB142000F04AFBF6
:1011D00007B000BD0064004040380240000C0240EF
:1011E00070477047704770477047000070B50446FD
:1011F00090F82000012804D0606A40F4002060626A
:1012000018E0022084F820002068016821F0010124
:10121000016000F07BFA05460EE000BF00F076FAB0
:10122000401B0A2808D9606A40F40030606205203B
:1012300084F82000012070BD20684068C007EDD10F
:10124000606270BD70477047704770477047704765
:10125000704790F83510022903D0802141650120A4
:101260007047052180F835100068016821F0010100
:1012700001600020704700002DE9F84304464FF05C
:101280000009CDF8009063484FF41651A56D006831
:10129000B0FBF1F72E6894F85C10082000FA01F119
:1012A00031420FD021680A6852070BD50A6822F034
:1012B00004020A6094F85C108840A860606D40F0F9
:1012C0000100606594F85C104FF0010808FA01F025
:1012D000304208D021684969090604D5A860606DCC
:1012E00040F00200606594F85C10042088403042B1
:1012F00008D021680968890704D5A860606D40F0AE
:101300000400606594F85C1010208840304218D0CA
:1013100021680968090714D5A86020680168490395
:1013200004D50068000308D5A16C07E00168C90571
:1013300003D4016821F008010160216C09B1204645
:10134000884794F85C1020208840304231D02168D2
:101350000968C9062DD5A86094F8350005282068CD
:10136000016806D0490347D5006800031DD4616CAD
:101370001CE021F0160101602068416921F0800124
:101380004161206C08B9A06C20B12068016821F08F
:101390000801016094F85C103F208840A86084F840
:1013A000349084F83580216D1FE0E16B09B120464F
:1013B0008847606D00282BD0606DC00714D00520D1
:1013C00084F835002068016821F00101016000986F
:1013D000401C0090B84203D820680068C007F6D1CE
:1013E00084F8349084F83580E16C002910D001B085
:1013F0002046BDE8F04308470168C905D5D4016817
:1014000021F01001016084F8349084F83580CCE735
:10141000BDE8F883100000202DE9F041044600F0FB
:1014200075F906465CB1002584F83450022084F832
:1014300035002068016821F0010101600DE0012004
:10144000BDE8F08100F062F9801B052805D9202055
:101450006065032084F83500F2E720680068C00763
:10146000F0D12268116820480140D4E901031843F3
:10147000D4E903363343184363691843A369184317
:10148000E3691843236A18430843616A042903D1B6
:10149000D4E90B1319430843106020684069666A59
:1014A00020F0070130460E43012704280CD1A06A22
:1014B0000643E06A40B12046FFF788FA20B1402099
:1014C000606584F83570BAE7206846612046FFF70A
:1014D00069FA94F85C203F2191408160656584F849
:1014E00035700020ACE700003F8010F070B5044676
:1014F00090F83400002501280CD0012084F8340035
:1015000094F835600020012E06D084F834000225BE
:10151000284670BD022070BD022684F835606065E3
:101520002046FFF77DFA2068016841F00101016063
:10153000EEE700002DE9F84FDFF890B100224FF000
:1015400001084FF0030A4FF00F090BF1040E00BF22
:101550000B6808FA02F42340A3426ED14D68022DB5
:1015600001D0122D0ED1D50800EB850CDCF82050EF
:101570005607F70E09FA07F6B5430E69BE402E432B
:10158000CCF82060066855000F790AFA05FC07F0D0
:10159000030726EA0C06AF40374307604E68012E6A
:1015A00005D0022E03D0112E01D0122E0ED1876845
:1015B000CE6827EA0C07AE403E4386604668A643E5
:1015C0000C79C4F30014944034434460C4688E68BA
:1015D00024EA0C04AE402643C6604C68E4006FD594
:1015E0003B4C256845F480452560246822F00305BE
:1015F00004F480440094374C2E19D6F80848950717
:101600002F0F09FA07F5AC43334DA84201D100254D
:101610002EE0324DA84201D1012529E0304DA842EB
:1016200001D1022524E02F4DA84201D103251FE05E
:101630002D4DA84202D104251AE041E02B4DA842CD
:1016400001D1052514E02A4DA84201D106250FE05D
:10165000284DA84201D107250AE0274DA84201D113
:10166000082505E0254DA84201D1092500E00A25FD
:10167000BD402543C6F80858DBF800405D464E687B
:101680009C43F60300D51C432C60DEF800407546F1
:101690004E689C43B60300D51C432C600B4D0835A7
:1016A0002C684E689C43F60200D51C432C60074D05
:1016B0000C352C684E689C43B60200D51C432C6048
:1016C000521C102AFFF444AFBDE8F88F003C0140E3
:1016D0004438024000300140000002400004024053
:1016E00000080240000C02400010024000140240BA
:1016F00000180240001C024000200240002402406A
:101700000AB1816170470904FBE700000148806865
:1017100070470000040000200248816802781144EC
:1017200081607047040000200B4810B5016841F447
:1017300000710160016841F480610160016841F459
:1017400080710160032000F0B9F8002000F006F875
:1017500000F03EF8002010BD003C024010B50146EC
:1017600088B000221D2000F089F81D2000F07AF8D2
:1017700013480024016841F002010160006805A9D6
:1017800000F002000690684600F0F0FC00F014FD46
:101790000C494000B0FBF1F10C480B4A491E0260B5
:1017A00040F2E732C0E90324C0E9011400F006FF6B
:1017B00010B1012008B010BD044800F01BFFF9E78C
:1017C0004038024040420F00000400407C030020EB
:1017D000234808B5016841F480410160006800F4C5
:1017E000804000901E48001F016841F08051016058
:1017F000006800F080500090032000F05FF80022A5
:1018000011466FF00B0000F039F8002211466FF01E
:101810000A0000F033F8002211466FF0090000F0D2
:101820002DF800221146501F00F028F80022114622
:10183000101F00F023F800220F21901E00F01EF868
:1018400000220F21501E00F019F805210022084641
:1018500000F014F8BDE80840052000F003B80000CF
:101860004438024000F01F020121914040098000ED
:1018700000F1E020C0F8001170470000F0B40E4BFA
:101880001B680C46C3F30223C3F10705042D00D9DE
:101890000425191D072901D2002300E0DB1E0126C3
:1018A00006FA05F1491E214099409E40761E1640D9
:1018B0003143F0BC01F074BA0CED00E0064900F0D1
:1018C000070208684FF6FF03184040EA0220034A67
:1018D00010430860704700000CED00E00000FA05BE
:1018E000D0F8EC0301F0B5BFC1EBC10200EB8202FE
:1018F000D0F8EC03526C01F022BFC1EBC10200EB47
:101900008202D0F8EC03D2F8042201F06DBFD0F8C7
:10191000EC0301F0A0BF70B50A460446090602F0C8
:101920007F0005D5C0EBC00104EB8101383105E033
:10193000C2EBC20104EB810101F5FC7100258D7041
:101940000870D009487094F8B803012809D0012024
:1019500084F8B803206802F0CEFA84F8B853002067
:1019600070BD022070BD70B504460D460E0601F034
:101970007F00C0EBC00104EB810101D5383101E0EB
:1019800001F5FC71ED0908704D708A60CB7000D0D4
:10199000C8800025022B00D10D7194F8B8030128EE
:1019A00009D0012084F8B803206802F08BF928469A
:1019B00084F8B85370BD022070BD70B50C4601F0BC
:1019C0007F05C5EBC50100EB8101C1F80C32C1F800
:1019D00004220023C1F8103281F8F93181F8F8515E
:1019E000036901F5FC71012B00D10A616206027CDA
:1019F000006803D002F0E0FA002070BD02F0BCF9EC
:101A0000FAE770B50D460446090605F07F0005D5D6
:101A1000C0EBC00104EB8101383105E0C5EBC50125
:101A200004EB810101F5FC7101228A700870E8095C
:101A3000487094F8B803012807D084F8B8232068C8
:101A400002F08BFA680602D007E0022070BD217C0C
:101A500004F56F72206802F02FFA002084F8B803B2
:101A600070BD70B50C4601F07F05C5EBC50100EBFC
:101A70008101CB644A6400230B65012381F839306E
:101A800001F8385F0369012B00D10A616206027C0C
:101A9000006803D002F090FA002070BD02F06CF9EB
:101AA000FAE700002DE9F84F0446006800260546D5
:101AB00002F0C0FB002875D1206802F0E4FB00288A
:101AC00070D0206802F0DFFB800704D520684169F0
:101AD00001F002014161206802F0D5FB010304F529
:101AE0006F704FF0010B4FF0000A00904DD5206849
:101AF00002F0ABFB074646E0F80742D0F1B220689F
:101B000002F0B9FB8046C00728D005EB4612C2F8A8
:101B100008BB2069012811D1C6EBC60004EB800187
:101B2000D2F8102BD1F80002C2F31202821AC1F8C7
:101B30001022D1F804221044C1F80402F1B2204668
:101B4000FFF7DBFE2069012808D13EB9D4F80C026A
:101B500020B920680121009A02F0AEF95FEA08700E
:101B600007D5204600F04AFA05EB46110820C1F8D7
:101B7000080B5FEAC86004D505EB46111020C1F8D8
:101B8000080B7F08761C002FB6D1206802F07BFB83
:101B900040034FF040095ED5206802F04FFB074636
:101BA000002656E0D2E1F80751D0F1B2206802F0E9
:101BB00053FB8046C00724D0D5F834280BFA06F032
:101BC0008243C5F8342805EB4610C0F808B92069EF
:101BD000012807D1C6EBC60004EB8000D0E9101243
:101BE00011444164F1B22046FFF77EFE20690128CE
:101BF00007D136B9E06C20B920680121009A02F0C3
:101C00005BF95FEA087004D505EB46110820C1F8BE
:101C100008095FEAC86004D505EB46111020C1F839
:101C200008095FEA486003D505EB4611C1F8089939
:101C30005FEA887004D505EB46110220C1F8080957
:101C40005FEA086003D53146204601F0BFF87F08FF
:101C5000761C002FA7D1206802F015FB00280DDAB2
:101C6000D5F8040820F00100C5F80408204600F06B
:101C7000ABF92168486900F000404861206802F033
:101C800002FB00050BD5D5F80808C00702D0204696
:101C900000F0BCF92068416901F4006141612068ED
:101CA00002F0F1FAC0044CD5D5F8040820F0010088
:101CB000C5F804081021206802F08CFA0020FF21EA
:101CC00007E000BF05EB4012C2F80819C2F8081B74
:101CD000401C62688242F5D84FF0FF30C5F8180802
:101CE000D5F81C0840F00110C5F81C08206B60B145
:101CF000D5F8840840F00B00C5F88408D5F84408EE
:101D000040F00B00C5F844080BE0D5F8140840F08B
:101D10000B00C5F81408D5F8100840F00B00C5F802
:101D20001008D5F8000820F4FE60C5F80008217CF2
:101D30002068009A02F0C0F82168486900F48050D9
:101D40004861206802F09FFA80047DD5206801F088
:101D5000F9FF2068C16821F47051C160206802F069
:101D60004BFA78B10320C4F81490E06000F01EFA3A
:101D70007749784A014491420AD22068C16841F407
:101D8000705158E04FF40070C4F80CA0606136E068
:101D90007149724A0144914204D22068C16841F4F9
:101DA000605148E06E496F4A0144914204D2206874
:101DB000C16841F450513EE06B496C4A0144914284
:101DC00004D22068C16841F4405134E06849694A4E
:101DD0000144914204D22068C16841F430512AE0A4
:101DE0006549664A0144914204D22068C16841F4C1
:101DF000205120E06249421862498A4204D2206898
:101E0000C16841F4105116E05F49604A01449142B3
:101E100004D22068C16841F400510CE05C490844D8
:101E20005C4988422068C16803D241F4E05102E075
:101E30000AE041F4C051C160204600F0B5F82068C6
:101E4000416901F400514161206802F01CFAC006AA
:101E500036D52168886920F010008861D5F8208087
:101E600008F00F00C0EBC00004EB8007C8F343404C
:101E700007F5FC77022802D0062812D01BE047F6AF
:101E8000F07018EA000F16D0C8F30A1290462846E0
:101E9000F96802F0FCF9F8684044F860B869404419
:101EA00008E008222846009902F0F1F9B969C8F360
:101EB0000A100844B8612068816941F0100181610D
:101EC000206802F0E0F9000707D5204600F080F80E
:101ED0002068416901F008014161206802F0D3F9EE
:101EE000C00208D5F1B2204600F056F820684169DA
:101EF00001F480114161206802F0C5F9800208D523
:101F0000F1B2204600F04CF82068416901F400115C
:101F10004161206802F0B7F9400007D52046FFF77D
:101F2000DFFC2068416901F080414161206802F0D6
:101F3000AAF940070AD520684568680702D52046F7
:101F4000FFF7E5FC2068416829434160BDE8F88F50
:101F5000405327FF00350C00401E1BFF40420F007E
:101F600000DC0BFF804F1200808CF9FE20D613009E
:101F700060B6E5FE60E3160000D3CEFE40771B009E
:101F8000C05BB3FEC091210000CA91FE20753800ED
:101F9000E05459FEE09C4100D0F8EC0301F076BC1F
:101FA000D0F8EC0301F074BC10B50446C068012100
:101FB00000B90021D4F8EC0301F0C0FCD4F8EC0324
:101FC000BDE8104001F089BCD0F8EC0301F0A4BCDE
:101FD000D0F8EC0301F0A6BC10B5044690F8B803A5
:101FE000012809D0012084F8B803206802F05FF9C5
:101FF000002084F8B80310BD022010BDD0F8EC23F7
:1020000000F56F71104601F0ACBC000010B504463D
:10201000D0F8EC0301F0E2FC2068D0F8001E41F09B
:102020000101C0F8001E206A002804D0024801689F
:1020300041F00601016010BD10ED00E02DE9F04710
:102040000E46050065D0DFF81481D8F80000F7B21D
:1020500000F00F00B04207D288F80070D8F80000F6
:1020600000F00F00B04254D128683D4C810712D5D2
:10207000400703D5206840F4E0502060287800072E
:1020800003D5206840F4604020602068A96820F0F3
:10209000F000084320602878C0072DD030496868D8
:1020A0000839012812D0022813D0032811D009685A
:1020B000890700292DDA216821F0030101432160FD
:1020C000FFF724FB814641F2883A0EE00968890354
:1020D000EFE709688901ECE7FFF718FBA0EB0901BE
:1020E000514502D90320BDE8F0872068696800F0F7
:1020F0000C00B0EB810FEFD1D8F80010404601F092
:102100000F01B14207D90770006800F00F00B0421C
:1021100001D00120E7E72878400705D52068E96865
:1021200020F4E050084320602878000706D5206896
:10213000296920F4604040EAC100206000F05CF8AA
:102140002168084AC1F30311515CC8400649086080
:102150000020FFF703FB0020C5E70000003C024021
:102160000838024050540008100000200F2202607E
:102170000C4A136803F003034360136803F0F00391
:102180008360136803F4E053C36012684FF4E053B4
:1021900003EAD20202610448006800F00F00086000
:1021A0007047000008380240003C024001480068C7
:1021B00070470000100000200448054900680968C5
:1021C000044AC1F38221515CC840704710000020CE
:1021D000083802406054000804480549006809684E
:1021E000044AC1F34231515CC840704710000020DE
:1021F0000838024060540008154810B5006810F017
:102200000C02144813D01449042A0FD0082A0ED106
:102210000F4C241F2268236802F03F025B0207D59F
:102220002068C0F38810A0FB010106E0084610BD3D
:102230002168C1F38811A1FB00010023FEF730F8EB
:102240002168C1F30141491C4900B0FBF1F010BD08
:10225000083802400024F400001BB7002DE9F84FB5
:10226000050076D02878DFF8F8B2BE4CC00749D018
:10227000DBF800105846C1F38101012908D000683D
:10228000C0F3810002280AD1201D0068400206D553
:102290002068800336D568680028E2D032E068689C
:1022A000B0F5803F10D0B0F5A02F206810D020F4FA
:1022B00080302060206820F4802020606868A0B111
:1022C000FFF724FA06460CE0206840F48030F4E77B
:1022D00040F480202060F7E7FFF718FA801B64289D
:1022E00073D820688003F7D50CE0FFF70FFA064695
:1022F00005E000BFFFF70AFA801B6428F0D82068C9
:102300008003F7D42878DFF8608280074FF0000957
:102310003ED5DBF80010584611F00C0F09D00068CC
:10232000C0F3810002280BD18D48001F00684002D5
:1023300006D42068800715D5E868012809D111E086
:10234000E868B8B10120C8F80000FFF7DFF90646D9
:1023500005E002E1FFF7DAF9801B0228C0D8206807
:102360008007F7D52068296920F0F80040EAC1000D
:1023700020600DE0C8F80090FFF7C8F9064604E0B9
:10238000FFF7C4F9801B02281FD820688007F7D404
:102390002878000722D5724E744869696C3671B18D
:1023A00001210160FFF7B2F9074604E0FFF7AEF93B
:1023B000C01B022809D830688007F7D50EE0C0F8A6
:1023C0000090FFF7A3F9074605E083E0FFF79EF9C9
:1023D000C01B02287ED830688007F7D428784007D1
:1023E00068D5DFF87CA100270AF1380ADAF8000086
:1023F000C0000BD4DAF8001041F08051CAF8001088
:10240000DAF80000012700F080500090584E306844
:10241000C00510D4306840F480703060FFF776F962
:10242000009005E0FFF772F90099401A022851D890
:102430003068C005F6D54A4EA868683601280FD026
:102440000528306810D020F001003060306820F09E
:1024500004003060A868B8B1FFF758F900900FE0A9
:10246000306840F00100F4E740F004003060F7E726
:10247000FFF74CF90099411A41F28830814264D843
:1024800030688007F4D50EE0FFF740F9009007E0D0
:10249000FFF73CF90099411A41F28830814254D843
:1024A00030688007F4D42FB1DAF8001021F08051A1
:1024B000CAF80010A869C0B3DBF80010C1F38101AD
:1024C00002294AD00228484607D0C8F86000FFF722
:1024D0001DF900E039E005463AE04746C8F86000DB
:1024E000FFF714F9064604E0FFF710F9801B0228F5
:1024F0002BD820688001F7D4D5E907010843A96AE1
:102500001C4A490802EB01416A6A41EA8211084308
:1025100095F82C1040EA01611148001F016001206C
:102520003866FFF7F3F8054605E014E0FFF7EEF82C
:10253000401B022809D820688001F7D50BE000BFB6
:10254000FFF7E4F8401B022802D90320BDE8F88F0A
:1025500020688001F4D40020F8E70120F6E70000AD
:10256000083802400038024000004742800E4742CF
:10257000007000400000FFFF4FF0E02104280869D0
:1025800003D020F004000861704740F00400FAE72F
:1025900010B5401EB0F1807F01D3012010BD4FF077
:1025A000E02460610F21601700F0FAFB0020A061B9
:1025B00007202061002010BD7047704710B504004F
:1025C00003D094F8390010B107E0012010BD0020BD
:1025D00084F83800204600F00CF8022084F8390016
:1025E000211D206800F066FD012084F839000020DC
:1025F00010BD70470168CA6842F00102CA600068F5
:10260000016841F00101016000207047704770B51A
:102610000446006801694FF00005C943890715D4D5
:10262000C168C943890711D4E91E016101202076E0
:10263000206880698007204602D0FFF7E7FF04E0AA
:1026400000F098F8204600F096F825762068016999
:10265000C943490717D4C168C943490713D46FF068
:1026600004010161022020762068806910F4407F17
:10267000204602D0FFF7CAFF04E000F07BF82046B6
:1026800000F079F8257620680169C943090716D456
:10269000C168C943090712D46FF008010161042021
:1026A00020762068C0698007204602D0FFF7AEFF81
:1026B00004E000F05FF8204600F05DF82576206821
:1026C0000169C943C90617D4C168C943C90613D4EF
:1026D0006FF010010161082020762068C06910F4B5
:1026E000407F204602D0FFF791FF04E000F042F85F
:1026F000204600F040F8257620680169C943C907E3
:1027000008D1C168C943C90704D1891E01612046A7
:1027100000F032F820680169C943090609D4C1688C
:10272000C943090605D46FF0800101612046FFF717
:1027300043FF20680169C943490609D4C168C943F8
:10274000490605D46FF040010161204600F01EF8F3
:1027500020680169C94389060BD4C168C943890649
:1027600007D46FF0200101612046BDE87040FFF7FB
:1027700024BF70BD7047704700680349884201D18B
:10278000FEF7CABF70470000000400407047704762
:1027900030B401680A68D2060A6864D54968416B9A
:1027A000384A096891420AD0374A914207D0354ADF
:1027B0006032914203D0344A6032914201D12022EA
:1027C00022E0304B1833DA1499421DD02E4B1833C7
:1027D000994219D02B4B7833994215D02A4B783334
:1027E000994211D0274B9202303399420CD0264B9C
:1027F0003033994208D0234B9033994204D0224B76
:102800009033994200D092010B6823F001030B60D2
:10281000416B1D4B09684833994202D91A49091F77
:1028200005E0184BA833994203D9174908390A60C3
:1028300008E0144C134B4834103BA14201D9DA6034
:1028400000E09A60426B818D13685B68CB1AC38588
:1028500012685160416B09680A6842F001020A601F
:1028600030BC00F0E3BC52060AD56FF040020A60AB
:102870000168CA6822F04002CA60202180F839103D
:1028800030BC7047106002401064024070B50268AE
:1028900004461068D168536910F00F0F50D003F050
:1028A000010501F4907635435DD0C20705D0CA0515
:1028B00003D5E26B42F00102E263420705D5DA0775
:1028C00003D0E26B42F00202E263820705D5DA0729
:1028D00003D0E26B42F00402E263020705D5DA0797
:1028E00003D0E26B42F00802E263E26B002A33D0CD
:1028F000800604D5880602D5204600F051FC2068E9
:102900004069E16BC0F38010090700D428B320466A
:1029100000F038FC2068416949061AD5416921F068
:1029200040014161606BA0B11B490165606BFEF71E
:1029300090FC002810D0606B016DBDE87040084726
:10294000830610D58B060ED52046BDE8704000F0FA
:1029500027BC2046FFF71BFF70BD2046FFF717FF7F
:102960000020E06370BD030606D50B0604D52046A3
:10297000BDE8704000F0B4BD4006F3D54806F1D57F
:10298000D168204621F04001D160202184F839101F
:1029900000F0DFF870BD00007531000870B504006C
:1029A00004D094F83900002510B106E0012070BD74
:1029B00084F83850204600F023F8242084F83900A9
:1029C0002068C16821F40051C160204600F032FC4B
:1029D0002068016921F4904101612068416921F07A
:1029E0002A0141612068C16841F40051C160E5637A
:1029F000202084F8390084F83A00002070BD0000DF
:102A00002DE9F041064605684748DFF818C1022164
:102A1000012203230024071586B065452ED10568E1
:102A200045F010050560006800F010000590C0201A
:102A30008DE80F000720049069463C48FEF77AFDB8
:102A40003C4D3B4828607804C5E90104C5E90347CB
:102A50006C61AC61EC612C6228466C62FEF7DCFCB8
:102A600018B18E2134A001F048FC75630022114694
:102A70002520AE63FEF702FF25204EE0DFF8C8C038
:102A800065454CD1056845F020050560006800F0FB
:102A9000200005904FF484408DE80F00082004903A
:102AA00069462A48FEF746FD224D21486035183810
:102AB00028604FF02068C5E90184C5E903476C61CF
:102AC000AC61EC612C6228466C62FEF7A5FC18B183
:102AD000BB2119A001F011FC7563AE63154D1448BC
:102AE000C0356030E5E80208402091C5114845F83E
:102AF0001449C030AC61EC612C626C62FEF78CFC56
:102B000018B1CD210CA001F0F8FB3563002205219E
:102B10004720AE63FEF7B2FE4720FEF7A3FE06B0E5
:102B2000BDE8F0810010014044380240000402403A
:102B3000406402405C0200202E2E2F5372632F75DA
:102B4000736172742E63000000140140001802408B
:102B500070477047FEE70000104810B50E4901604D
:102B60001021416000214FF400228160C0E903126E
:102B7000920042610176417681760122C276017728
:102B80004277FEF76BFA002805D0BDE810404F21D0
:102B900003A001F0B2BB10BD00640040B4010020EE
:102BA0002E2E2F5372632F63616E2E630000000080
:102BB000114808B5016841F48001016000680022F5
:102BC00000F48000009005213920FEF757FE3920DF
:102BD000FEF748FE002211463A20FEF74FFE3A204B
:102BE000FEF740FE002205214520FEF747FEBDE826
:102BF00008404520FEF736BE3038024000B585B0AB
:102C0000142208496846FDF77CFB0021684601F064
:102C100082FD0549086001F0EBFC01F0FDFC05B008
:102C200000BD000034540008000000202DE9F041F0
:102C30002F4886B00024016841F04001016001681E
:102C400001F040010591016841F001010160016856
:102C500001F001010591016841F002010160016884
:102C600001F002010591016841F00801016001686D
:102C700001F008010591016841F0800101600168DF
:102C800001F080010591016841F0100101600168C7
:102C900001F010010591016841F020010160006818
:102CA000144F00F020004FF40065059000222946E3
:102CB0003846FEF725FDDFF84080EE000022314661
:102CC0004046FEF71DFD00950125CDE901546946FA
:102CD00038460394FEF72EFC0096CDE90154694670
:102CE00040460394FEF726FC06B0BDE8F0810000E4
:102CF0003038024000100240001402400E4810B567
:102D00000C4901600D49416000214FF480628160EF
:102D1000C0E903120C22C0E90521C161FFF73EFEA4
:102D2000002805D0BDE81040512105A001F0E5BA0A
:102D300010BD000000100140DC010020A086010051
:102D40002E2E2F5372632F75736172742E630000E1
:102D50000D4810B50B4901604FF4E131416000218D
:102D600081600C22C160C0E904128161C161FFF77A
:102D700015FE002805D0BDE81040642103A001F035
:102D8000BCBA10BD001401401C0200202E2E2F538F
:102D900072632F75736172742E630000FEE77047D3
:102DA0000907090E002806DA00F00F0000F1E02004
:102DB00080F8141D704700F1E02080F8001470477F
:102DC0000148FEF76FBE0000DC0500202DE9F84F3A
:102DD0000F46C1EBC70100EB810582460668D5E9C5
:102DE0001301441A286C3835A04200D20446E01C76
:102DF0004FEA900806EB471916E0441AA868A0426B
:102E000000D20446E01C4FEA90089AF810000090A7
:102E1000A3B2FAB23046E96801F05AFAE8682044F1
:102E2000E860A8692044A861D9F8180980B2404533
:102E300005D9D5E90501814201D20028DDD134B997
:102E40000120D6F83418B8408143C6F83418002061
:102E5000BDE8F88FD0ED021AC0ED031A90EC020A1B
:102E600030EE600A80ED020AD0ED060A20EE801AEC
:102E700080ED091AD0ED0A0A90ED072A42EE000A09
:102E800030EE610AC0ED0A0AD0ED081A71EE200A90
:102E900020EE210A80ED0B0A30EE800A80ED040A54
:102EA000D0ED0C0AB0EEC01AB4EEE01AF1EE10FA52
:102EB00006DDB5EEC00AF1EE10FA02DDC0ED040A3F
:102EC0007047B1EE600A80ED040A704790ED021A77
:102ED00080ED031A90EC020A30EE600A80ED020ADF
:102EE000D0ED060A60EE801AC0ED091AD0ED0A0A8C
:102EF00090ED072A42EE000A30EE410AC0ED0A0AC0
:102F000090ED081A71EEA00A20EE010A80ED0B0A7E
:102F100030EE800A80ED040AD0ED0C0AB0EEC01A43
:102F2000B4EEE01AF1EE10FA0BDDB5EEC00AF1EEE8
:102F300010FA02DDC0ED040A03E0B1EE600A80ED94
:102F4000040A90ED040AD0ED050A0D4A9FED0D1A12
:102F500030EE600A10EE101A914202DD30EE810A66
:102F600009E010EE101A084A914202D890ED040AC6
:102F700003E030EEC10A80ED040A80ED050A7047D7
:102F80000000484400004844000048C49FED040A83
:102F900080ED000A80ED010A80ED040A7047000010
:102FA000000000007047012001F091FBFBE701F0F9
:102FB000A8BB000030B5254893B00025016841F05A
:102FC00080510160006800F0805011902048016835
:102FD00041F4404101600068022400F44040119037
:102FE00001200090000401908001CDE906400620F8
:102FF0000890A820CDE9090404200B906846FFF74B
:103000002DF900B1FEE70CA90F2081E831004FF443
:10301000A0500F904FF48050109005210CA8FFF79E
:103020000DF800B1FEE7FFF7C1F84FF47A71B0FB7D
:10303000F1F0FFF7ADFA0420FFF79EFA00220F210E
:10304000501EFEF71BFC13B030BD0000403802409C
:10305000007000401048016841F4700101600F48A1
:10306000016841F0010101600C4A00210832116041
:1030700002680B4B1A400260031D0A4A1A6002687C
:1030800022F48022026005480C3001600249580693
:10309000803908607047000088ED00E00038024089
:1030A000FFFFF6FE103000240148FFF7B0BA000021
:1030B0007C030020F0B50268234B244D244E254F9D
:1030C000254C4FF0804C984209D0604507D0A8426B
:1030D00005D0B04203D0B84201D0A04204D122F0C2
:1030E000700E4A6842EA0E0298421BD0604519D021
:1030F000A84217D0B04215D0B84213D0A04211D088
:10310000164DA8420ED0164DA8420BD0154DA84220
:1031100008D0154DA84205D0144DA84202D0144D38
:10312000A84203D122F44075CA682A4302608A6823
:10313000C2620A688262984201D0A04201D1096944
:10314000016301214161F0BD000001400004004025
:1031500000080040000C0040000401400040014015
:10316000004401400048014000180040001C00409D
:103170000020004010B5806B0021C185C184FFF79D
:1031800006FB10BD0168CA6822F49072CA6001682B
:103190004A6922F001024A61202180F83A10704702
:1031A00010B590F83A10222901D0022010BD816894
:1031B000B1F5805F11D00169002901681FD049680D
:1031C00001F07F03816A4A1C82620B70C18D491E27
:1031D0000904090CC18518D026E00269816A002A19
:1031E0000268526805D0D2B20A80816A491C8162A5
:1031F000ECE7C2F308020A80816A891CF7E74A6893
:10320000816A4B1C83620A70E0E70168CA6822F495
:103210009072CA6001684A6922F001024A61202165
:1032200080F83A10FFF794FC002010BDC18D806A31
:10323000FDF750BB2DE9F04104460068016921F417
:103240004052E168114301612168C86849F20C628B
:1032500090432369A268E5691A4363692B431A43C3
:103260000243CA602168486920F44072A069104393
:103270004861E1696425B1F5004F9748974A216894
:103280004FF032083FD0914201D081427CD1FEF70D
:10329000A3FF00EBC00101EB001061688900B0FBE7
:1032A000F1F6FEF799FF00EBC00101EB0010616839
:1032B0008900B0FBF1F0B0FBF5F06FF01801484366
:1032C00006EB800108EB0110B0FBF5F000F0F00612
:1032D000FEF782FF00EBC00101EB0010616889007E
:1032E000B0FBF1F0B0FBF5F006EB0016FEF774FF53
:1032F00000EBC00101EB001061688900B0FBF1F741
:10330000FEF76AFFD2E0914201D081423DD1FEF743
:1033100063FF00EBC00101EB001061684900B0FBE6
:10332000F1F0B0FBF5F00601FEF756FF00EBC0012F
:1033300001EB001061684900B0FBF1F7FEF74CFFAC
:1033400000EBC00101EB001061684900B0FBF1F037
:10335000B0FBF5F06FF01801484307EB800108EB74
:10336000C100B0FBF5F000F0F80006EB4006FEF7F8
:1033700033FF00EBC00101EB001061684900B0FBB6
:10338000F1F7FEF729FF3CE055E0FEF715FF00EBF3
:10339000C00101EB001061684900B0FBF1F0B0FB27
:1033A000F5F00601FEF708FF00EBC00101EB00108D
:1033B00061684900B0FBF1F7FEF7FEFE00EBC001CB
:1033C00001EB001061684900B0FBF1F0B0FBF5F0D3
:1033D0006FF01801484307EB800108EBC100B0FB18
:1033E000F5F000F0F80006EB4006FEF7E5FE00EB16
:1033F000C00101EB001061684900B0FBF1F7FEF776
:10340000DBFE00EBC00101EB001061684900B0FB7E
:10341000F1F0B0FBF5F06FF01801484307EB8001C5
:1034200008EBC100B0FBF5F000F007002168304464
:103430008860BDE8F081FEF7BFFE00EBC00101EB44
:10344000001061688900B0FBF1F6FEF7B5FE00EBF5
:10345000C00101EB001061688900B0FBF1F0B0FB26
:10346000F5F06FF01801484306EB800108EB0110FE
:10347000B0FBF5F000F0F006FEF79EFE00EBC00199
:1034800001EB001061688900B0FBF1F0B0FBF5F0D2
:1034900006EB0016FEF790FE00EBC00101EB0010FA
:1034A00061688900B0FBF1F7FEF786FE00EBC00112
:1034B00001EB001061688900B0FBF1F0B0FBF5F0A2
:1034C0006FF01801484307EB800108EB0110B0FBD7
:1034D000F5F000F00F00A9E70014014000100140D2
:1034E00090F83910212901D0022070478168B1F588
:1034F000805F016A0BD04A1C026202680978516041
:10350000C18C491E0904090CC1840ED017E009883A
:103510000268C1F30801516001690029016A02D003
:10352000491C0162ECE7891CFBE70168CA6822F0CC
:103530008002CA600068C16841F04001C16000209B
:103540007047000010B5044801F040FCBDE8104091
:103550000148FFF79BB90000DC01002010B50448CA
:10356000FFF716F9BDE810400148FFF78FB90000DA
:103570001C020020D0F81802C0F81022C0F808126F
:103580000020704710B5D0F8181289B1D1F8142274
:103590000AB1012010BD0122C1F81422B1F8102295
:1035A00093B2D1F80822812100F021FA002010BD49
:1035B000022010BD10B5D0F81422526890470020A8
:1035C00010BD134610B50A46002100F076F9002020
:1035D00010BD134610B50A46002100F008FA00207D
:1035E00010BD10B50446802100F0E8F92046BDE882
:1035F0001040002100F0E2B910B505210023C0F809
:10360000F4111A46194600F058F9002010BD10B503
:1036100002238261C0F8F431C26113460A460021D8
:1036200000F0E5F9002010BD10B504210023C0F81A
:10363000F4111A46194600F0DAF9002010BDF8B569
:10364000044648880D46010A08294BD2DFE801F0FC
:103650004A0409174A4A4048D4F81012207C0A68E4
:1036600032E0207C02260028D4F8140205D0C16A7A
:10367000684688470146467041E0816AF8E7C0B273
:1036800006282FD2DFE800F003080D12171CD4F82B
:103690001012207C4A6817E0D4F81012207C8A6847
:1036A00012E0D4F81012207CCA680DE0D4F8101291
:1036B000207C0A6908E0D4F81012207C4A6903E0F3
:1036C000D4F81012207C8A6969469047014616E0BA
:1036D000207C38B9D4F81402416B68468847F5E776
:1036E000207C20B129462046FFF77BFFF8BDD4F8A7
:1036F0001402016B68468847014607204870BDF8F0
:1037000000000028F2D0EA88002AEFD0824200D9D7
:103710000246ADF800202046FFF779FFF8BD10B54E
:103720000024D0F82002FEF7F6F830B1012801D0CD
:10373000022801D0022400E00124204610BD2DE91A
:10374000F0411746044641B1D4F8140242698AB3E5
:1037500094F8FC01032842D043E0D4F8F41100258A
:1037600004F11400022933D1D0E902639E4207D943
:10377000F31A83609AB239462046FFF72AFF12E017
:103780004068B0FBF3F103FB1101A1B9984212D3D9
:10379000D4F8F81188420ED2002211462046FFF7D5
:1037A00018FFC4F8F85100231A461946204600F0C5
:1037B00084F80DE012E0D4F81402C16829B194F83D
:1037C000FC01032801D1204688472046FFF714FF5B
:1037D00094F80002012804D184F8005201E0204648
:1037E00090470020BDE8F08170B51546044641B110
:1037F000D4F8140282693AB394F8FC01032824D067
:1038000025E0D4F8F41104F5827003291FD1D0E922
:1038100002218A420BD9531A83600846834200D39F
:1038200003469AB229462046FFF7CBFE0FE0D4F8B4
:103830001402016929B194F8FC01032801D1204642
:1038400088472046FFF7F0FE01E020469047002021
:1038500070BD0020704710B5012180F8FC11D0F830
:103860001422017952689047002010BD0A0601F029
:103870007F01D0F82002C1EBC10100EB810002D52D
:1038800090F83A00704790F8FA01704700207047AE
:103890000020704770B51D4613460024D0F8200262
:1038A0002A46FEF760F830B1012801D0022801D085
:1038B000022400E00124204670BD10B50024D0F899
:1038C0002002FEF77AF830B1012801D0022801D099
:1038D000022400E00124204610BD70B500220446F9
:1038E00040231146FFF7D6FF40252B4600228021BA
:1038F0002046C4F81051FFF7CDFF0120256284F85F
:10390000FC01D4F8180228B1D4F8140221794268D5
:1039100020469047002070BD90F8FD1180F8FC1102
:103920000020704710B590F8FC11032904D1D0F89D
:103930001412C96901B18847002010BD017400202C
:10394000704710B50024D0F82002FEF745FB30B1D7
:10395000012801D0022801D0022400E001242046E1
:1039600010BD70B5044600F50270054600F04FF832
:103970000120C4F8F401B4F80E02C4F8F80194F878
:10398000080210F01F010AD001290DD0022910D021
:1039900000F08001204600F011F8002070BD29469B
:1039A000204600F08DF8F8E72946204600F06FF930
:1039B000F3E72946204600F0FCF8EEE710B50024B6
:1039C000D0F82002FEF71DF830B1012801D00228FE
:1039D00001D0022400E00124204610BD90F8FC1123
:1039E00080F8FD11042180F8FC110020704710B50B
:1039F0000024D0F82002FEF734F830B1012801D0BD
:103A0000022801D0022400E00124204610BD0A78DB
:103A100002704A7842708A78CB7802EB03224280A7
:103A20000A794B7902EB032282808A79C97902EB09
:103A30000121C180704710B5D0F8142202241AB1B8
:103A40001268904700B90024204610BD70B50E469C
:103A50001A4D897804462970012928D894F8FC0168
:103A6000022802D0032822D105E099B10320616029
:103A700084F8FC0109E091B1606888420AD0C1B2C3
:103A80002046FFF797FD297861602046FFF7D3FFB6
:103A900002280CD02046BDE87040FFF7C5BD0220CB
:103AA00084F8FC0120466160FFF784FDF2E73146AF
:103AB0002046BDE87040FFF794BD0000B001002033
:103AC0002DE9F04100264B78012532460A2B43D2DE
:103AD000DFE803F03C584251420805422A27FFF72D
:103AE000AEFD63E004468888C8B9C888B8B988784C
:103AF00000F07F0794F8FC01032810D084F8FE71D1
:103B000039462046FFF71DFF2046FFF78DFD1FB108
:103B1000022084F8FC0149E084F8FC5146E020468C
:103B20001AE0FFF793FF41E0CB88012B14D190F806
:103B3000FC31022B02D0032B0ED104E08260012263
:103B400000F1080114E00122011D11E090F8FC21B0
:103B5000022A04D0032A02D0FFF743FD26E0C56005
:103B6000D0F8041209B10321C160022200F10C0156
:103B7000FFF74DFD1AE004464888012816D1C4F825
:103B800004520BE0044690F8FC01022801D00328FF
:103B9000C5D14888012809D1C4F80422D4F81402F8
:103BA0008268204690472046FFF73EFD3046BDE83C
:103BB000F08170B50D460446287800260979C0F3D7
:103BC0004110012806D06878A0B301281FD003282F
:103BD0003FD107E0D4F81402294682682046904776
:103BE000002070BD94F8FC01022817D003282CD1C6
:103BF000688828B921B1802902D02046FFF7DEFE6F
:103C0000D4F81402294682682046904713E094F8BD
:103C1000FC01022802D0032817D103E0C9B1802992
:103C20001BD116E06888A0B9480604D02046FFF7EB
:103C300076FDE5E703E02046FFF7F6FC09E094F89F
:103C4000FC01022807D003280BD029462046FFF7A5
:103C5000C8FC304670BD4806FBD02046FFF7AEFEDC
:103C6000F7E7080601F07F0004EB001501D51435D5
:103C700001E005F582752046FFF7F8FD00B101204F
:103C80002860022229462046FFF7C1FCE1E770B513
:103C9000054690F8FC010C4603280DD12079012837
:103CA0000AD8D5F81402826828469047E08830B9CF
:103CB0002846FFF7B9FC02E02846FFF792FC0020F7
:103CC00070BD000030B54C781D4B01220D78AA4024
:103CD000012CD0F81C4818D044EA0242C0F81C2835
:103CE0000A7800EB4210D0F8002B12040BD4D0F865
:103CF000002B0C89C4F30A042243C97843EA8141AA
:103D00000A43C0F8002B002030BD92B21443C0F823
:103D10001C480C7800EB4410D0F800291204F2D4AF
:103D2000D0F800290D89C5F30A052A43C97889040A
:103D300041EA84510A431A43C0F80029E3E700002E
:103D400000800010D0F800196FF30A01C0F80019C4
:103D5000D0F80818C1F34101022905D1D0F80019A3
:103D600041F00301C0F80019D0F8041841F4807143
:103D7000C0F804180020704730B54D784D4C0B78D2
:103D800000EB4313012D28D0D3F8105B6FF312051D
:103D9000C3F8105B0B7800EB4313D3F8105B25409E
:103DA000C3F8105B4B690BB18B684B610B7800EB70
:103DB0004313D3F8104B44F40024C3F8104B0B7892
:103DC00000EB4313D3F8104B8D68C5F312052C4359
:103DD000C3F8104B012A5CD061E04D69002DD3F887
:103DE00010593BD06FF31205C3F810590B7800EB54
:103DF0004313D3F810592540C3F810594C698B6808
:103E00009C4200D94B610B7800EB4313D3F8104967
:103E100044F40024C3F810490B7800EB4313D3F8A3
:103E200010494D69C5F3120554EA0504C3F8104959
:103E30000B7800EB4313D3F8004944F00444C3F873
:103E40000049012A1ED04A6912B3D0F834280B78F1
:103E5000012199400A43C0F8342829E02540C3F8DD
:103E600010590B7800EB4313D3F8104944F40024A5
:103E7000C3F810490B7800EB4313D3F810496FF3E4
:103E80001204D3E70A69097800EB4110C0F814293D
:103E90000EE00B7800EB4313CA68C3F8142B0978C3
:103EA00000EB4110D0F8001B41F00441C0F8001BAA
:103EB000002030BDFFFF07E00023C0F8103BD0F822
:103EC000103B43F40023C0F8103BD0F8103B43F004
:103ED0001803C0F8103BD0F8103B43F0C043C0F8C3
:103EE000103B012905D1C0F8142B4FF08021C0F8F8
:103EF000001B002070474B780A7800EB4212012B20
:103F00000BD0D2F8003B23F40013C2F8003BCA7870
:103F1000032A17D0022A15D01DE0D2F8003923F465
:103F20000013C2F80039CA78032A01D0022A12D13C
:103F3000097800EB4110D0F8001941F08051C0F829
:103F4000001908E0097800EB4110D0F8001B41F09F
:103F50008051C0F8001B002070474B780A7800EBB6
:103F60004212012B14D0D2F8003B002B05DBD2F813
:103F7000003B23F08043C2F8003B097800EB41107E
:103F8000D0F8001B41F40011C0F8001B002070475E
:103F9000D2F80039002B05DBD2F8003923F080433A
:103FA000C2F80039097800EB4110D0F8001941F44B
:103FB0000011C0F80019E9E778B54E786FF0604558
:103FC000834C0B7800EB4313012E2FD0D3F8106BEA
:103FD0006FF31206C3F8106B0B7800EB4313D3F8A2
:103FE000106B2640C3F8106B4B69002B7DD08C689A
:103FF00023445B1EB3FBF4F39BB20C7800EB441438
:10400000D4F8106B05EAC3452E43C4F8106B0C7846
:1040100000EB4414D4F8105B8E685E43C6F31203C1
:104020001D43C4F8105B012A73D0B2E04E6966B339
:10403000D3F810696FF31206C3F810690B7800EB20
:104040004313D3F810692640C3F810694C698B6894
:104050001C44641EB4FBF3F305EAC3440B7800EB85
:104060004313D3F810592C43C3F810490B7800EBD5
:104070004313D3F810494D69C5F312052C43C3F817
:104080001049CB78012B16D027E0D3F810592540E2
:10409000C3F810590B7800EB4313D3F8104944F4DC
:1040A0000024C3F810490B7800EB4313D3F81049F0
:1040B0006FF312040FE00B7800EB4313D3F81049B1
:1040C00024F0C044C3F810490B7800EB4313D3F835
:1040D000104944F00054C3F81049012A12D0CB789B
:1040E000012B17D04B692BB300E037E0D0F8343800
:1040F0000D780124AC402343C0F83438CB78012B31
:1041000008D017E00C7800EB44140B69C4F814399C
:10411000F4E738E0D0F80838DB050B7800EB431300
:10412000D3F8004902D444F0005401E044F0805434
:10413000C3F800490B7800EB4313D3F8004944F06F
:104140000444C3F80049CB78012B3ED100928A8AFF
:1041500093B20A78C96800F0BBF836E00B7800EB40
:104160004313D3F8104B8D68C5F312052C43C3F8E5
:10417000104B0B7800EB4313D3F8104B44F400249E
:10418000C3F8104B4FE70B7800EB4313CA68C3F832
:10419000142BCA78012A0FD1D0F80828D2050A7842
:1041A00000EB4212D2F8003B02D443F0005301E08E
:1041B00043F08053C2F8003B097800EB4110D0F87F
:1041C000001B41F00441C0F8001B002078BD000036
:1041D000FFFF07E00022202343EA81110161054926
:1041E000521C8A4201D90320704703699B06F7D409
:1041F00000207047400D03000021D0F8082812F07D
:10420000060F15D0D0F80828C2F34102012A0CD0BD
:10421000D0F80828C2F34102032A06D0D0F80808D3
:10422000C0F34100022802D002E0032100E0022195
:1042300008467047406900F001007047D0F8181830
:10424000D0F81C08084080B27047D0F81818D0F891
:104250001C080840000C7047D0F81038D0F83428FB
:10426000CA4002F0010243EAC21200EB4110D0F84A
:1042700008091040704700EB4111D1F8081BD0F835
:10428000140808407047416980690840704710B5BC
:1042900003460020D21C920803F5805303E01C68FB
:1042A00041F8044B401C9042F9D3084610BDD0F8A9
:1042B000002822F4FE62C0F80028D0F800284FF44D
:1042C000FE6303EA01110A43C0F80028002070478A
:1042D00030B50024039D6DB9DB1C9B0800EB023058
:1042E00000F5805004E000BF51F8042B0260641C0C
:1042F0009C42F9D3002030BDFEE7FEE702E008C88B
:10430000121F08C1002AFAD170477047002001E04F
:1043100001C1121F002AFBD17047000008B500F050
:10432000E4F9009000210948FCF70BFD48B1084B67
:10433000084A00210548FCF716FD05490548FCF729
:10434000DFFA0521684600F0C9F9EBE7B401002067
:10435000A8010020704800202DE9F04104462DED11
:10436000088B82B08846012000F0B1F9B4F904004E
:10437000FCF704F99FED8D8B53EC182BFCF78CF8B0
:1043800041EC190BB4F90200FCF7F8F853EC182BC8
:10439000FCF782F841EC1A0BB4F900004042FCF73C
:1043A000EDF853EC182BFCF777F853EC1A2BFBF7CE
:1043B000CCFF53EC192BFBF7C8FF9FED7E9B53EC12
:1043C000192BFCF769F8FCF709F97C4D2860B4F962
:1043D0000400FCF7D3F853EC182BFCF75DF841EC24
:1043E0001A0BB4F90200FCF7C9F853EC182BFCF7D0
:1043F00053F841EC1B0BB4F90000FCF7BFF853EC89
:10440000182BFCF749F853EC1B2BFBF79EFF53ECE2
:104410001A2BFBF79AFF53EC192BFCF73DF8FCF72E
:10442000DDF805F148063060B4F90400FCF7A6F8A1
:1044300053EC182BFCF730F841EC1A0BB4F90200DE
:10444000FCF79CF853EC182BFCF726F841EC1B0BFF
:10445000B4F90000FCF792F853EC182BFCF71CF8A9
:1044600053EC1B2BFCF712F853EC1A2BFBF76DFFE8
:1044700053EC192BFCF710F8FCF7B0F805F1900796
:104480003860B4F90400FCF779F853EC182BFCF70A
:1044900003F841EC1A0BB4F90200FCF76FF853EC87
:1044A000182BFBF7F9FF41EC1B0BB4F9000040425D
:1044B000FCF764F853EC182BFBF7EEFF53EC1B2BC7
:1044C000FBF7E4FF53EC1A2BFBF73FFF53EC192BE0
:1044D000FBF7E2FFFCF782F805F1D80420603848CA
:1044E000C06B00EE100A3648B8EEC00A4C3085EDBD
:1044F000010AC06B00EE100A3148B8EEC00A9830CD
:1045000086ED010AC06B00EE100A2D48B8EEC00A15
:10451000E43087ED010AC06B00EE100A2846B8EEC1
:10452000C00A84ED010AFEF795FC3046FEF792FCC6
:104530003846FEF78FFC2046FEF78CFC94ED040A0B
:10454000BDEEC00A10EE100A00B2009097ED040A0A
:10455000BDEEC00A10EE100A96ED040A03B2BDEEDD
:10456000C00A10EE100A95ED040A02B2BDEEC00AB0
:1045700010EE100A01B2134800F000FC98F8170082
:1045800002280DD198F81800022809D19FED0E0AD3
:1045900085ED000A86ED000A87ED000A84ED000A29
:1045A00002B0BDEC088BBDE8F0810000333333333B
:1045B0003333B33F00000000000032408000002091
:1045C00040470020B40100200000000008B500F0C2
:1045D0008CF8009004490548FFF7BEFE05216846A7
:1045E00000F07CF8F6E70000264700207400002069
:1045F00000B585B0142206496846FBF782FE00210B
:10460000684600F088F80349486005B000BD000026
:104610007C540008A001002000B585B01422064992
:104620006846FBF76EFE0021684600F074F8034907
:10463000086005B000BD0000685400087C00002040
:1046400038B50F4800210068026842680092C268CD
:1046500042F01002C2600A4C0A4A94F83A0020283C
:104660000DD13223A262A385E1632168606B091D2D
:10467000FCF73CFF2068416941F04001416138BDD1
:10468000DC01002014470020EFF30580002800D053
:1046900001207047FDF748F8FEF78CFCFEF7C6FADC
:1046A000FEF786FAFEF758FAFEF728FBFEF750FBF6
:1046B000FCF7C0F8FFF7C4FFFEF7A0FA00F010F80F
:1046C000FEE701460020842900D0C81C704710B5C1
:1046D00000B9012000F08AFC002010BD8120704745
:1046E00010B500F0A9FC002010BD10B5FFF7CCFFFD
:1046F00018B1BDE8104000F0CFBDBDE8104000F09B
:10470000C5BD10B500F0B4FD012803D0BDE81040D0
:1047100000F06CBD10BD3EB504460D46B0F9080072
:10472000FFF7CFFF02A9CDE90001208A2B4682B214
:10473000D4E9001000F070FD012801D000203EBD3A
:1047400002983EBD2DE9F041184C0F460546E6683B
:104750002068001D00F06AFB38B9206890F82C1022
:1047600001208840216981432161681C07D137B14C
:104770002168BDE8F0410E48091D00F08FBB20689C
:104780003544B5424560216805D2A06BBDE8F041D3
:10479000091D00F06BBB606B091D00F067FBA06A90
:1047A000854200D2A562BDE8F081000038000020FB
:1047B000A84600202DE9F041054600F07BFB2E4C79
:1047C000A068401CA06020682C4F10B1606940B305
:1047D0002DE02560A068012829D1002606EB86007F
:1047E00007EB800000F034FB761C072EF6D323483D
:1047F0008C3000F02DFB2148A03000F029FB1F4831
:10480000B43000F025FB1D48C83000F021FB1B48E8
:10481000DC3000F01DFB19488C3060631430A0635D
:1048200005E02068E96AC06A884200D82560606AAD
:10483000401C6062E96A01202269884010432061BF
:1048400001EB810007EB8000291D00F027FB00F041
:1048500051FB606900280CD02068E96AC06A884270
:1048600007D207494FF080500860BFF34F8FBFF366
:104870006F8FBDE8F081000038000020CC4500209B
:1048800004ED00E070B5114E114C17E000F008FC8B
:104890003068B8B100F06CFD00F00CFBF068C56842
:1048A000281D00F0C3FAA068401EA0606068401E8A
:1048B000606000F01FFB284600F00CF860680028DC
:1048C000E4D170BD00F054FDF8E7000094460020EC
:1048D0003800002010B50446006B00F01FFB204696
:1048E000BDE8104000F01ABB10484FF47051420769
:1048F00006D0C01D0D4920F00700411AC1F57051C6
:104900000B4A00230144C2E900030839103A21F0A0
:10491000070111604B600B600B1AC0E90013936034
:104920004FF000405360D06070470000CC09002079
:1049300024000020074C4FF08056074DFFF7A2FFE0
:1049400020680128FAD92E60BFF34F8FBFF36F8F15
:10495000F4E70000CC45002004ED00E02DE9F0472D
:104960009A46DDE9098481466FF00303206B03EB6F
:1049700082021044089D20F00706700707D05020DF
:1049800080F31188BFF34F8FBFF36F8FFEE72318BB
:104990000A5C83F834200A5C12B1401C1028F6D35C
:1049A000002784F84370072D00D30625E562C4E98B
:1049B0001157201D00F057FA04F1180000F053FAC7
:1049C0002461C5F107006462A061E76484F8507057
:1049D00052464946304600F0BFF82060B8F1000F5B
:1049E00001D0C8F80040BDE8F087000030B511499B
:1049F00000E011460A688242FBD34B685C1884428F
:104A000003D1406818444860084643681C18944223
:104A100009D1084C103C2468A24209D052681A44BB
:104A200042600A6812680260814200D0086030BDAE
:104A30000460F9E7240000200648416B096829B1A9
:104A4000416BC968C9684968816270474FF0FF319E
:104A5000FAE700003800002008484068401C4FF08A
:104A6000500080F3118804D0BFF34F8FBFF36F8FD6
:104A7000FEE7BFF34F8FBFF36F8FFEE72C000020E0
:104A80002DE9F0410546002700F00AFB314E306861
:104A900008B9FFF729FFF06805424BD1C5B30835C7
:104AA00068070ED005F00700C0F10800054468074C
:104AB00007D0502080F31188BFF34F8FBFF36F8F63
:104AC000FEE72DB37068854234D822481030014685
:104AD0000C6801E020460C466168A94202D22168B8
:104AE0000029F7D131688C4224D007682168016021
:104AF00060680837411B10290FD96019420708D098
:104B0000502080F31188BFF34F8FBFF36F8FFEE704
:104B100010E041606560FFF769FF61687068401AE6
:104B20007060B268904200D2B060F068014300202B
:104B3000C4E9000100F01CFC780707D0502080F386
:104B40001188BFF34F8FBFF36F8FFEE73846BDE884
:104B5000F08100001400002010B5031F4FF0807496
:104B60001C601B1F21F001011960191F044B0B6011
:104B700014390A60091F6FF0020244380A6010BD40
:104B8000594A00082DE9F04104460888C0F30A0597
:104B9000A5F58065258048788A78C00840EA4210EB
:104BA000C0F30A03A3F5806363808878CA7880091C
:104BB00040EA82000A7905F5257540EA8220C0F3B3
:104BC0000A02A2F58062A28008794E79400840EA84
:104BD000C610C0F30A00A0F58060E0808E7B06F06E
:104BE0000107C6F34006BE1BE6818E7BC6F3801725
:104BF000C7EBD61626828E7BC6F3C007C6F38006A7
:104C0000BE1B66828E7BC6F3001606EBC60707EB5B
:104C10000616642707EBC606A682CE7BA67500267D
:104C200026816681A6814E79B609E6754979C1F378
:104C3000011121764FF4A5618D420BD803F5257340
:104C40008B4207D802F525728A4203D800F52570F9
:104C5000884203D919212046FBF76CFB2046BDE8AA
:104C6000F04100F001B800002DE9F04104462DEDBF
:104C7000048BB0F90E20B0F91010B0F91200384DC5
:104C8000002A61D0E9B3E0B3B4F90000002800DAEB
:104C9000404207B2B4F90200002801DA414200E0C4
:104CA00001460AB2B4F90410002900DA49429FED26
:104CB0002D9B9FED2E8B0EB20A280ADB10FB02F013
:104CC000FBF75CFC53EC192BFBF7E6FB41EC100BFC
:104CD00003E0B0EE480AF0EE680A51EC100BFBF767
:104CE0005EFC2880B4F900000A280BDB10FB07F0FB
:104CF000FBF744FC53EC192BFBF7CEFB41EC100BFC
:104D000004E021E0B0EE480AF0EE680A51EC100B26
:104D1000FBF745FC6880B4F904000A280BDB10FBA4
:104D200006F0FBF72BFC9FED131B53EC112BFBF74D
:104D3000B3FB41EC180B51EC180BFBF730FCA880CF
:104D4000BDEC048BBDE8F081A38A12FB03F22A803C
:104D500011FB03F16980962110FB01F0EFE70000E1
:104D600074000020809F71E14048463F0000000031
:104D70000000000092CB7F48BF7D3D3F30B589B039
:104D80000D0A8DF800508DF80110110A8DF80210EF
:104D90000446190A0C988DF804108DF80530010AA4
:104DA0008DF806108DF803208DF8070018220649AB
:104DB00002A8FBF7A6FA01236A4602A92046FBF7E0
:104DC000D4FE09B030BD0000BC46002038B50168F3
:104DD0000A68D20624D5CA68D20621D504460868D6
:104DE000486800900F4884421AD1606B00680168DF
:104DF00021F001010160606B0068406880B22028EA
:104E000004D1094901F11200FFF7BCFE616B3220A9
:104E100009684860606B0068016841F00101016049
:104E200038BD0000DC01002014470020D0E9013229
:104E300001699A60D0E901235A604A68824201D12F
:104E400082684A60002202610868401E086070475C
:104E500000F108014FF0FF32C0E90112C1600161A9
:104E600000210160704700210161704730B50B6877
:104E70005A1C02D000F1080202E0026904E0224656
:104E8000546825689D42FAD953684B6099608A60DE
:104E9000516008610168491C016030BD42684A6088
:104EA00093688B6093685960916008610168491C40
:104EB00001607047502080F31188BFF34F8FBFF31C
:104EC0006F8F0A494868401C486001280CD1084887
:104ED000006810F0FF0F07D0502080F31188BFF357
:104EE0004F8FBFF36F8FFEE7704700002C0000204C
:104EF00004ED00E00849486828B1401E486001D12F
:104F000080F311887047502080F31188BFF34F8FD2
:104F1000BFF36F8FFEE700002C00002070B5002863
:104F200027D0144DA0F108046168E868014207D158
:104F3000502080F31188BFF34F8FBFF36F8FFEE7D0
:104F400022683AB1502080F31188BFF34F8FBFF32E
:104F50006F8FFEE78143616000F0A2F860686968C6
:104F6000084468602046FFF741FDBDE8704000F04E
:104F7000FFB970BD1400002006484FF47A71006834
:104F8000B0FBF1F14FF0E020491E416107210161C2
:104F9000704700001000002010B5FBF76BF91149B5
:104FA00010280ED300F1E02090F8F0030A78904228
:104FB00007D2502080F31188BFF34F8FBFF36F8F5C
:104FC000FEE709480068896800F4E060884207D974
:104FD000502080F31188BFF34F8FBFF36F8FFEE730
:104FE00010BD00002C0000200CED00E010B5020008
:104FF00014D00F48006B38B1502080F31188BFF3F4
:105000004F8FBFF36F8FFEE700F04AF80021104684
:10501000FFF798FB00F0ACF9002807D105494FF0E5
:1050200080500860BFF34F8FBFF36F8F10BD00003B
:105030003800002004ED00E01CB515480024CDE93F
:1050400000402346802213A1144800F0E5F801280F
:1050500009D0401C1AD1502080F31188BFF34F8F24
:10506000BFF36F8FFEE7502080F31188BFF34F8F9F
:10507000BFF36F8F06484FF0FF312C38816201215A
:105080004161C460BDE81C4000F040B81CBD000098
:105090006400002049444C450000000035490008E8
:1050A0000248016B491C0163704700003800002072
:1050B0001448016B11B10121C16170470021C16128
:1050C0000169B1FA81F1C1F11F0101EB81020E49C1
:1050D00051F822306BB101EB820101F108034A68FB
:1050E00052684A609A4201D152684A60D1680160B0
:1050F0007047502080F31188BFF34F8FBFF36F8F3D
:10510000FEE7000038000020CC4500201CB53248E6
:105110000168324A914207D1502080F31188BFF3D1
:105120004F8FBFF36F8FFEE700682C49491E8842FE
:1051300007D1502080F31188BFF34F8FBFF36F8FDB
:10514000FEE7274908780190FF20087008788DF85D
:1051500000009DF800009DF8002000F0F000904253
:1051600007D0502080F31188BFF34F8FBFF36F8FAC
:10517000FEE79DF800001B4A00F050001070072069
:10518000906005E09DF800305B008DF80030401E17
:105190009DF800301B06F5D4000200F4E06090603A
:1051A000019808700C482030016841F470010160DA
:1051B000016841F070410160FFF7DEFE00205060A1
:1051C000FBF71EF80848016841F040410160FBF719
:1051D00007F800201CBD000000ED00E071C20F4187
:1051E00000E400E02C00002034EF00E010B5502077
:1051F00080F31188BFF34F8FBFF36F8F00F054F827
:1052000018B104494FF080500860002080F31188E5
:1052100010BD000004ED00E02DE9FF5F8346DDE9ED
:105220000E87994616468A469000FFF729FC05002E
:105230001AD05420FFF724FC040012D0256300216B
:10524000CDE90241CDE900874B46324651465846EA
:10525000FFF784FB2046FFF7ADFA012004B0BDE85C
:10526000F09F2846FFF75AFE4FF0FF30F6E70000A8
:105270000548416919B1006B18B100207047012041
:105280007047022070470000380000200148C068C5
:10529000704700003800002010B5FFF77DFE014880
:1052A000C06810BD380000202DE9F0412E4C0027C9
:1052B000206B40B1A069401CA061E06900B10127EA
:1052C0003846BDE8F081E668761CE66013D1606B75
:1052D000006838B1502080F31188BFF34F8FBFF3BF
:1052E0006F8FFEE7606BA16B6163A063206A401C57
:1052F0002062FFF7A1FBA06ADFF87080864209D325
:10530000606B006880B1606BC068C5686868864281
:105310000DD2A0622068C06A00EB800158F821001D
:105320000128CAD90127C8E74FF0FF30F1E7281D4F
:10533000FFF77CFDA86A18B105F11800FFF776FDAC
:10534000E86A0121226981401143216100EB80015B
:1053500008EB8100291DFFF7A1FDE86A2168C96AF1
:105360008842CDD30127CBE738000020CC45002070
:105370002DE9F0472C4D00242746286B38B1FFF764
:1053800099FD286B401E2863286B40B146E05020F1
:1053900080F31188BFF34F8FBFF36F8FFEE7A968CB
:1053A000224E0120D1B3A6F1B40980463068E8B19D
:1053B000F068C46804F11800FFF738FD201DFFF7FE
:1053C00035FDE06A2A6908FA00F11143296100EB12
:1053D000800109EB8100211DFFF760FDE06A29686B
:1053E000C96A8842E2D3C5F81C80DFE70CB1FFF739
:1053F00023FBAC6944B14646FFF756FF00B1EE61AE
:10540000641EF9D10020A861E86938B10849012774
:1054100038070860BFF34F8FBFF36F8FFFF76AFD48
:105420003846BDE8F08700003800002080460020A4
:1054300004ED00E090540008A72F000800000000D1
:105440000000000080000000000610160006101684
:105450000000000000000000010203040607080924
:1054600000000000010203049C540008CD45000820
:10547000030000000000000000010000A854000824
:105480001D430008030000000000000000010000B0
:1054900064656661756C745461736B0063686173F5
:1054A0007369735461736B0063616E5461736B0055
:1054B000D054000800000020B4010000C407000818
:1054C000F4540008B4010020DC4A00000C4300083A
:1054D0004132018210031D24F41AAA01016603154A
:1054E000A04264409C45154844CD2E14088D2F0AD7
:0454F000EE0848007A
:04000005080001AD41
:00000001FF
