:020000040800F2
:10000000F86900207D020008A335000821330008AC
:10001000A13500081B08000821530008000000005B
:10002000000000000000000000000000C101000806
:100030001D0C00080000000015020008B33700087E
:10004000970200089702000897020008970200082C
:1000500097020008A93700089702000897020008D5
:10006000970200089702000897020008970200080C
:1000700097020008970200089702000897020008FC
:100080009702000897020008970200082908000854
:100090001D08000897020008970200089702000850
:1000A00097020008970200089702000897020008CC
:1000B00097020008AD380008970200089702000870
:1000C00097020008970200089702000897020008AC
:1000D00097020008DD3D000897020008970200081B
:1000E000970200089702000897020008970200088C
:1000F000970200089702000897020008970200087C
:10010000970200089702000897020008970200086B
:10011000970200089702000897020008970200085B
:1001200097020008550B0008610B000897020008B1
:10013000970200089702000897020008970200083B
:10014000970200089702000897020008C5350008CA
:10015000970200086D0B000897020008F53D0008A3
:10016000970200089702000897020008970200080B
:10017000970200089702000897020008000000009C
:1001800097020008970200089702000897020008EB
:1001900097020008970200089702000897020008DB
:1001A000000000000000000097020008DFF80CD0FB
:1001B00000F0F6FA004800470D570008F8690020E3
:1001C0002B4B19680868B0E8F04F80F30988BFF33B
:1001D0006F8F4FF0000080F311887047000000001F
:1001E00006480068006880F3088862B661B6BFF30D
:1001F0004F8FBFF36F8F00DF00BF00BF08ED00E03F
:10020000DFF80C00016841F470010160704700BF25
:1002100088ED00E0EFF30980BFF36F8F144B1A688D
:100220001EF0100F08BF20ED108A20E9F04F10607B
:1002300008B44FF0500080F31188BFF34F8FBFF325
:100240006F8F05F0ABFF4FF0000080F3118808BC02
:1002500019680868B0E8F04F1EF0100F08BFB0EC46
:10026000108A80F30988BFF36F8F704700BF00BF0B
:1002700084000020EFF305807047000006488047A7
:1002800006480047FEE7FEE7FEE7FEE7FEE7FEE77B
:10029000FEE7FEE7FEE7FEE759380008AD0100087B
:1002A0002DE9F05F0546002092469B4688460646AB
:1002B000814640241BE0284641464746224600F03E
:1002C000B8F953465A46C01A914110D31146184600
:1002D000224600F09FF92D1A67EB01084F4622468F
:1002E0000120002100F096F917EB00094E41201E75
:1002F000A4F10104DFDC484631462A464346BDE806
:10030000F09F40EA01039B0703D009E008C9121FD0
:1003100008C0042AFAD203E011F8013B00F8013BBF
:10032000521EF9D27047D2B201E000F8012B491EEB
:10033000FBD270470022F6E710B513460A46044682
:100340001946FFF7F0FF204610BD2DE9FE4F80460D
:1003500081EA0300C00F0C46009021F0004123F019
:100360000045B8EB0200A94105D24046214690461F
:100370001C460B46024623F00040104347D0270D91
:10038000C7F30A00C3F30A510290401A01904028B3
:100390006BDAC3F3130040F4801B0098924620B13F
:1003A0000023D2EB030A63EB0B0B01985946C0F113
:1003B0004002504600F02EF906460D46504659467A
:1003C000019A00F046F910EB08006141002487EA29
:1003D000115284EAE7731A4340D0009A62B3019A3B
:1003E000012A4FEA075215DC001B61EB02014FF0B6
:1003F000004202EA0752CDE90042001C41F580119B
:1004000032462B4600F07DF903B0BDE8F08F404640
:100410002146F9E7001B61EB0201001C41F5801346
:1004200000185B412018A2F5001747EB030140EAD2
:10043000D570B6196D4111E06D084FEA360645EAF0
:10044000C0754FEA0752001B61EB0201001C41F529
:10045000801149084FEA30000019514132462B46BD
:1004600003B0BDE8F04F00F03DB900980122400014
:100470000023D0EB020263EBE073009821464FEAC1
:10048000E074B8EB000061EB0401E9E783F000439E
:100490005BE781F0004158E72DE9FE4F81EA030454
:1004A00004F0004421F0004100944FF0000B23F0D1
:1004B000004350EA01045ED052EA03045BD0C3F368
:1004C0000A54C1F30A552C44A4F2F3340194A0FB5E
:1004D0000254C1F3130141F48011C3F3130343F435
:1004E000801301FB024400FB034E840A970A44EA8E
:1004F000815447EA8357A4FB076802958D0A05FBE0
:1005000007854FEA932C04FB0C542705029D4FEA04
:10051000065847EA1637B5EB08056EEB070C870E51
:10052000920E47EA811742EA8312A7FB0201B6EB5B
:100530000B0164EB00042B0D43EA0C335E1844EB13
:100540001C50DA465146E7FB0201C5F313044FEA9B
:100550000B3343EA14534FEA0432019C43EA060387
:10056000A4F10C040294009CCDE900B400F0C9F899
:1005700003B0BDE8F08F00200146F9E70EB5C10FCA
:1005800080EAE0700844CA07002140F233438DE856
:100590000E000A460B4600F0B4F803B000BD70B57B
:1005A000C1F30A5201F000450024C1F3130140F2E7
:1005B000FF3341F480119A4201DA002070BD40F20D
:1005C00033439A42A2F2334203DC524200F031F844
:1005D00000E090402C43F1D0404270BD01F0004358
:1005E00030B421F0004150EA010206D00A0DA2F514
:1005F0006072C1F31301002A02DC30BC0020704796
:10060000440F44EAC104C100E01830BC00EBC25002
:1006100000F031B8202A04DB203A00FA02F1002071
:1006200070479140C2F1200320FA03F31943904030
:100630007047202A04DB203A21FA02F0002170479B
:1006400021FA02F3D040C2F120029140084319463A
:100650007047202A06DBCB17203A41FA02F043EA22
:10066000E07306E041FA02F3D040C2F1200291406B
:100670000843194670470029A8BF7047401C49002D
:1006800008BF20F00100704710B4B0FA80FC00FAF7
:100690000CF050EA010404BF10BC704749B1CCF122
:1006A000200421FA04F411FA0CF118BF01212143AE
:1006B0000843A3EB0C01CB1D4FEA00614FEA102069
:1006C00042BF002010BC704700EBC350104400290B
:1006D000A4BF10BC7047401C490008BF20F00100B7
:1006E00010BC704710B5141E73F1000408DA401CEA
:1006F00041F1000192185B411A4301D120F0010041
:1007000010BD2DE9F04D92469B4611B1B1FA81F230
:1007100002E0B0FA80F220329046FFF77BFF0446F9
:100720000F4640EA0A0041EA0B0153465A46084385
:1007300013D0114653EA010019D0C8F140025046C7
:10074000FFF777FF05460E46504659464246FFF7EB
:1007500061FF084305D0012004E020463946BDE88A
:10076000F08D0020054346EAE0762C4337430A9893
:100770006305E40AA0EB08000022FD0A44EA47549E
:100780000A3002D500200146E9E701051019694148
:10079000DDE9084500196941BDE8F04DA2E7000018
:1007A000064C074D06E0E06840F0010394E80700BE
:1007B00098471034AC42F6D3FFF7FCFC9C65000868
:1007C000BC65000870B58C1810F8015B15F00703C4
:1007D00001D110F8013B2A1106D110F8012B03E0DA
:1007E00010F8016B01F8016B5B1EF9D12B0705D4E2
:1007F0000023521E0DD401F8013BFAE710F8013B2B
:10080000CB1A921C03E013F8015B01F8015B521E46
:10081000F9D5A142D8D3002070BDFEE7014800F011
:1008200009BC00001C030020014800F003BC0000CC
:100830001C03002070B520481E49002401600321DC
:10084000C0E901144FF40021C0E903414FF4401105
:100850004161047644768476C47604770125457731
:1008600000F0E6FC18B11F2114A004F05AFD18484E
:100870004FF4007140F2FF128460016008210161B1
:10088000183084600260C0E90341183001460562F7
:10089000C0E906450461046044604461064800F014
:1008A000B3FA0421044800F036FABDE8704002486B
:1008B00000F086BD006400401C0300202E2E5C4228
:1008C00053505C6273705F63616E2E6300000000C2
:1008D0002462002010B5042806DD202804D1034836
:1008E000FFF70FFD00F084F8002010BD1400002079
:1008F0000020704710B500220449054803F056FB5C
:100900000449034803F04CFB002010BD440F0020B5
:10091000200500204407002070B50D46044601461E
:10092000064803F03DFB054803F01EFB28882146DE
:1009300082B2034802F0B2FC002070BD2005002006
:1009400084030020094A10B5D2F81822D2F81422E4
:100950000AB1012010BD0A460146044803F026FBF7
:10096000BDE81040014803F061BB000020050020F5
:100970001A4B30B40A461968491C19600368A3F27F
:100980000123042B27D2DFE803F0020A121A3229CE
:1009900002D80146124816E01146114818E03229E3
:1009A00002D801460F480EE011460E4810E03229E9
:1009B00002D801460C4806E011460B4808E03229EF
:1009C00004D80146094830BC00F09AB907481146DE
:1009D00030BC00F025B930BC70470000EC010020AD
:1009E000A8620020F4620020406300208C63002095
:1009F00070B54D4C4D49606BCD14006888420AD0EB
:100A00004B49884207D049496031884203D0484960
:100A10006031884201D1202124E0444918318842C4
:100A20000BD043491831884207D040497831884279
:100A300003D03F497831884201D1294612E03B4A30
:100A40004FF40011303290420CD0394A303290428B
:100A500008D0364A9032904204D0354A90329042C3
:100A600000D08901026822F001020260606B304A06
:100A700000684832904202D92D48001F05E02B4AF9
:100A8000A832904203D92A480838016008E0274B71
:100A9000264A4833103A984201D9D16000E091606B
:100AA000214802F090F920B14FF4B27121A004F076
:100AB00038FC264900200A790AB1022A01D0E060F8
:100AC00002E04FF40052E2604A791AB1012A03D0E1
:100AD000022A04D0206105E04FF4C06201E04FF427
:100AE000806222618A79072A1CD0082A1AD12269D9
:100AF000C2B14FF48052A260096861600C21C4E960
:100B00000510E061084802F079FA20B140F2A51121
:100B100008A004F006FC2A46BDE870400C490248D3
:100B200002F07CBBA060E7E7840300201060024075
:100B3000106402402E2E5C5372635C757362645FB6
:100B40006364635F69662E63000000001400002088
:100B500044170020014800F0A3BC0000240400203A
:100B6000014800F09DBC0000C4030020014800F0D3
:100B700097BC00008404002001681823CAB2103A10
:100B8000B2FBF3F2054B6FF30901032A9B5CC365CB
:100B900000D9091D816508467047000034650008CA
:100BA00010B5014600208B698A6A4FF0C07453B1BA
:100BB000B3F5005F15D072B1012A0CD0022A0AD019
:100BC000032A09D104E01AB1012A06D0022A03D16E
:100BD000C96AC90100D5012010BDC96AA142FAD075
:100BE00010BD002AF7D0012AF2D0022AF3D0032A3E
:100BF000F3D010BD30B50468256825F48025256044
:100C0000046863608368402B036803D099600068C0
:100C1000C26030BD9A600068C16030BD704700009E
:100C200030B5002304681A464460098849BA016057
:100C300001684468091BC1602E491C4609683229B5
:100C400001D2C46119E0C16841F65835E94206DABB
:100C5000816B491C8163C16801F500510CE0C168DA
:100C600041F65835A94206DD816B491E8163C16892
:100C7000A1F5005100E0C168C1610168856B01EB1D
:100C80004531816001688569DFED1B0A491B00EE73
:100C9000101AB8EEC00A20EE200ADFED180A20EE86
:100CA000200A80ED100AC16900EE101A017DB8EE2D
:100CB000C00A00EB8105491C017585ED080A017D1C
:100CC000062900D1047500EE102A00EB83015B1C9D
:100CD000B8EEC00AD1ED080A062B30EE800ABDEE50
:100CE000C00A10EE102AEEDB062192FBF1F1C1637F
:100CF00030BD0000EC0100200000B44300000039CA
:100D0000118849BA816181698160816941600169A5
:100D1000491C0161704790F82020012A09D090F801
:100D20002020022A05D0416A41F48021416201203D
:100D30007047006842690A43426100207047F0B57D
:100D400090F82040012C07D090F82040022C03D0CE
:100D5000416A41F4802153E00468A5686D0105D41F
:100D6000A5682D0102D4A568ED0046D5A46801252B
:100D7000C4F30164A5401D608D684FF4C0739DB13C
:100D8000CE6835434E6845EAC605066803EB04178E
:100D9000F5514FF4C275076805EB04150E697E51D5
:100DA000097D012905D009E00E88CD6845EA465540
:100DB000EBE701684E5946F480764E511179D2F82E
:100DC00005504FF4C67641EA0521056806EB041686
:100DD000A9511178D2F801204FF4C47541EA0221DB
:100DE000026805EB04155151006803EB04114258E9
:100DF00042F0010242500020F0BD416A41F400116E
:100E000041620120F0BD000010B590F82020012AB9
:100E100009D090F82020022A05D0416A41F48021AF
:100E20004162012010BD3A48D0F8002242F0010290
:100E3000C0F80022D0F8002222F47C52C0F8002230
:100E4000D0F800224B6A42EA0322C0F800220B7D50
:100E500001229A40D0F81C329343C0F81C32CB696F
:100E6000B3B9D0F80C329343C0F80C328C894B687C
:100E700064F31F434C6900EBC404C4F840320C898E
:100E80000B6864F31F434C6900EBC404C4F844329C
:100E9000CB69012B16D1D0F80C321343C0F80C32B9
:100EA0000C884B6864F31F434C6900EBC404C4F81E
:100EB00040320C89CB6864F31F434C6900EBC404D7
:100EC000C4F844328B69002BD0F804320ED013439F
:100ED000C0F804320B69002BD0F8143208D0134349
:100EE000C0F81432096A012904D008E09343EFE7FF
:100EF0009343F5E7D0F81C121143C0F81C12D0F848
:100F0000001221F00101C0F80012002010BD000005
:100F100000640040704790F820300022012B03D07D
:100F200090F82030022B04D1006821B1006900F054
:100F3000030210467047C068F9E730B590F82040CA
:100F4000012C07D090F82040022C03D0416A41F4D4
:100F5000802109E011B1012909D00CE00468E4689E
:100F600007E0416A41F400114162012030BD04688C
:100F70002469A407F5D04FF4D874056804EB011474
:100F80002D5915F00405956005682D5942D0ED08DE
:100F9000556005682C59C4F34004D4604FF4DA74EA
:100FA000056804EB01142D5905F00F05156105685E
:100FB0002D59C5F30725956105682C59240C5461FA
:100FC0004FF4DC72046802EB0112A4581C70046830
:100FD000A458240A5C700468A458240C9C7004680B
:100FE000A258120EDA704FF4DE72046802EB01129E
:100FF000A4581C710468A458240A5C710468A4589D
:10100000240C9C710468A258120EDA7129B10129CE
:1010100009D00DE06D0D1560BBE70068C16841F0B7
:101020002001C16004E00068016941F02001016114
:10103000002030BD2DE9F05F0546006800244669B8
:10104000D0F804908768D0F80CB0D0F810A0D0F891
:101050001880F10748D0F90714D001218160B80742
:1010600003D5284600F0D9F90CE0780702D54FF4F3
:10107000006407E0380702D54FF4805402E02846A8
:1010800000F0CAF9F80516D529684FF48070886019
:10109000B80503D5284600F0C2F90CE0780502D562
:1010A00044F4005407E0380502D544F4804402E0DB
:1010B000284600F0B3F9F80316D529684FF48030BC
:1010C0008860B80303D5284600F0ABF90CE078033C
:1010D00002D544F4004407E0380302D544F48034D8
:1010E00002E0284600F09CF9300707D55FEACB60A4
:1010F00004D52968102044F40074C86070074FF0CC
:10110000080707D55FEA0B7004D52868C760284632
:1011100000F050F9B00706D52868C068800702D0F3
:10112000284600F048F9700607D55FEACA6004D582
:101130002968102044F480640861B00607D55FEA8E
:101140000A7004D528680761284600F035F9F006D2
:1011500006D528680069800702D0284600F02DF9DE
:10116000B00308D55FEAC96005D52968102048603A
:10117000284600F023F9F00307D55FEA097004D58B
:1011800028684760284600F04DF9300446D55FEAEC
:10119000497040D5F00504D55FEAC87001D044F02D
:1011A0000104B00504D55FEA887001D544F002045B
:1011B000700504D55FEA487001D544F00404300599
:1011C00029D518F0700F26D008F07000402815D0EF
:1011D00006DC102809D020280AD0302816D10AE0D1
:1011E00050280ED0602811D10EE044F008040DE024
:1011F00044F010040AE044F0200407E044F0400406
:1012000004E044F0800401E044F4807428688169BB
:1012100021F070018161296804204860002C05D00C
:10122000686A204368622846FFF774FEBDE8F09FB5
:1012300070B5040003D094F8200010B104E0012040
:1012400070BD204600F082F82068016821F002019C
:10125000016000F075FC0546052604E000F070FC16
:10126000401B0A2811D8206840688007F6D42068FF
:10127000016841F00101016000F062FC05460BE0ED
:1012800000F05EFC401B0A2806D9606A40F400307A
:10129000606284F82060D2E720684068C007EFD021
:1012A000207E0128206801683DD021F08001016086
:1012B000607E01282068016838D021F0400101607B
:1012C000A07E01282068016833D021F02001016050
:1012D000E07E0128206801682ED041F010010160F5
:1012E000207F01282068016829D021F008010160D1
:1012F000607F01282068016824D021F0040101608A
:10130000D4E902010843D4E9041211430843616897
:10131000491E08432168C86100206062012084F8EA
:101320002000002070BD41F08001C0E741F0400185
:10133000C5E741F02001CAE721F01001CFE741F0F5
:101340000801D4E741F00401D9E7000000B50068C6
:10135000154987B0884225D114480021026842F01F
:10136000007202600068022200F000700590032005
:10137000CDE90210CDE900020920049069460C482D
:1013800000F0F2FA00220521132000F09BFC13204C
:1013900000F08DFC00220521142000F093FC1420A5
:1013A00000F085FC07B000BD0064004040380240FA
:1013B000000C02407047704770477047704700004C
:1013C00070B5044690F82000012804D0606A40F40B
:1013D0000020606218E0022084F820002068016884
:1013E00021F00101016000F0ABFB05460EE000BFFB
:1013F00000F0A6FB401B0A2808D9606A40F40030C0
:101400006062052084F82000012070BD20684068DB
:10141000C007EDD1606270BD70477047704770477C
:1014200070477047704790F83510022903D080212B
:10143000416501207047052180F83510006801687A
:1014400021F0010101600020704770B5040025D033
:1014500094F83500022820D02068016821F00101AD
:10146000016020680025056020684560206885606F
:101470002068C560206805612168212048612046F8
:10148000FFF77AFB94F85C203F219140816065650D
:1014900084F8355084F83450002070BD012070BDB0
:1014A0002DE9F84304464FF00009CDF80090634859
:1014B0004FF41651A56D0068B0FBF1F72E6894F853
:1014C0005C10082000FA01F131420FD021680A684F
:1014D00052070BD50A6822F004020A6094F85C10E7
:1014E0008840A860606D40F00100606594F85C1071
:1014F0004FF0010808FA01F0304208D0216849692C
:10150000090604D5A860606D40F00200606594F89B
:101510005C1004208840304208D02168096889079F
:1015200004D5A860606D40F00400606594F85C101C
:1015300010208840304218D021680968090714D566
:10154000A86020680168490304D50068000308D535
:10155000A16C07E00168C90503D4016821F0080106
:101560000160216C09B12046884794F85C10202066
:101570008840304231D021680968C9062DD5A8605D
:1015800094F8350005282068016806D0490347D53E
:10159000006800031DD4616C1CE021F0160101609D
:1015A0002068416921F080014161206C08B9A06C7C
:1015B00020B12068016821F00801016094F85C10F6
:1015C0003F208840A86084F8349084F83580216DED
:1015D0001FE0E16B09B120468847606D00282BD0E1
:1015E000606DC00714D0052084F8350020680168BC
:1015F00021F0010101600098401C0090B84203D81E
:1016000020680068C007F6D184F8349084F83580EB
:10161000E16C002910D001B02046BDE8F043084736
:101620000168C905D5D4016821F01001016084F872
:10163000349084F83580CCE7BDE8F8835C00002066
:101640002DE9F041044600F07BFA06465CB1002526
:1016500084F83450022084F835002068016821F0B5
:10166000010101600DE00120BDE8F08100F068FAA1
:10167000801B052805D920206065032084F83500EB
:10168000F2E720680068C007F0D12268116820489E
:101690000140D4E901031843D4E903363343184326
:1016A00063691843A3691843E3691843236A18431D
:1016B0000843616A042903D1D4E90B131943084391
:1016C000106020684069666A20F0070130460E43CA
:1016D000012704280CD1A06A0643E06A40B12046E5
:1016E000FFF75EFA20B14020606584F83570BAE7F4
:1016F000206846612046FFF73FFA94F85C203F21BE
:1017000091408160656584F835700020ACE7000089
:101710003F8010F070B5044690F834000025012891
:101720000CD0012084F8340094F835600020012E9C
:1017300006D084F834000225284670BD022070BD12
:10174000022684F8356060652046FFF753FA20686A
:10175000016841F001010160EEE72DE9F041044626
:10176000866D90F83400002501280DD0012084F802
:10177000340094F835700020012F07D084F834002D
:1017800002252846BDE8F0810220FBE7022784F805
:10179000357060652046FFF72DFA94F85C103F2005
:1017A0008840B0602068016841F01601016020683F
:1017B000416941F080014161206C20B120680168DD
:1017C00041F0080101602068016841F001010160F9
:1017D000D7E7000070B5044600F0B2F90546601C7A
:1017E00002D004480078044400F0AAF9401BA0424B
:1017F000FAD370BD500000202DE9F04FDFF838B16A
:1018000000224FF001094FF00F0A00BF09FA02F45D
:1018100001EA0403A3427DD1066857000325BD40B9
:10182000AE430660D60800EB8606D6F820C0570700
:101830004FEAD7680AFA08F72CEA070CC6F820C066
:101840008668AE4386604668A6434660C468AC437B
:10185000C46022F003055D44D5F808789407260F8C
:101860000AFA06F4DFF8D4C02740604502D14FF0F1
:10187000000C40E0DFF8C8C0604502D14FF0010C19
:1018800039E0DFF8C0C0604502D14FF0020C32E011
:10189000DFF8B4C0604502D14FF0030C2BE0DFF855
:1018A000ACC0604502D14FF0040C24E0DFF8A0C0CA
:1018B000604502D14FF0050C1DE0DFF898C060458F
:1018C00002D14FF0060C16E0DFF88CC0604502D163
:1018D0004FF0070C0FE0DFF884C0604502D14FF0F5
:1018E000080C08E0DFF878C0604502D14FF0090C21
:1018F00001E04FF00A0C0CFA06FCBC4516D1D5F8F5
:101900000868A643C5F80868164C25689D432560FD
:10191000241D00E00AE025689D432560241D2568FC
:101920009D432560241D25689D432560521C102A77
:10193000FFF46CAFBDE8F08F0030014000000240C2
:101940000004024000080240000C02400010024067
:101950000014024000180240001C02400020024017
:1019600000240240003C01402DE9F84FDFF890B11F
:1019700000224FF001084FF0030A4FF00F090BF15E
:10198000040E00BF0B6808FA02F42340A3426ED194
:101990004D68022D01D0122D0ED1D50800EB850C1B
:1019A000DCF820505607F70E09FA07F6B5430E6922
:1019B000BE402E43CCF82060066855000F790AFA25
:1019C00005FC07F0030726EA0C06AF403743076023
:1019D0004E68012E05D0022E03D0112E01D0122EFA
:1019E0000ED18768CE6827EA0C07AE403E4386607A
:1019F0004668A6430C79C4F3001494403443446011
:101A0000C4688E6824EA0C04AE402643C6604C6865
:101A1000E4006FD53B4C256845F48045256024687B
:101A200022F0030504F480440094374C2E19D6F8B4
:101A3000084895072F0F09FA07F5AC43334DA84224
:101A400001D100252EE0324DA84201D1012529E027
:101A5000304DA84201D1022524E02F4DA84201D1EA
:101A600003251FE02D4DA84202D104251AE041E0D4
:101A70002B4DA84201D1052514E02A4DA84201D1E1
:101A800006250FE0284DA84201D107250AE0274D81
:101A9000A84201D1082505E0254DA84201D109251C
:101AA00000E00A25BD402543C6F80858DBF8004091
:101AB0005D464E689C43F60300D51C432C60DEF85F
:101AC000004075464E689C43B60300D51C432C600D
:101AD0000B4D08352C684E689C43F60200D51C431C
:101AE0002C60074D0C352C684E689C43B60200D51F
:101AF0001C432C60521C102AFFF444AFBDE8F88F41
:101B0000003C0140443802400030014000000240E7
:101B10000004024000080240000C02400010024095
:101B20000014024000180240001C02400020024045
:101B3000002402400AB1816170470904FBE70000FC
:101B4000014880687047000050000020024881680A
:101B50000278114481607047500000200B4810B596
:101B6000016841F400710160016841F48061016025
:101B7000016841F480710160032000F0C3F8002087
:101B800000F006F800F03EF8002010BD003C0240D6
:101B900010B5014688B000221D2000F093F81D20EA
:101BA00000F085F813480024016841F0020101604B
:101BB000006805A900F002000690684600F0F2FDFA
:101BC00000F016FE0C494000B0FBF1F10C480B4A46
:101BD000491E026040F2E732C0E90324C0E9011463
:101BE00001F008F810B1012008B010BD044801F060
:101BF0001DF8F9E74038024040420F000004004061
:101C0000E4040020234808B5016841F480410160E4
:101C1000006800F4804000901E48001F016841F0F9
:101C200080510160006800F080500090032000F0B7
:101C300069F8002211466FF00B0000F043F8002213
:101C400011466FF00A0000F03DF8002211466FF0D7
:101C5000090000F037F800221146501F00F032F85A
:101C600000221146101F00F02DF800220F21901EB7
:101C700000F028F800220F21501E00F023F8052163
:101C80000022084600F01EF8BDE80840052000F0DC
:101C90000EB800004438024000F01F0201219140BC
:101CA0004009800000F1E020C0F88011704700F08A
:101CB0001F02012191404009800000F1E020C0F89E
:101CC00000117047F0B40E4B1B680C46C3F302239F
:101CD000C3F10705042D00D90425191D072901D2D8
:101CE000002300E0DB1E012606FA05F1491E214013
:101CF00099409E40761E16403143F0BC01F052BC24
:101D00000CED00E0064900F0070208684FF6FF03FB
:101D1000184040EA0220034A104308607047000060
:101D20000CED00E00000FA050068416200207047F9
:101D3000F0B500680023446A31B1856A4FF48276B9
:101D400004EB15444D1E0AE044EA024181620FE0B3
:101D500006EB8307C7595B1C04EB1744DBB2AB42AD
:101D6000F6DB4FF4807303EB810144EA02424250F8
:101D70000020F0BDD0F8EC0302F080BBC1EBC10243
:101D800000EB8202D0F8EC03526C02F0EDBAC1EB2A
:101D9000C10200EB8202D0F8EC03D2F8042202F078
:101DA00038BBD0F8EC0302F06BBB10B504460A4612
:101DB0000B0601F07F00C0EBC00104EB810101D5EF
:101DC000383101E001F5FC710870D009487094F8D1
:101DD000B803012809D0012084F8B803206802F074
:101DE00091FE002084F8B80310BD022010BD70B52C
:101DF0000A460446090602F07F0005D5C0EBC00183
:101E000004EB8101383105E0C2EBC20104EB810132
:101E100001F5FC7100258D700870D009487094F8A8
:101E2000B803012809D0012084F8B803206803F022
:101E30004AF884F8B853002070BD022070BD01F04C
:101E40000F01C1EBC10100EB8100B0F8100280B2BC
:101E5000704770B504460D460E0601F07F00C0EBDA
:101E6000C00104EB810101D5383101E001F5FC71BD
:101E7000ED0908704D708A60CB7000D0C8800025D5
:101E8000022B00D10D7194F8B803012809D001206C
:101E900084F8B803206802F089FD284684F8B85316
:101EA00070BD022070BD70B50C4601F07F05C5EB1A
:101EB000C50100EB8101C1F80C32C1F804220023F6
:101EC000C1F8103281F8F93181F8F851036901F550
:101ED000FC71012B00D10A616206027C006803D00C
:101EE00003F052F8002070BD02F02EFFFAE770B543
:101EF0000D460446090605F07F0005D5C0EBC0017C
:101F000004EB8101383105E0C5EBC50104EB81012B
:101F100001F5FC7101228A700870E809487094F894
:101F2000B803012807D084F8B823206802F0FDFF29
:101F3000680602D007E0022070BD217C04F56F72B4
:101F4000206802F0A1FF002084F8B80370BD70B5CE
:101F50000C4601F07F05C5EBC50100EB8101CB64A8
:101F60004A6400230B65012381F8393001F8385F9A
:101F70000369012B00D10A616206027C006803D06C
:101F800003F002F8002070BD02F0DEFEFAE7000068
:101F90002DE9F84F044600680026054603F048F98D
:101FA000002875D1206803F06CF9002870D02068F3
:101FB00003F067F9800704D52068416901F0020148
:101FC0004161206803F05DF9010304F56F704FF083
:101FD000010B4FF0000A00904DD5206803F033F953
:101FE000074646E0F80742D0F1B2206803F041F915
:101FF0008046C00728D005EB4612C2F808BB20690E
:10200000012811D1C6EBC60004EB8001D2F8102BD9
:10201000D1F80002C2F31202821AC1F81022D1F8DC
:1020200004221044C1F80402F1B22046FFF7AFFECB
:102030002069012808D13EB9D4F80C0220B92068E3
:102040000121009A02F020FF5FEA087007D52046C0
:1020500000F0DCFA05EB46110820C1F8080B5FEA36
:10206000C86004D505EB46111020C1F8080B7F08A5
:10207000761C002FB6D1206803F003F940034FF01F
:1020800040095ED5206803F0D7F80746002656E0E1
:10209000D2E1F80751D0F1B2206803F0DBF88046B6
:1020A000C00724D0D5F834280BFA06F08243C5F8CF
:1020B000342805EB4610C0F808B92069012807D17B
:1020C000C6EBC60004EB8000D0E910121144416455
:1020D000F1B22046FFF752FE2069012807D136B938
:1020E000E06C20B920680121009A02F0CDFE5FEA81
:1020F000087004D505EB46110820C1F808095FEA0D
:10210000C86004D505EB46111020C1F808095FEA44
:10211000486003D505EB4611C1F808995FEA88705D
:1021200004D505EB46110220C1F808095FEA0860F2
:1021300003D53146204601F04BFA7F08761C002F6C
:10214000A7D1206803F09DF800280DDAD5F804081F
:1021500020F00100C5F80408204600F03DFA21688F
:10216000486900F000404861206803F08AF80005E3
:102170000BD5D5F80808C00702D0204600F062FA57
:102180002068416901F400614161206803F079F839
:10219000C0044CD5D5F8040820F00100C5F80408A7
:1021A0001021206803F014F80020FF2107E000BF91
:1021B00005EB4012C2F80819C2F8081B401C6268FF
:1021C0008242F5D84FF0FF30C5F81808D5F81C0842
:1021D00040F00110C5F81C08206B60B1D5F88408E8
:1021E00040F00B00C5F88408D5F8440840F00B0017
:1021F000C5F844080BE0D5F8140840F00B00C5F80A
:102200001408D5F8100840F00B00C5F81008D5F8F0
:10221000000820F4FE60C5F80008217C2068009AC0
:1022200002F032FE2168486900F48050486120685D
:1022300003F027F880047DD5206802F0F7FB2068C2
:10224000C16821F47051C160206802F0D3FF78B1F9
:102250000320C4F81490E06000F0C4FA7749784A8B
:10226000014491420AD22068C16841F4705158E09B
:102270004FF40070C4F80CA0606136E07149724AF6
:102280000144914204D22068C16841F4605148E0A1
:102290006E496F4A0144914204D22068C16841F4FA
:1022A00050513EE06B496C4A0144914204D220688F
:1022B000C16841F4405134E06849694A014491429F
:1022C00004D22068C16841F430512AE06549664A69
:1022D0000144914204D22068C16841F4205120E0B9
:1022E0006249421862498A4204D22068C16841F4B6
:1022F000105116E05F49604A0144914204D22068BF
:10230000C16841F400510CE05C4908445C498842D2
:102310002068C16803D241F4E05102E00AE041F4D0
:10232000C051C160204600F047F92068416901F4BE
:1023300000514161206802F0A4FFC00636D5216833
:10234000886920F010008861D5F8208008F00F001F
:10235000C0EBC00004EB8007C8F3434007F5FC77EF
:10236000022802D0062812D01BE047F6F07018EAC7
:10237000000F16D0C8F30A1290462846F96802F0FA
:1023800084FFF8684044F860B869404408E00822D7
:102390002846009902F079FFB969C8F30A10084489
:1023A000B8612068816941F010018161206802F004
:1023B00068FF000707D5204600F012F92068416940
:1023C00001F008014161206802F05BFFC00208D5FE
:1023D000F1B2204600F056F82068416901F48011FE
:1023E0004161206802F04DFF800208D5F1B220461D
:1023F00000F04CF82068416901F400114161206847
:1024000002F03FFF400007D52046FFF7B3FC2068ED
:10241000416901F080414161206802F032FF4007CC
:102420000AD520684568680702D52046FFF7B9FC41
:102430002068416829434160BDE8F88F405327FF79
:1024400000350C00401E1BFF40420F0000DC0BFF5C
:10245000804F1200808CF9FE20D6130060B6E5FE96
:1024600060E3160000D3CEFE40771B00C05BB3FED6
:10247000C091210000CA91FE20753800E05459FE39
:10248000E09C4100D0F8EC0302F058B8D0F8EC031F
:1024900002F056B8F0B58BB004004FF0000556D0EE
:1024A000032084F8B903204600F054F8206802F0B5
:1024B00045FC04F1100128220F466846FDF721FF74
:1024C00094E80F0002F0CCFA0021206802F0EDFE43
:1024D00001260020C5EBC50104EB810181F83960BC
:1024E00001F8385FCD80C8708860C8606D1C486195
:1024F0000F2DEFD300214FF4827300BFC1EBC10257
:1025000004EB820203EB810582F8F90182F8F811ED
:10251000D18782F8FB01C2F80002C2F80402C2F8B7
:102520000C0222685051491C0F29E7D32822394652
:102530006846FDF7E6FE94E80F0002F05FFB84F8C2
:10254000B963206802F04EFB00200BB0F0BD012003
:10255000FBE7000000B5006887B0B0F1A04F25D1BF
:102560004FF4C05000900220019000200290032000
:1025700003900A20049069460D48FFF7F5F90D48CD
:10258000016841F0800101600A481030016841F49F
:10259000804101600068002200F4804005901146EF
:1025A0004320FFF78FFB4320FFF781FB07B000BDFF
:1025B000000002403438024010B50446C0680121D2
:1025C00000B90021D4F8EC0302F010F8D4F8EC03C1
:1025D000BDE8104001F0D9BFD0F8EC0301F0F4BF22
:1025E000D0F8EC0301F0F6BF10B5044690F8B8033C
:1025F000012809D0012084F8B803206802F06BFE9E
:10260000002084F8B80310BD022010BDD0F8EC23E0
:1026100000F56F71104601F0FCBF10B5044690F84C
:10262000B80301280CD0012084F8B803206802F018
:10263000CDFA206802F0B6FD002084F8B80310BD82
:10264000022010BD10B50446D0F8EC0302F02EF8BD
:102650002068D0F8001E41F00101C0F8001E206A79
:10266000002804D00248016841F00601016010BD55
:1026700010ED00E02DE9F0470E46050065D0DFF8CB
:102680001481D8F80000F7B200F00F00B04207D272
:1026900088F80070D8F8000000F00F00B04254D164
:1026A00028683D4C810712D5400703D5206840F4C7
:1026B000E05020602878000703D5206840F460408F
:1026C00020602068A96820F0F00008432060287886
:1026D000C0072DD0304968680839012812D0022877
:1026E00013D0032811D00968890700292DDA216841
:1026F00021F0030101432160FFF722FA814641F2F4
:10270000883A0EE009688903EFE709688901ECE778
:10271000FFF716FAA0EB0901514502D90320BDE8E5
:10272000F0872068696800F00C00B0EB810FEFD1F2
:10273000D8F80010404601F00F01B14207D90770E8
:10274000006800F00F00B04201D00120E7E72878D0
:10275000400705D52068E96820F4E0500843206070
:102760002878000706D52068296920F4604040EAEF
:10277000C100206000F05CF82168084AC1F3031131
:10278000515CC840064908600020FFF701FA0020AC
:10279000C5E70000003C0240083802403C650008E4
:1027A0005C0000200F2202600C4A136803F0030350
:1027B0004360136803F0F0038360136803F4E0538D
:1027C000C36012684FF4E05303EAD2020261044886
:1027D000006800F00F0008607047000008380240F1
:1027E000003C024001480068704700005C00002087
:1027F0000448054900680968044AC1F38221515C14
:10280000C84070475C000020083802404C65000852
:102810000448054900680968044AC1F34231515C23
:10282000C84070475C000020083802404C65000832
:10283000154810B5006810F00C02144813D0144964
:10284000042A0FD0082A0ED10F4C241F22682368B7
:1028500002F03F025B0207D52068C0F38810A0FB9E
:10286000010106E0084610BD2168C1F38811A1FBF3
:1028700000010023FDF714FD2168C1F30141491C4B
:102880004900B0FBF1F010BD083802400024F4000C
:10289000001BB7002DE9F84F050076D02878DFF847
:1028A000F8B2BE4CC00749D0DBF800105846C1F35F
:1028B0008101012908D00068C0F3810002280AD1F3
:1028C000201D0068400206D52068800336D5686860
:1028D0000028E2D032E06868B0F5803F10D0B0F553
:1028E000A02F206810D020F480302060206820F4D1
:1028F000802020606868A0B1FFF722F906460CE04E
:10290000206840F48030F4E740F480202060F7E74E
:10291000FFF716F9801B642873D820688003F7D569
:102920000CE0FFF70DF9064605E000BFFFF708F9D8
:10293000801B6428F0D820688003F7D42878DFF85B
:10294000608280074FF000093ED5DBF80010584642
:1029500011F00C0F09D00068C0F3810002280BD1E0
:102960008D48001F0068400206D42068800715D5F6
:10297000E868012809D111E0E868B8B10120C8F879
:102980000000FFF7DDF8064605E002E1FFF7D8F8A2
:10299000801B0228C0D820688007F7D520682969E5
:1029A00020F0F80040EAC10020600DE0C8F8009077
:1029B000FFF7C6F8064604E0FFF7C2F8801B0228BE
:1029C0001FD820688007F7D42878000722D5724ED8
:1029D000744869696C3671B101210160FFF7B0F884
:1029E000074604E0FFF7ACF8C01B022809D830689E
:1029F0008007F7D50EE0C0F80090FFF7A1F8074672
:102A000005E083E0FFF79CF8C01B02287ED8306801
:102A10008007F7D42878400768D5DFF87CA1002725
:102A20000AF1380ADAF80000C0000BD4DAF8001016
:102A300041F08051CAF80010DAF80000012700F0D8
:102A400080500090584E3068C00510D4306840F473
:102A500080703060FFF774F8009005E0FFF770F8C1
:102A60000099401A022851D83068C005F6D54A4E60
:102A7000A868683601280FD00528306810D020F0EB
:102A800001003060306820F004003060A868B8B100
:102A9000FFF756F800900FE0306840F00100F4E7CF
:102AA00040F004003060F7E7FFF74AF80099411A58
:102AB00041F28830814264D830688007F4D50EE056
:102AC000FFF73EF8009007E0FFF73AF80099411A47
:102AD00041F28830814254D830688007F4D42FB155
:102AE000DAF8001021F08051CAF80010A869C0B3CC
:102AF000DBF80010C1F3810102294AD002284846C0
:102B000007D0C8F86000FFF71BF800E039E0054681
:102B10003AE04746C8F86000FFF712F8064604E0BE
:102B2000FFF70EF8801B02282BD820688001F7D40D
:102B3000D5E907010843A96A1C4A490802EB01418B
:102B40006A6A41EA8211084395F82C1040EA016153
:102B50001148001F016001203866FEF7F1FF0546AD
:102B600005E014E0FEF7ECFF401B022809D82068BE
:102B70008001F7D50BE000BFFEF7E2FF401B022803
:102B800002D90320BDE8F88F20688001F4D400202A
:102B9000F8E70120F6E7000008380240003802405C
:102BA00000004742800E4742007000400000FFFFD7
:102BB0004FF0E0210428086903D020F004000861E8
:102BC000704740F00400FAE710B5401EB0F1807F76
:102BD00001D3012010BD4FF0E02460610F21601788
:102BE00000F0E0FC0020A06107202061002010BD63
:102BF0007047704710B5040003D094F8390010B145
:102C000007E0012010BD002084F83800204600F0C5
:102C10000CF8022084F83900211D206800F04CFED9
:102C2000012084F83900002010BD70470168CA688F
:102C300042F00102CA600068016841F001010160D0
:102C400000207047704770B50446006801694FF076
:102C50000005C943890715D4C168C943890711D440
:102C6000E91E0161012020762068806980072046E6
:102C700002D0FFF7E7FF04E000F098F8204600F0EC
:102C800096F8257620680169C943490717D4C168B9
:102C9000C943490713D46FF0040101610220207673
:102CA0002068806910F4407F204602D0FFF7CAFFF9
:102CB00004E000F07BF8204600F079F825762068E3
:102CC0000169C943090716D4C168C943090712D469
:102CD0006FF008010161042020762068C069800738
:102CE000204602D0FFF7AEFF04E000F05FF8204678
:102CF00000F05DF8257620680169C943C90617D43C
:102D0000C168C943C90613D46FF0100101610820DE
:102D100020762068C06910F4407F204602D0FFF77B
:102D200091FF04E000F042F8204600F040F82576DC
:102D300020680169C943C90708D1C168C943C907E7
:102D400004D1891E0161204600F032F82068016933
:102D5000C943090609D4C168C943090605D46FF0FF
:102D6000800101612046FFF743FF20680169C943E4
:102D7000490609D4C168C943490605D46FF040012A
:102D80000161204600F01EF820680169C9438906E8
:102D90000BD4C168C943890607D46FF020010161D3
:102DA0002046BDE87040FFF724BF70BD70477047F4
:102DB00000680349884201D1FEF7C8BE7047000091
:102DC00000040040704710B504000ED0242084F8A1
:102DD0003900204600F044F90020E06384F839000F
:102DE00084F83A0084F8380010BD012010BD704707
:102DF00030B401680A68D2060A6864D54968416B34
:102E0000384A096891420AD0374A914207D0354A78
:102E10006032914203D0344A6032914201D1202283
:102E200022E0304B1833DA1499421DD02E4B183360
:102E3000994219D02B4B7833994215D02A4B7833CD
:102E4000994211D0274B9202303399420CD0264B35
:102E50003033994208D0234B9033994204D0224B0F
:102E60009033994200D092010B6823F001030B606C
:102E7000416B1D4B09684833994202D91A49091F11
:102E800005E0184BA833994203D9174908390A605D
:102E900008E0144C134B4834103BA14201D9DA60CE
:102EA00000E09A60426B818D13685B68CB1AC38522
:102EB00012685160416B09680A6842F001020A60B9
:102EC00030BC00F0FFBD52060AD56FF040020A6028
:102ED0000168CA6822F04002CA60202180F83910D7
:102EE00030BC7047106002401064024070B5026848
:102EF00004461068D168536910F00F0F50D003F0EA
:102F0000010501F4907635435DD0C20705D0CA05AE
:102F100003D5E26B42F00102E263420705D5DA070E
:102F200003D0E26B42F00202E263820705D5DA07C2
:102F300003D0E26B42F00402E263020705D5DA0730
:102F400003D0E26B42F00802E263E26B002A33D066
:102F5000800604D5880602D5204600F06DFD206865
:102F60004069E16BC0F38010090700D428B3204604
:102F700000F04BFD2068416949061AD5416921F0EE
:102F800040014161606BA0B11B490165606BFEF7B8
:102F90004AFA002810D0606B016DBDE87040084708
:102FA000830610D58B060ED52046BDE8704000F094
:102FB00043BD2046FFF71BFF70BD2046FFF717FFFC
:102FC0000020E06370BD030606D50B0604D520463D
:102FD000BDE8704000F0D0BE4006F3D54806F1D5FC
:102FE000D168204621F04001D160202184F83910B9
:102FF00000F094F970BD00007939000870B5040044
:1030000004D094F83900002510B106E0012070BD0D
:1030100084F83850204600F059F8242084F839000C
:103020002068C16821F40051C160204600F04EFDC7
:103030002068016921F4904101612068416921F013
:103040002A0141612068C16841F40051C160E56313
:10305000202084F8390084F83A00002070BD000078
:1030600010B50446144A0168144891420CD1016815
:1030700021F010010160C0211148FEF7BDFB606B1B
:10308000FEF7E3F9252012E00E4A914213D10168C0
:1030900021F0200101604FF484410B48FEF7ACFBA6
:1030A000606BFEF7D2F9206BFEF7CFF94720BDE841
:1030B0001040FEF7F1BD10BD001001404438024041
:1030C0000004024000140140001802402DE9F041C4
:1030D000064605684748DFF818C10221012203238C
:1030E0000024071586B065452ED1056845F010050A
:1030F0000560006800F010000590C0208DE80F000A
:103100000720049069463C48FEF72EFC3C4D3B48A6
:1031100028607804C5E90104C5E903476C61AC6126
:10312000EC612C6228466C62FEF78AFA18B18E2197
:1031300034A002F0F6F87563002211462520AE6334
:10314000FEF7C0FD25204EE0DFF8C8C065454CD134
:10315000056845F020050560006800F02000059036
:103160004FF484408DE80F000820049069462A48F7
:10317000FEF7FAFB224D21486035183828604FF0E1
:103180002068C5E90184C5E903476C61AC61EC6165
:103190002C6228466C62FEF753FA18B1BB2119A0C5
:1031A00002F0BFF87563AE63154D1448C03560304A
:1031B000E5E80208402091C5114845F81449C0309F
:1031C000AC61EC612C626C62FEF73AFA18B1CD2169
:1031D0000CA002F0A6F83563002205214720AE635B
:1031E000FEF770FD4720FEF762FD06B0BDE8F081F6
:1031F0000010014044380240000402404064024094
:10320000C40300202E2E2F5372632F7573617274C6
:103210002E6300000014014000180240F8B5044677
:103220000068C36843F01003C36094F83A00202894
:1032300030D169B362B394F8380001282AD0012054
:1032400084F83800A162A2850025E563222084F875
:103250003A0008461346666B216802463046091D4F
:10326000FEF758FA206801684168009184F83850E8
:10327000C16841F48071C1602068416941F0010179
:1032800041612068416941F0400141610020F8BD81
:103290000120F8BD0220F8BD7047000070B504465B
:1032A00090F83900202830D169B362B394F838001F
:1032B00001282AD0012084F838002162A284E28407
:1032C0000025E563212084F83900236B1048D8637A
:1032D000236B10481864236B0F48D864206B134687
:1032E00005652668206B321DFEF737FA21686FF0FE
:1032F0004000086084F838502068416941F080013E
:103300004161002070BD012070BD022070BD000031
:10331000D3390008013A000889390008704770471E
:10332000FEE70000104810B50E4901601021416011
:1033300000214FF400228160C0E903129200426133
:103340000176417681760122C27601774277FDF7D8
:103350006FFF002805D0BDE810404F2103A001F009
:10336000E0BF10BD006400401C0300202E2E2F5330
:1033700072632F63616E2E6300000000114808B570
:10338000016841F4800101600068002200F48000BF
:10339000009005213920FEF795FC3920FEF787FCC7
:1033A000002211463A20FEF78DFC3A20FEF77FFC02
:1033B000002205214520FEF785FCBDE80840452098
:1033C000FEF775BC3038024000B585B014220849BC
:1033D0006846FCF796FF0021684602F011FA05499D
:1033E000086002F019F902F02BF905B000BD0000E9
:1033F00020650008000000202DE9F0412F4886B02C
:103400000024016841F040010160016801F04001C1
:103410000591016841F001010160016801F00101BD
:103420000591016841F002010160016801F00201AB
:103430000591016841F008010160016801F008018F
:103440000591016841F080010160016801F080018F
:103450000591016841F010010160016801F010015F
:103460000591016841F0200101600068144F00F0EF
:1034700020004FF400650590002229463846FEF7EB
:1034800059FBDFF84080EE00002231464046FEF74F
:1034900051FB00950125CDE9015469463846039456
:1034A000FEF762FA0096CDE901546946404603945E
:1034B000FEF75AFA06B0BDE8F0810000303802404D
:1034C00000100240001402400E4810B50C49016083
:1034D0000D49416000214FF480628160C0E9031210
:1034E0000C22C0E90521C161FFF788FD002805D045
:1034F000BDE81040512105A001F013BF10BD000030
:103500000010014044030020A08601002E2E2F53FE
:1035100072632F75736172742E6300000D4810B5CD
:103520000B4901604FF4E1314160002181600C22C0
:10353000C160C0E904128161C161FFF75FFD00282D
:1035400005D0BDE81040642103A001F0EABE10BD23
:1035500000140140840300202E2E2F5372632F7518
:10356000736172742E63000010B500220849094887
:1035700000F0C5FE0849074801F0C5F807490548AD
:1035800000F006FDBDE81040024801F009B9000056
:103590001C00002020050020D8020020040000208C
:1035A000FEE770470907090E002806DA00F00F0051
:1035B00000F1E02080F8141D704700F1E02080F851
:1035C000001470470148FEF7E3BC0000441F0020D0
:1035D0002DE9F84F0F46C1EBC70100EB810582468C
:1035E0000668D5E91301441A286C3835A04200D288
:1035F0000446E01C4FEA900806EB471916E0441A0F
:10360000A868A04200D20446E01C4FEA90089AF84D
:1036100010000090A3B2FAB23046E96801F06CFEE7
:10362000E8682044E860A8692044A861D9F818092E
:1036300080B2404505D9D5E90501814201D2002873
:10364000DDD134B90120D6F83418B8408143C6F82A
:1036500034180020BDE8F88FD0ED021AC0ED031A2F
:1036600090EC020A30EE600A80ED020AD0ED060A04
:1036700020EE801A80ED091AD0ED0A0A90ED072A93
:1036800042EE000A30EE610AC0ED0A0AD0ED081AD7
:1036900071EE200A20EE210A80ED0B0A30EE800A3E
:1036A00080ED040AD0ED0C0AB0EEC01AB4EEE01AB8
:1036B000F1EE10FA06DDB5EEC00AF1EE10FA02DD09
:1036C000C0ED040A7047B1EE600A80ED040A70474D
:1036D00090ED021A80ED031A90EC020A30EE600AB7
:1036E00080ED020AD0ED060A60EE801AC0ED091ADC
:1036F000D0ED0A0A90ED072A42EE000A30EE410AA8
:10370000C0ED0A0A90ED081A71EEA00A20EE010A37
:1037100080ED0B0A30EE800A80ED040AD0ED0C0A31
:10372000B0EEC01AB4EEE01AF1EE10FA0BDDB5EE11
:10373000C00AF1EE10FA02DDC0ED040A03E0B1EEBA
:10374000600A80ED040A90ED040AD0ED050A0D4AE6
:103750009FED0D1A30EE600A10EE101A914202DD54
:1037600030EE810A09E010EE101A084A914202D8A0
:1037700090ED040A03E030EEC10A80ED040A80ED0A
:10378000050A70470000484400004844000048C44F
:103790009FED040A80ED000A80ED010A80ED040A25
:1037A00070470000000000007047012002F004F89C
:1037B000FBE702F01BB8000030B5254893B00025A8
:1037C000016841F080510160006800F08050119064
:1037D0002048016841F4404101600068022400F47F
:1037E0004040119001200090000401908001CDE93B
:1037F000064006200890A820CDE9090404200B907B
:103800006846FFF747F800B1FEE70CA90F2081E8F2
:1038100031004FF4A0500F904FF4805010900521CC
:103820000CA8FEF727FF00B1FEE7FEF7DBFF4FF421
:103830007A71B0FBF1F0FFF7C7F90420FFF7B8F990
:1038400000220F21501EFEF73DFA13B030BD0000DC
:1038500040380240007000401048016841F4700197
:1038600001600F48016841F0010101600C4A00212C
:103870000832116002680B4B1A400260031D0A4AAD
:103880001A60026822F48022026005480C30016050
:1038900002495806803908607047000088ED00E052
:1038A00000380240FFFFF6FE103000240148FFF709
:1038B000CAB90000E4040020F0B50268234B244D8F
:1038C000244E254F254C4FF0804C984209D060453E
:1038D00007D0A84205D0B04203D0B84201D0A042E0
:1038E00004D122F0700E4A6842EA0E0298421BD0C0
:1038F000604519D0A84217D0B04215D0B84213D0B5
:10390000A04211D0164DA8420ED0164DA8420BD0A1
:10391000154DA84208D0154DA84205D0144DA84217
:1039200002D0144DA84203D122F44075CA682A433C
:1039300002608A68C2620A688262984201D0A0422C
:1039400001D10969016301214161F0BD000001401D
:103950000004004000080040000C0040000401404A
:103960000040014000440140004801400018004070
:10397000001C00400020004010B5806B0021C18574
:10398000C184FFF734FA10BD70B5846B20684069BC
:1039900094F83910C0F3C0100025212904D118B1C2
:1039A000E584204600F03FF82068406994F83A101A
:1039B000C0F38010222904D118B1E585204600F01B
:1039C00024F8E06B40F01000E0632046FFF70FFAA8
:1039D00070BD10B50146806B09680968C9050CD433
:1039E0000021C18401684A6922F080024A610068AE
:1039F000C16841F04001C16010BDFFF78FFC10BDF0
:103A000010B5806BFFF78BFC10BD0168CA6822F40B
:103A10009072CA6001684A6922F001024A6120215D
:103A200080F83A1070470168CA6822F0C002CA6084
:103A3000202180F83910704710B590F83A102229EB
:103A400001D0022010BD8168B1F5805F11D00169FD
:103A5000002901681FD0496801F07F03816A4A1C70
:103A600082620B70C18D491E0904090CC18518D0F2
:103A700026E00269816A002A0268526805D0D2B243
:103A80000A80816A491C8162ECE7C2F308020A805D
:103A9000816A891CF7E74A68816A4B1C83620A7055
:103AA000E0E70168CA6822F49072CA6001684A6956
:103AB00022F001024A61202180F83A10FFF7ECFB66
:103AC000002010BDC18D806AFCF73CBF2DE9F0419C
:103AD00004460068016921F44052E1681143016124
:103AE0002168C86849F20C6290432369A268E569BD
:103AF0001A4363692B431A430243CA602168486929
:103B000020F44072A06910434861E1696425B1F571
:103B1000004F9748974A21684FF032083FD09142B2
:103B200001D081427CD1FEF773FE00EBC00101EBB6
:103B3000001061688900B0FBF1F6FEF769FE00EB4A
:103B4000C00101EB001061688900B0FBF1F0B0FB2F
:103B5000F5F06FF01801484306EB800108EB011007
:103B6000B0FBF5F000F0F006FEF752FE00EBC001EE
:103B700001EB001061688900B0FBF1F0B0FBF5F0DB
:103B800006EB0016FEF744FE00EBC00101EB00104F
:103B900061688900B0FBF1F7FEF73AFED2E091428E
:103BA00001D081423DD1FEF733FE00EBC00101EBB5
:103BB000001061684900B0FBF1F0B0FBF5F00601C0
:103BC000FEF726FE00EBC00101EB00106168490022
:103BD000B0FBF1F7FEF71CFE00EBC00101EB00109B
:103BE00061684900B0FBF1F0B0FBF5F06FF018012F
:103BF000484307EB800108EBC100B0FBF5F000F093
:103C0000F80006EB4006FEF703FE00EBC00101EBF7
:103C1000001061684900B0FBF1F7FEF7F9FD3CE0E8
:103C200055E0FEF7E5FD00EBC00101EB0010616817
:103C30004900B0FBF1F0B0FBF5F00601FEF7D8FD4E
:103C400000EBC00101EB001061684900B0FBF1F727
:103C5000FEF7CEFD00EBC00101EB001061684900EA
:103C6000B0FBF1F0B0FBF5F06FF01801484307EB43
:103C7000800108EBC100B0FBF5F000F0F80006EBA6
:103C80004006FEF7B5FD00EBC00101EB00106168D6
:103C90004900B0FBF1F7FEF7ABFD00EBC00101EB13
:103CA000001061684900B0FBF1F0B0FBF5F06FF077
:103CB0001801484307EB800108EBC100B0FBF5F0A9
:103CC00000F00700216830448860BDE8F081FEF70D
:103CD0008FFD00EBC00101EB001061688900B0FBB3
:103CE000F1F6FEF785FD00EBC00101EB0010616805
:103CF0008900B0FBF1F0B0FBF5F06FF0180148431C
:103D000006EB800108EB0110B0FBF5F000F0F006C7
:103D1000FEF76EFD00EBC00101EB00106168890049
:103D2000B0FBF1F0B0FBF5F006EB0016FEF760FD1E
:103D300000EBC00101EB001061688900B0FBF1F7F6
:103D4000FEF756FD00EBC00101EB00106168890031
:103D5000B0FBF1F0B0FBF5F06FF01801484307EB52
:103D6000800108EB0110B0FBF5F000F00F00A9E7AF
:103D7000001401400010014090F83910212901D0B1
:103D8000022070478168B1F5805F016A0BD04A1C40
:103D90000262026809785160C18C491E0904090C4D
:103DA000C1840ED017E009880268C1F30801516090
:103DB00001690029016A02D0491C0162ECE7891CF3
:103DC000FBE70168CA6822F08002CA600068C16827
:103DD00041F04001C16000207047000010B5044868
:103DE00002F06AF8BDE810400148FFF77FB8000014
:103DF0004403002010B50448FEF7FAFFBDE8104068
:103E00000148FFF773B8000084030020D0F81802BF
:103E100020B10021C0F814120846704702207047F4
:103E200070B50546D0F8184200F035FBC4F80C0216
:103E3000D5F8180248B1D5F81C12D4F80402CA68A3
:103E400004F503719047002070BD022070BD70B56D
:103E500004460025812100F077FA0121204600F078
:103E600073FA8221204600F06FFAD4F8180250B19C
:103E7000D4F81C0204F5067440688047206801F0FD
:103E800017FC00202060284670BD10B5D0E986419F
:103E900059B194F80002FF2807D08B6894F80122EA
:103EA00021469847FF2084F80002002010BD000042
:103EB0000A21018000487047000200204321018050
:103EC000004870475002002043210180004870479D
:103ED0000C0200204321018000487047940200201A
:103EE0002DE9F0410446007C00254FF4007670B3C4
:103EF000402302228121204600F024FB402302229D
:103F00000121204600F01EFB0823032282212046C7
:103F100000F018FB4FF4077001F018FCC4F8180209
:103F2000F0B10746D4F81C02006880470020C7F8AB
:103F30001402C7F81802207CD7F8042290B140235D
:103F40000121204600F011FB2846BDE8F081FFE783
:103F5000334602228121204600F0F4FA3346CEE7B0
:103F60000125F1E73346EBE710B5D0F8181269B137
:103F7000027C002AD1F8042205D04023012100F060
:103F8000F4FA002010BD4FF40073F7E7022010BDD3
:103F900002460220002902D00020C2F81C127047FD
:103FA000D0F81802C0F8041200207047D0F81802A8
:103FB000C0F81022C0F808120020704770B50646FD
:103FC000D0F8185208780C4610F0600121D0202952
:103FD00027D1E288AAB10006607807D5D6F81C126E
:103FE0008B6829469847E288294617E085F8000241
:103FF000A07985F80102E2882946304600F050F8A1
:104000000FE0D6F81C12607800228B682146984792
:1040100007E060780A2804D103490122304600F005
:1040200059F8002070BD0000FC01002010B5D0F848
:10403000181289B1D1F814220AB1012010BD012251
:10404000C1F81422B1F8102293B2D1F808228121CC
:1040500000F035FB002010BD022010BD10B5D0F8D7
:10406000142252689047002010BD134610B50A462E
:10407000002100F07AFA002010BD134610B50A4660
:10408000002100F01CFB002010BD10B5044680216B
:1040900000F0ECFA2046BDE81040002100F0E6BA3E
:1040A00010B50323C0F80821C0F8F431C0F80C2182
:1040B00013460A46002100F058FA002010BD10B542
:1040C00005210023C0F8F4111A46194600F04DFAF4
:1040D000002010BD10B502238261C0F8F431C26126
:1040E00013460A46002100F0EAFA002010BD10B580
:1040F00004210023C0F8F4111A46194600F0DFFA33
:10410000002010BD10B50A46024903A000F0D4F803
:10411000004810BD3423002043444320436F6E66A3
:104120006967000012200880004870473C000020AA
:1041300010B50A46024903A000F0BEF8004810BDC1
:104140003423002043444320496E746572666163E2
:1041500065000000042008800048704738000020F7
:1041600010B50A46024903A000F0A6F8004810BDA9
:104170003423002053544D6963726F656C6563741A
:10418000726F6E696373000010B50A46024903A09E
:1041900000F092F8004810BD3423002053544D33F2
:1041A00032205669727475616C20436F6D506F7266
:1041B0007400000010B50A46024903A000F07CF824
:1041C000004810BD342300203030303030303030E3
:1041D0003030314100000000F8B5044648880D46F3
:1041E000010A08294BD2DFE801F04A0409174A4ABC
:1041F0004048D4F81012207C0A6832E0207C022665
:104200000028D4F8140205D0C16A684688470146E0
:10421000467041E0816AF8E7C0B206282FD2DFE895
:1042200000F003080D12171CD4F81012207C4A6805
:1042300017E0D4F81012207C8A6812E0D4F810122B
:10424000207CCA680DE0D4F81012207C0A6908E0CE
:10425000D4F81012207C4A6903E0D4F81012207CB4
:104260008A6969469047014616E0207C38B9D4F83F
:104270001402416B68468847F5E7207C20B1294647
:104280002046FFF702FFF8BDD4F81402016B684620
:104290008847014607204870BDF800000028F2D08A
:1042A000EA88002AEFD0824200D90246ADF8002009
:1042B0002046FFF70FFFF8BD70B5002300281DD082
:1042C0000446002502E06D1CEDB2641C2678002E29
:1042D000F9D1022404EB45041480CC545B1C032266
:1042E000CA5400245B1C06E0CA545B1CDAB28C542E
:1042F000521CD3B2401C0278002AF5D170BD10B513
:1043000080B1D0F8143213B10023C0F8143209B1CF
:10431000C0F81012012180F8FC11027000F0C0F802
:10432000002010BD022010BD10B50024D0F82002DE
:10433000FDF75DFD30B1012801D0022801D0022433
:1043400000E00124204610BD10B50024D0F8200262
:10435000FDF72BFD30B1012801D0022801D0022445
:1043600000E00124204610BD2DE9F0411746044627
:1043700041B1D4F8140242698AB394F8FC010328CD
:1043800042D043E0D4F8F411002504F114000229CE
:1043900033D1D0E902639E4207D9F31A83609AB2FF
:1043A00039462046FFF769FE12E04068B0FBF3F1A2
:1043B00003FB1101A1B9984212D3D4F8F811884235
:1043C0000ED2002211462046FFF757FEC4F8F851DE
:1043D00000231A461946204600F0C7F80DE012E007
:1043E000D4F81402C16829B194F8FC01032801D162
:1043F000204688472046FFF762FE94F80002012815
:1044000004D184F8005201E0204690470020BDE826
:10441000F08170B51546044641B1D4F814028269A2
:104420003AB394F8FC01032824D025E0D4F8F41121
:1044300004F5827003291FD1D0E902218A420BD9E9
:10444000531A83600846834200D303469AB2294632
:104450002046FFF70AFE0FE0D4F81402016929B1E3
:1044600094F8FC01032801D1204688472046FFF735
:104470003EFE01E020469047002070BD00207047BE
:1044800010B5012180F8FC11D0F81422017952688E
:104490009047002010BDD0F82002FDF7D0BC0000EE
:1044A00010B5017859BB17490222C1F8EC03C0F8D6
:1044B00020124FF0A0400860042048600020C1E9AD
:1044C0000320C1E90502C86108624862C862086346
:1044D0000846FDF7DFFF20B140F247110AA000F0C7
:1044E00020FF80210748FDF71FFC402200210548DE
:1044F000FDF71EFC802201210248FDF719FC002077
:1045000010BD0000441F00202E2E5C5372635C75AA
:104510007362645F636F6E662E6300000A0601F0CB
:104520007F01D0F82002C1EBC10100EB810002D570
:1045300090F83A00704790F8FA01704700207047F1
:104540000020704770B51D4613460024D0F82002A5
:104550002A46FDF77EFC30B1012801D0022801D0A7
:10456000022400E00124204670BD10B50024D0F8DC
:104570002002FDF798FC30B1012801D0022801D0BB
:10458000022400E00124204610BD70B5002204463C
:1045900040231146FFF7D6FF40252B4600228021FD
:1045A0002046C4F81051FFF7CDFF0120256284F8A2
:1045B000FC01D4F8180228B1D4F814022179426819
:1045C00020469047002070BD90F8FD1180F8FC1146
:1045D0000020704710B590F8FC11032904D1D0F8E1
:1045E0001412C96901B18847002010BD0174002070
:1045F000704710B50024D0F82002FDF7F5FF30B168
:10460000012801D0022801D0022400E00124204624
:1046100010BD70B5044600F50270054600F05FF865
:104620000120C4F8F401B4F80E02C4F8F80194F8BB
:10463000080210F01F010AD001290DD0022910D064
:1046400000F08001204600F011F8002070BD2946DE
:10465000204600F0AAF8F8E72946204600F08CF939
:10466000F3E72946204600F019F9EEE710B50024DB
:10467000D0F82002FDF73BFC30B1012801D0022820
:1046800001D0022400E00124204610BD10B5002412
:10469000D0F82002FDF7C1FF30B1012801D0022877
:1046A00001D0022400E00124204610BD90F8FC1146
:1046B00080F8FD11042180F8FC110020704710B52E
:1046C0000024D0F82002FDF742FC30B1012801D0CF
:1046D000022801D0022400E00124204610BD0A78FF
:1046E00002704A7842708A78CB7802EB03224280CB
:1046F0000A794B7902EB032282808A79C97902EB2D
:104700000121C18070470246002011B1C2F8141285
:1047100070470220704710B5D0F8142202241AB155
:104720001268904700B90024204610BD70B50E46AF
:104730001A4D897804462970012928D894F8FC017B
:10474000022802D0032822D105E099B1032061603C
:1047500084F8FC0109E091B1606888420AD0C1B2D6
:104760002046FFF77BFC297861602046FFF7D3FFE6
:1047700002280CD02046BDE87040FFF7B8BC0220EC
:1047800084F8FC0120466160FFF768FCF2E73146DF
:104790002046BDE87040FFF778BC00001003002001
:1047A00010B5FFF773FF002010BD2DE9F041002682
:1047B0004B78012532460A2B43D2DFE803F03C5800
:1047C0004251420805422A27FFF706FD63E00446EE
:1047D0008888C8B9C888B8B9887800F07F0794F885
:1047E000FC01032810D084F8FE7139462046FFF7FB
:1047F00000FF2046FFF77BFC1FB1022084F8FC017C
:1048000049E084F8FC5146E020461AE0FFF78EFFAD
:1048100041E0CB88012B14D190F8FC31022B02D05F
:10482000032B0ED104E08260012200F1080114E0A4
:104830000122011D11E090F8FC21022A04D0032A74
:1048400002D0FFF722FC26E0C560D0F8041209B1BF
:104850000321C160022200F10C01FFF73BFC1AE0CA
:1048600004464888012816D1C4F804520BE00446D7
:1048700090F8FC01022801D00328C5D148880128FE
:1048800009D1C4F80422D4F8140282682046904763
:104890002046FFF72CFC3046BDE8F08170B50D4690
:1048A0000446287800260979C0F34110012806D073
:1048B0006878A0B301281FD003283FD107E0D4F8BF
:1048C00014022946826820469047002070BD94F863
:1048D000FC01022817D003282CD1688828B921B1FF
:1048E000802902D02046FFF7C1FED4F814022946E1
:1048F00082682046904713E094F8FC01022802D019
:10490000032817D103E0C9B180291BD116E06888BC
:10491000A0B9480604D02046FFF706FDE5E703E00E
:104920002046FFF7E4FB09E094F8FC01022807D0D9
:1049300003280BD029462046FFF7A7FB304670BD61
:104940004806FBD02046FFF791FEF7E7080601F086
:104950007F0004EB001501D5143501E005F58275E3
:104960002046FFF7DBFD00B1012028600222294626
:104970002046FFF7AFFBE1E770B5054690F8FC0174
:104980000C4603280DD1207901280AD8D5F8140245
:10499000826828469047E08830B92846FFF7A7FB91
:1049A00002E02846FFF771FB002070BD30B54C785F
:1049B0001D4B01220D78AA40012CD0F81C4818D0BC
:1049C00044EA0242C0F81C280A7800EB4210D0F8F2
:1049D000002B12040BD4D0F8002B0C89C4F30A046A
:1049E0002243C97843EA81410A43C0F8002B0020E2
:1049F00030BD92B21443C0F81C480C7800EB441050
:104A0000D0F800291204F2D4D0F800290D89C5F39A
:104A10000A052A43C978890441EA84510A431A43A2
:104A2000C0F80029E3E7000000800010D0F800196A
:104A30006FF30A01C0F80019D0F80818C1F341015A
:104A4000022905D1D0F8001941F00301C0F800197E
:104A5000D0F8041841F48071C0F8041800207047A1
:104A600070B50446049D06990D9801290CD0E068A4
:104A700040F04000E060204600F028F84FF480301D
:104A8000A063012D16D01DE0A16B21F48031A1633C
:104A9000E1680D4A1140E160E16821F44011E160F4
:104AA000012803D1E06840F48010E060204600F067
:104AB0000DF8E6E7A06840F00600A060A06840F0AE
:104AC0002000A060002070BDBFFFBDFF01220C4987
:104AD00002E0521C8A420BD80369002BF9DA026902
:104AE00042F001020261012204E0521C8A4201D913
:104AF000032070470369DB07F7D1002070470000EF
:104B0000400D0300F0B50D4604464F780126F2062D
:104B1000D3002D49287804EB4010012F14D0D0F891
:104B2000007B27F40047C0F8007B287804EB401096
:104B3000C0F8002B287804EB4010C0F8003B01209F
:104B40002A7804EB42122BE0D0F8007927F40047D2
:104B5000C0F80079287804EB4010C0F800292878C4
:104B600004EB4010C0F8003901202A7804EB42120F
:104B700002E0401C884211D8D2F808395B00F8D412
:104B80001021204600F024FBD4F81C0829788E4020
:104B9000B1B2884314E0401C884201D90320F0BD23
:104BA000D2F8083BDB06F6D4D4F8040840F4806061
:104BB000C4F80408D4F81C0829788E4020EA06407E
:104BC000C4F81C080020F0BD400D030010B5D0F85B
:104BD000041821F00201C0F804180320FCF7FAFDC4
:104BE000002010BD10B5D0F8041841F00201C0F843
:104BF00004180320FCF7EEFD002010BD2DE9F0475E
:104C00000E460446DDE90A0A0025DDF83C80089FCF
:104C10005FEA0801A16B11D041F40021A1634FF0BC
:104C20000009C4F8009ED4F80018C4F80018012840
:104C300007D0D4F8000840F0030007E041F4001169
:104C4000ECE7D4F800080BB140F00100C4F800080C
:104C50001021204600F0BCFA204600F0A9FA484690
:104C6000C4F81098C4F814984FF0FF31C4F818181D
:104C7000C4F81C984FF0904CFF230FE004EB451153
:104C8000D1F80029002A02DAC1F800C901E0C1F810
:104C90000009C1F81009C1F808396D1CAE42EDD801
:104CA00000210FE004EB4112D2F8005B002D02DA84
:104CB000C2F800CB01E0C2F8000BC2F8100BC2F83A
:104CC000083B491C8E42EDD8D4F8101821F48071AD
:104CD000C4F81018012F0AD11449C4F83018D4F8B8
:104CE0003018134A1143C4F83018D4F83018A061B2
:104CF0006FF0804060611FB9A06940F01000A061B2
:104D0000A0690C490843A061BAF1000F03D0A06963
:104D100040F00800A061B8F1010F03D1A069064975
:104D20000843A0610020BDE8F0870000000180007A
:104D30000300010000383C8004000040816821F03D
:104D4000010181600020704730B54D784D4C0B78E3
:104D500000EB4313012D28D0D3F8105B6FF312053D
:104D6000C3F8105B0B7800EB4313D3F8105B2540BE
:104D7000C3F8105B4B690BB18B684B610B7800EB90
:104D80004313D3F8104B44F40024C3F8104B0B78B2
:104D900000EB4313D3F8104B8D68C5F312052C4379
:104DA000C3F8104B012A5CD061E04D69002DD3F8A7
:104DB00010593BD06FF31205C3F810590B7800EB74
:104DC0004313D3F810592540C3F810594C698B6828
:104DD0009C4200D94B610B7800EB4313D3F8104988
:104DE00044F40024C3F810490B7800EB4313D3F8C4
:104DF00010494D69C5F3120554EA0504C3F810497A
:104E00000B7800EB4313D3F8004944F00444C3F893
:104E10000049012A1ED04A6912B3D0F834280B7811
:104E2000012199400A43C0F8342829E02540C3F8FD
:104E300010590B7800EB4313D3F8104944F40024C5
:104E4000C3F810490B7800EB4313D3F810496FF304
:104E50001204D3E70A69097800EB4110C0F814295D
:104E60000EE00B7800EB4313CA68C3F8142B0978E3
:104E700000EB4110D0F8001B41F00441C0F8001BCA
:104E8000002030BDFFFF07E00023C0F8103BD0F842
:104E9000103B43F40023C0F8103BD0F8103B43F024
:104EA0001803C0F8103BD0F8103B43F0C043C0F8E3
:104EB000103B012905D1C0F8142B4FF08021C0F818
:104EC000001B002070474B780A7800EB4212012B40
:104ED0000BD0D2F8003B23F40013C2F8003BCA7891
:104EE000032A17D0022A15D01DE0D2F8003923F486
:104EF0000013C2F80039CA78032A01D0022A12D15D
:104F0000097800EB4110D0F8001941F08051C0F849
:104F1000001908E0097800EB4110D0F8001B41F0BF
:104F20008051C0F8001B002070474B780A7800EBD6
:104F30004212012B14D0D2F8003B002B05DBD2F833
:104F4000003B23F08043C2F8003B097800EB41109E
:104F5000D0F8001B41F40011C0F8001B002070477E
:104F6000D2F80039002B05DBD2F8003923F080435A
:104F7000C2F80039097800EB4110D0F8001941F46B
:104F80000011C0F80019E9E778B54E786FF0604578
:104F9000834C0B7800EB4313012E2FD0D3F8106B0A
:104FA0006FF31206C3F8106B0B7800EB4313D3F8C2
:104FB000106B2640C3F8106B4B69002B7DD08C68BA
:104FC00023445B1EB3FBF4F39BB20C7800EB441458
:104FD000D4F8106B05EAC3452E43C4F8106B0C7867
:104FE00000EB4414D4F8105B8E685E43C6F31203E2
:104FF0001D43C4F8105B012A73D0B2E04E6966B35A
:10500000D3F810696FF31206C3F810690B7800EB40
:105010004313D3F810692640C3F810694C698B68B4
:105020001C44641EB4FBF3F305EAC3440B7800EBA5
:105030004313D3F810592C43C3F810490B7800EBF5
:105040004313D3F810494D69C5F312052C43C3F837
:105050001049CB78012B16D027E0D3F81059254002
:10506000C3F810590B7800EB4313D3F8104944F4FC
:105070000024C3F810490B7800EB4313D3F8104910
:105080006FF312040FE00B7800EB4313D3F81049D1
:1050900024F0C044C3F810490B7800EB4313D3F855
:1050A000104944F00054C3F81049012A12D0CB78BB
:1050B000012B17D04B692BB300E037E0D0F8343820
:1050C0000D780124AC402343C0F83438CB78012B51
:1050D00008D017E00C7800EB44140B69C4F81439BD
:1050E000F4E738E0D0F80838DB050B7800EB431321
:1050F000D3F8004902D444F0005401E044F0805455
:10510000C3F800490B7800EB4313D3F8004944F08F
:105110000444C3F80049CB78012B3ED100928A8A1F
:1051200093B20A78C96800F0E7F836E00B7800EB34
:105130004313D3F8104B8D68C5F312052C43C3F805
:10514000104B0B7800EB4313D3F8104B44F40024BE
:10515000C3F8104B4FE70B7800EB4313CA68C3F852
:10516000142BCA78012A0FD1D0F80828D2050A7862
:1051700000EB4212D2F8003B02D443F0005301E0AE
:1051800043F08053C2F8003B097800EB4110D0F89F
:10519000001B41F00441C0F8001B002078BD000056
:1051A000FFFF07E0816841F0010181600020704746
:1051B000002110220261054A491C914201D90320B5
:1051C00070470369DB06F7D400207047400D0300E9
:1051D0000022202343EA811101610549521C8A42C1
:1051E00001D90320704703699B06F7D4002070475C
:1051F000400D03000021D0F8082812F0060F15D04A
:10520000D0F80828C2F34102012A0CD0D0F80828AF
:10521000C2F34102032A06D0D0F80808C0F34100C7
:10522000022802D002E0032100E002210846704774
:10523000406900F001007047D0F81818D0F81C0839
:10524000084080B27047D0F81818D0F81C08084001
:10525000000C7047D0F81038D0F83428CA4002F05B
:10526000010243EAC21200EB4110D0F808091040D5
:10527000704700EB4111D1F8081BD0F81408084022
:105280007047416980690840704710B503460020A7
:10529000D21C920803F5805303E01C6841F8044BCC
:1052A000401C9042F9D3084610BD10B5C26822F0E8
:1052B000C042C260012901D021B107E0C16841F0BC
:1052C000005102E0C16841F08041C1603220FCF72A
:1052D00081FA002010BDD0F8002822F4FE62C0F848
:1052E0000028D0F800284FF4FE6303EA01110A43B6
:1052F000C0F800280020704730B50024039D6DB928
:10530000DB1C9B0800EB023000F5805004E000BF7E
:1053100051F8042B0260641C9C42F9D3002030BD7C
:10532000FEE7FEE702E008C8121F08C1002AFAD112
:1053300070477047002001E001C1121F002AFBD115
:105340007047000008B500F045FA009000210948B8
:10535000FBF7E1FD48B1084B084A00210548FBF77F
:10536000ECFD05490548FBF703FB0521684600F005
:105370002AFAEBE71C030020F4010020D863002088
:105380002DE9F04104462DED088B82B088460120BE
:1053900000F012FAB4F90400FBF7F0F89FED8D8BE2
:1053A00053EC182BFBF778F841EC190BB4F9020019
:1053B000FBF7E4F853EC182BFBF76EF841EC1A0BF3
:1053C000B4F900004042FBF7D9F853EC182BFBF777
:1053D00063F853EC1A2BFAF7B8FF53EC192BFAF7D2
:1053E000B4FF9FED7E9B53EC192BFBF755F8FBF7B1
:1053F000F5F87C4D2860B4F90400FBF7BFF853ECD6
:10540000182BFBF749F841EC1A0BB4F90200FBF733
:10541000B5F853EC182BFBF73FF841EC1B0BB4F934
:105420000000FBF7ABF853EC182BFBF735F853EC07
:105430001B2BFAF78AFF53EC1A2BFAF786FF53EC73
:10544000192BFBF729F8FBF7C9F805F1480630607E
:10545000B4F90400FBF792F853EC182BFBF71CF897
:1054600041EC1A0BB4F90200FBF788F853EC182B47
:10547000FBF712F841EC1B0BB4F90000FBF77EF8C8
:1054800053EC182BFBF708F853EC1B2BFAF7FEFF35
:1054900053EC1A2BFAF759FF53EC192BFAF7FCFFD0
:1054A000FBF79CF805F190073860B4F90400FBF7AE
:1054B00065F853EC182BFAF7EFFF41EC1A0BB4F92F
:1054C0000200FBF75BF853EC182BFAF7E5FF41EC11
:1054D0001B0BB4F900004042FBF750F853EC182BBB
:1054E000FAF7DAFF53EC1B2BFAF7D0FF53EC1A2B29
:1054F000FAF72BFF53EC192BFAF7CEFFFBF76EF8F8
:1055000005F1D80420603848C06B00EE100A364818
:10551000B8EEC00A4C3085ED010AC06B00EE100AEF
:105520003148B8EEC00A983086ED010AC06B00EE33
:10553000100A2D48B8EEC00AE43087ED010AC06BAE
:1055400000EE100A2846B8EEC00A84ED010AFEF704
:1055500083F83046FEF780F83846FEF77DF820469F
:10556000FEF77AF894ED040ABDEEC00A10EE100AB8
:1055700000B2009097ED040ABDEEC00A10EE100ACA
:1055800096ED040A03B2BDEEC00A10EE100A95EDC6
:10559000040A02B2BDEEC00A10EE100A01B21348AE
:1055A00000F062FC98F8170002280DD198F8180056
:1055B000022809D19FED0E0A85ED000A86ED000A4A
:1055C00087ED000A84ED000A02B0BDEC088BBDE84F
:1055D000F0810000333333333333B33F0000000036
:1055E00000003240CC000020A86200201C030020F4
:1055F0000000000008B500F0EDF8009004490548EF
:10560000FFF7BEFE0521684600F0DDF8F6E7000072
:105610008E620020C000002000B585B0142206492B
:105620006846FAF76EFE0021684600F0E9F8034983
:10563000486005B000BD000068650008EC0100206E
:1056400000B585B0142206496846FAF75AFE0021D3
:10565000684600F0D5F80349086005B000BD0000B9
:1056600054650008C800002038B50F4800210068C4
:10567000026842680092C26842F01002C2600A4C9E
:105680000A4A94F83A0020280DD13223A262A38559
:10569000E1632168606B091DFCF73CF820684169F3
:1056A00041F04001416138BD440300207C6200208C
:1056B00010B5002821D0114B0022001F196803E00B
:1056C000814203D80A4649680029F9D152B11368CA
:1056D000841A9C4204D1006818441060104602E00D
:1056E000506000E0186039B102680B1A934203D190
:1056F0000B681A4402604968416010BD1403002021
:10570000EFF30580002800D001207047FCF726FA4F
:10571000FEF752F8FDF770FEFDF730FEFDF702FED2
:10572000FDF7D2FEFDF720FFFDF7F8FEFBF782F84C
:10573000FFF79AFFFDF748FE00F047F8FEE7014645
:105740000020842900D0C81C70470000F0B50B3041
:10575000154D20F007010024144A0FE003688B4226
:105760000BD38B4205D95E1A43184768C3E900671B
:1057700000E04368136002C004E0021D10680028C6
:10578000ECD12046002802D1286808B10020F0BDE5
:10579000064A07481060074A121A22F00702C0E9B9
:1057A000002401202860D7E71803002014030020FC
:1057B000FC630020F865002010B500B9012000F05E
:1057C0008BFC002010BD8120704710B500F0AAFCB2
:1057D000002010BD10B5FFF793FF18B1BDE81040D1
:1057E00000F0D0BDBDE8104000F0C6BD10B500F01F
:1057F000B5FD012803D0BDE8104000F06DBD10BD1F
:105800003EB504460D46B0F90800FFF798FF02A91F
:10581000CDE90001208A2B4682B2D4E9001000F0C5
:1058200071FD012801D000203EBD02983EBD000060
:105830002DE9F041184C0F460546E6682068001D2A
:1058400000F06AFB38B9206890F82C1001208840DD
:10585000216981432161681C07D137B12168BDE806
:10586000F0410E48091D00F08FBB20683544B54259
:105870004560216805D2A06BBDE8F041091D00F02C
:105880006BBB606B091D00F067FBA06A854200D20C
:10589000A562BDE8F08100008400002010620020B5
:1058A0002DE9F041054600F07BFB2E4CA068401C22
:1058B000A06020682C4F10B1606940B32DE02560D6
:1058C000A068012829D1002606EB860007EB80009E
:1058D00000F034FB761C072EF6D323488C3000F002
:1058E0002DFB2148A03000F029FB1F48B43000F008
:1058F00025FB1D48C83000F021FB1B48DC3000F0C0
:105900001DFB19488C3060631430A06305E02068EB
:10591000E96AC06A884200D82560606A401C6062FB
:10592000E96A0120226988401043206101EB81006F
:1059300007EB8000291D00F027FB00F051FB606998
:1059400000280CD02068E96AC06A884207D207495B
:105950004FF080500860BFF34F8FBFF36F8FBDE8EB
:10596000F0810000840000203461002004ED00E09C
:1059700070B5114E114C17E000F008FC3068B8B15A
:1059800000F06CFD00F00CFBF068C568281D00F00D
:10599000C3FAA068401EA0606068401E606000F00E
:1059A0001FFB284600F00CF860680028E4D170BDA9
:1059B00000F054FDF8E70000FC61002084000020A6
:1059C00010B50446006B00F01FFB2046BDE81040F8
:1059D00000F01ABB10484FF47051420706D0C01DAA
:1059E0000D4920F00700411AC1F570510B4A002300
:1059F0000144C2E900030839103A21F0070111609F
:105A00004B600B600B1AC0E9001393604FF000402D
:105A10005360D060704700003425002070000020E3
:105A2000074C4FF08056074DFFF7A2FF2068012872
:105A3000FAD92E60BFF34F8FBFF36F8FF4E70000EA
:105A40003461002004ED00E02DE9F0479A46DDE9DD
:105A5000098481466FF00303206B03EB820210443C
:105A6000089D20F00706700707D0502080F31188AA
:105A7000BFF34F8FBFF36F8FFEE723180A5C83F8E5
:105A800034200A5C12B1401C1028F6D3002784F899
:105A90004370072D00D30625E562C4E91157201D88
:105AA00000F057FA04F1180000F053FA2461C5F130
:105AB00007006462A061E76484F85070524649466A
:105AC000304600F0BFF82060B8F1000F01D0C8F8F0
:105AD0000040BDE8F087000030B5114900E01146F4
